{
  "contractName": "Auction",
  "abi": [
    {
      "inputs": [
        {
          "internalType": "string",
          "name": "_auctionName",
          "type": "string"
        },
        {
          "internalType": "address",
          "name": "_auctioneer",
          "type": "address"
        }
      ],
      "stateMutability": "nonpayable",
      "type": "constructor"
    },
    {
      "inputs": [],
      "name": "auctionName",
      "outputs": [
        {
          "internalType": "string",
          "name": "",
          "type": "string"
        }
      ],
      "stateMutability": "view",
      "type": "function"
    },
    {
      "inputs": [],
      "name": "auctioneer",
      "outputs": [
        {
          "internalType": "address",
          "name": "",
          "type": "address"
        }
      ],
      "stateMutability": "view",
      "type": "function"
    },
    {
      "inputs": [
        {
          "internalType": "address",
          "name": "",
          "type": "address"
        }
      ],
      "name": "bidderContractMap",
      "outputs": [
        {
          "internalType": "contract Bidder",
          "name": "",
          "type": "address"
        }
      ],
      "stateMutability": "view",
      "type": "function"
    },
    {
      "inputs": [
        {
          "internalType": "uint256",
          "name": "",
          "type": "uint256"
        }
      ],
      "name": "bidders",
      "outputs": [
        {
          "internalType": "address",
          "name": "",
          "type": "address"
        }
      ],
      "stateMutability": "view",
      "type": "function"
    },
    {
      "inputs": [],
      "name": "getAuctionName",
      "outputs": [
        {
          "internalType": "string",
          "name": "",
          "type": "string"
        }
      ],
      "stateMutability": "view",
      "type": "function"
    },
    {
      "inputs": [],
      "name": "getAuctioneer",
      "outputs": [
        {
          "internalType": "address",
          "name": "",
          "type": "address"
        }
      ],
      "stateMutability": "view",
      "type": "function"
    },
    {
      "inputs": [],
      "name": "getBidders",
      "outputs": [
        {
          "internalType": "address[]",
          "name": "",
          "type": "address[]"
        }
      ],
      "stateMutability": "view",
      "type": "function"
    },
    {
      "inputs": [],
      "name": "getBidderContract",
      "outputs": [
        {
          "internalType": "contract Bidder",
          "name": "",
          "type": "address"
        }
      ],
      "stateMutability": "view",
      "type": "function"
    },
    {
      "inputs": [],
      "name": "joinAuction",
      "outputs": [
        {
          "internalType": "contract Bidder",
          "name": "",
          "type": "address"
        }
      ],
      "stateMutability": "nonpayable",
      "type": "function"
    }
  ],
  "bytecode": "0x60806040523480156200001157600080fd5b506040516200121e3803806200121e83398181016040528101906200003791906200034a565b81600190805190602001906200004f92919062000098565b50806000806101000a81548173ffffffffffffffffffffffffffffffffffffffff021916908373ffffffffffffffffffffffffffffffffffffffff160217905550505062000415565b828054620000a690620003df565b90600052602060002090601f016020900481019282620000ca576000855562000116565b82601f10620000e557805160ff191683800117855562000116565b8280016001018555821562000116579182015b8281111562000115578251825591602001919060010190620000f8565b5b50905062000125919062000129565b5090565b5b80821115620001445760008160009055506001016200012a565b5090565b6000604051905090565b600080fd5b600080fd5b600080fd5b600080fd5b6000601f19601f8301169050919050565b7f4e487b7100000000000000000000000000000000000000000000000000000000600052604160045260246000fd5b620001b18262000166565b810181811067ffffffffffffffff82111715620001d357620001d262000177565b5b80604052505050565b6000620001e862000148565b9050620001f68282620001a6565b919050565b600067ffffffffffffffff82111562000219576200021862000177565b5b620002248262000166565b9050602081019050919050565b60005b838110156200025157808201518184015260208101905062000234565b8381111562000261576000848401525b50505050565b60006200027e6200027884620001fb565b620001dc565b9050828152602081018484840111156200029d576200029c62000161565b5b620002aa84828562000231565b509392505050565b600082601f830112620002ca57620002c96200015c565b5b8151620002dc84826020860162000267565b91505092915050565b600073ffffffffffffffffffffffffffffffffffffffff82169050919050565b60006200031282620002e5565b9050919050565b620003248162000305565b81146200033057600080fd5b50565b600081519050620003448162000319565b92915050565b6000806040838503121562000364576200036362000152565b5b600083015167ffffffffffffffff81111562000385576200038462000157565b5b6200039385828601620002b2565b9250506020620003a68582860162000333565b9150509250929050565b7f4e487b7100000000000000000000000000000000000000000000000000000000600052602260045260246000fd5b60006002820490506001821680620003f857607f821691505b602082108114156200040f576200040e620003b0565b5b50919050565b610df980620004256000396000f3fe60806040523480156200001157600080fd5b5060043610620000a05760003560e01c806371002b75116200006f57806371002b751462000141578063c63d99db1462000163578063cb6632ef1462000185578063cff29dfd14620001a7578063f94a507d14620001dd57620000a0565b80632d73a56c14620000a557806336fb61a714620000db578063409c6c4714620000fd5780635ec2c7bf146200011f575b600080fd5b620000c36004803603810190620000bd919062000686565b620001ff565b604051620000d2919062000723565b60405180910390f35b620000e562000232565b604051620000f4919062000723565b60405180910390f35b620001076200035a565b604051620001169190620007e4565b60405180910390f35b62000129620003f4565b60405162000138919062000819565b60405180910390f35b6200014b62000418565b6040516200015a919062000723565b60405180910390f35b6200016d6200047f565b6040516200017c9190620007e4565b60405180910390f35b6200018f62000515565b6040516200019e919062000904565b60405180910390f35b620001c56004803603810190620001bf919062000963565b620005a5565b604051620001d4919062000819565b60405180910390f35b620001e7620005e5565b604051620001f6919062000819565b60405180910390f35b60026020528060005260406000206000915054906101000a900473ffffffffffffffffffffffffffffffffffffffff1681565b600080303360405162000245906200060e565b62000252929190620009ba565b604051809103906000f0801580156200026f573d6000803e3d6000fd5b50905080600260003373ffffffffffffffffffffffffffffffffffffffff1673ffffffffffffffffffffffffffffffffffffffff16815260200190815260200160002060006101000a81548173ffffffffffffffffffffffffffffffffffffffff021916908373ffffffffffffffffffffffffffffffffffffffff1602179055506003339080600181540180825580915050600190039060005260206000200160009091909190916101000a81548173ffffffffffffffffffffffffffffffffffffffff021916908373ffffffffffffffffffffffffffffffffffffffff1602179055508091505090565b6060600180546200036b9062000a16565b80601f0160208091040260200160405190810160405280929190818152602001828054620003999062000a16565b8015620003ea5780601f10620003be57610100808354040283529160200191620003ea565b820191906000526020600020905b815481529060010190602001808311620003cc57829003601f168201915b5050505050905090565b60008054906101000a900473ffffffffffffffffffffffffffffffffffffffff1681565b6000600260003373ffffffffffffffffffffffffffffffffffffffff1673ffffffffffffffffffffffffffffffffffffffff16815260200190815260200160002060009054906101000a900473ffffffffffffffffffffffffffffffffffffffff16905090565b600180546200048e9062000a16565b80601f0160208091040260200160405190810160405280929190818152602001828054620004bc9062000a16565b80156200050d5780601f10620004e1576101008083540402835291602001916200050d565b820191906000526020600020905b815481529060010190602001808311620004ef57829003601f168201915b505050505081565b606060038054806020026020016040519081016040528092919081815260200182805480156200059b57602002820191906000526020600020905b8160009054906101000a900473ffffffffffffffffffffffffffffffffffffffff1673ffffffffffffffffffffffffffffffffffffffff168152602001906001019080831162000550575b5050505050905090565b60038181548110620005b657600080fd5b906000526020600020016000915054906101000a900473ffffffffffffffffffffffffffffffffffffffff1681565b60008060009054906101000a900473ffffffffffffffffffffffffffffffffffffffff16905090565b6103778062000a4d83390190565b600080fd5b600073ffffffffffffffffffffffffffffffffffffffff82169050919050565b60006200064e8262000621565b9050919050565b620006608162000641565b81146200066c57600080fd5b50565b600081359050620006808162000655565b92915050565b6000602082840312156200069f576200069e6200061c565b5b6000620006af848285016200066f565b91505092915050565b6000819050919050565b6000620006e3620006dd620006d78462000621565b620006b8565b62000621565b9050919050565b6000620006f782620006c2565b9050919050565b60006200070b82620006ea565b9050919050565b6200071d81620006fe565b82525050565b60006020820190506200073a600083018462000712565b92915050565b600081519050919050565b600082825260208201905092915050565b60005b838110156200077c5780820151818401526020810190506200075f565b838111156200078c576000848401525b50505050565b6000601f19601f8301169050919050565b6000620007b08262000740565b620007bc81856200074b565b9350620007ce8185602086016200075c565b620007d98162000792565b840191505092915050565b60006020820190508181036000830152620008008184620007a3565b905092915050565b620008138162000641565b82525050565b600060208201905062000830600083018462000808565b92915050565b600081519050919050565b600082825260208201905092915050565b6000819050602082019050919050565b6200086d8162000641565b82525050565b600062000881838362000862565b60208301905092915050565b6000602082019050919050565b6000620008a78262000836565b620008b3818562000841565b9350620008c08362000852565b8060005b83811015620008f7578151620008db888262000873565b9750620008e8836200088d565b925050600181019050620008c4565b5085935050505092915050565b600060208201905081810360008301526200092081846200089a565b905092915050565b6000819050919050565b6200093d8162000928565b81146200094957600080fd5b50565b6000813590506200095d8162000932565b92915050565b6000602082840312156200097c576200097b6200061c565b5b60006200098c848285016200094c565b91505092915050565b6000620009a282620006ea565b9050919050565b620009b48162000995565b82525050565b6000604082019050620009d16000830185620009a9565b620009e0602083018462000808565b9392505050565b7f4e487b7100000000000000000000000000000000000000000000000000000000600052602260045260246000fd5b6000600282049050600182168062000a2f57607f821691505b6020821081141562000a465762000a45620009e7565b5b5091905056fe608060405234801561001057600080fd5b506040516103773803806103778339818101604052810190610032919061015b565b81600160006101000a81548173ffffffffffffffffffffffffffffffffffffffff021916908373ffffffffffffffffffffffffffffffffffffffff160217905550806000806101000a81548173ffffffffffffffffffffffffffffffffffffffff021916908373ffffffffffffffffffffffffffffffffffffffff160217905550505061019b565b600080fd5b600073ffffffffffffffffffffffffffffffffffffffff82169050919050565b60006100ea826100bf565b9050919050565b60006100fc826100df565b9050919050565b61010c816100f1565b811461011757600080fd5b50565b60008151905061012981610103565b92915050565b610138816100df565b811461014357600080fd5b50565b6000815190506101558161012f565b92915050565b60008060408385031215610172576101716100ba565b5b60006101808582860161011a565b925050602061019185828601610146565b9150509250929050565b6101cd806101aa6000396000f3fe608060405234801561001057600080fd5b50600436106100365760003560e01c8063f496d8821461003b578063fa6a6d3614610059575b600080fd5b610043610077565b6040516100509190610102565b60405180910390f35b61006161009b565b60405161006e919061017c565b60405180910390f35b60008054906101000a900473ffffffffffffffffffffffffffffffffffffffff1681565b600160009054906101000a900473ffffffffffffffffffffffffffffffffffffffff1681565b600073ffffffffffffffffffffffffffffffffffffffff82169050919050565b60006100ec826100c1565b9050919050565b6100fc816100e1565b82525050565b600060208201905061011760008301846100f3565b92915050565b6000819050919050565b600061014261013d610138846100c1565b61011d565b6100c1565b9050919050565b600061015482610127565b9050919050565b600061016682610149565b9050919050565b6101768161015b565b82525050565b6000602082019050610191600083018461016d565b9291505056fea26469706673582212208dd9258dac8d619058dd517de33ad997c35f905accdf3dbef2849fef67db085f64736f6c634300080a0033a2646970667358221220b1493421c2b6fc3ae6e704cf475a5efe5f2b4c657ab2043b5b164ec0667fc3a664736f6c634300080a0033",
  "immutableReferences": {},
  "source": "// SPDX-License-Identifier: MIT\npragma solidity >=0.4.22 <0.9.0;\n\ncontract Bidder {\n  address public bidder;\n  Auction public auctionAddr;\n\n  constructor(Auction _auctionAddr, address _bidder) {\n    auctionAddr = _auctionAddr;\n    bidder = _bidder;\n  }\n}\n\ncontract Auction {\n  address public auctioneer;\n  string public auctionName;\n  mapping(address => Bidder) public bidderContractMap;\n  address[] public bidders;\n\n  constructor(string memory _auctionName, address _auctioneer) {\n    auctionName = _auctionName;\n    auctioneer = _auctioneer;\n  }\n\n  function getAuctionName()\n    view\n    public\n    returns(string memory)\n  {\n    return auctionName;\n  }\n\n  function getAuctioneer()\n    view\n    public\n    returns(address)\n  {\n    return auctioneer;\n  }\n\n  function getBidders()\n    view\n    public\n    returns(address[] memory)\n  {\n    return bidders;\n  }\n\n  function getBidderContract()\n    view\n    public\n    returns(Bidder)\n  {\n    return bidderContractMap[msg.sender];\n  }\n\n  function joinAuction()\n    public\n    returns(Bidder)\n  {\n    Bidder newBidder = new Bidder(this, msg.sender);\n    bidderContractMap[msg.sender] = newBidder;\n    bidders.push(msg.sender);\n\n    return newBidder;\n  }\n}\n\ncontract Main {\n  address public owner = msg.sender;\n  string public message;\n  Auction[] public auctions;\n\n  constructor() {\n  }\n\n  modifier ownerOnly() {\n    require(\n      msg.sender == owner,\n      \"This function is restricted to the contract's owner\"\n    );\n    _;\n  }\n\n  function getAuctions()\n    view\n    public\n    returns(Auction[] memory)\n  {\n    return auctions;\n  }\n\n  function createAuction(string memory _auctionName)\n    public\n    returns(Auction)\n  {\n    require(bytes(_auctionName).length > 0);\n\n    Auction newAuction = new Auction(_auctionName, msg.sender);\n    auctions.push(newAuction);\n\n    return newAuction;\n  }\n}\n",
  "sourcePath": "/Users/ykzheng/Projects/smart-contract/contracts/Main.sol",
  "compiler": {
    "name": "solc",
    "version": "0.8.10+commit.fc410830.Emscripten.clang"
  },
  "schemaVersion": "3.4.4",
  "updatedAt": "2022-01-05T15:57:10.056Z",
  "devdoc": {
    "kind": "dev",
    "methods": {},
    "version": 1
  },
  "userdoc": {
    "kind": "user",
    "methods": {},
    "version": 1
  }
}