{
  "contractName": "Bidder",
  "abi": [
    {
      "inputs": [
        {
          "internalType": "contract Auction",
          "name": "_auctionAddr",
          "type": "address"
        },
        {
          "internalType": "address",
          "name": "_bidder",
          "type": "address"
        }
      ],
      "stateMutability": "nonpayable",
      "type": "constructor"
    },
    {
      "inputs": [],
      "name": "auctionAddr",
      "outputs": [
        {
          "internalType": "contract Auction",
          "name": "",
          "type": "address"
        }
      ],
      "stateMutability": "view",
      "type": "function"
    },
    {
      "inputs": [],
      "name": "bidder",
      "outputs": [
        {
          "internalType": "address",
          "name": "",
          "type": "address"
        }
      ],
      "stateMutability": "view",
      "type": "function"
    }
  ],
  "bytecode": "0x608060405234801561001057600080fd5b506040516103773803806103778339818101604052810190610032919061015b565b81600160006101000a81548173ffffffffffffffffffffffffffffffffffffffff021916908373ffffffffffffffffffffffffffffffffffffffff160217905550806000806101000a81548173ffffffffffffffffffffffffffffffffffffffff021916908373ffffffffffffffffffffffffffffffffffffffff160217905550505061019b565b600080fd5b600073ffffffffffffffffffffffffffffffffffffffff82169050919050565b60006100ea826100bf565b9050919050565b60006100fc826100df565b9050919050565b61010c816100f1565b811461011757600080fd5b50565b60008151905061012981610103565b92915050565b610138816100df565b811461014357600080fd5b50565b6000815190506101558161012f565b92915050565b60008060408385031215610172576101716100ba565b5b60006101808582860161011a565b925050602061019185828601610146565b9150509250929050565b6101cd806101aa6000396000f3fe608060405234801561001057600080fd5b50600436106100365760003560e01c8063f496d8821461003b578063fa6a6d3614610059575b600080fd5b610043610077565b6040516100509190610102565b60405180910390f35b61006161009b565b60405161006e919061017c565b60405180910390f35b60008054906101000a900473ffffffffffffffffffffffffffffffffffffffff1681565b600160009054906101000a900473ffffffffffffffffffffffffffffffffffffffff1681565b600073ffffffffffffffffffffffffffffffffffffffff82169050919050565b60006100ec826100c1565b9050919050565b6100fc816100e1565b82525050565b600060208201905061011760008301846100f3565b92915050565b6000819050919050565b600061014261013d610138846100c1565b61011d565b6100c1565b9050919050565b600061015482610127565b9050919050565b600061016682610149565b9050919050565b6101768161015b565b82525050565b6000602082019050610191600083018461016d565b9291505056fea26469706673582212208dd9258dac8d619058dd517de33ad997c35f905accdf3dbef2849fef67db085f64736f6c634300080a0033",
  "immutableReferences": {},
  "source": "// SPDX-License-Identifier: MIT\npragma solidity >=0.4.22 <0.9.0;\n\ncontract Bidder {\n  address public bidder;\n  Auction public auctionAddr;\n\n  constructor(Auction _auctionAddr, address _bidder) {\n    auctionAddr = _auctionAddr;\n    bidder = _bidder;\n  }\n}\n\ncontract Auction {\n  address public auctioneer;\n  string public auctionName;\n  mapping(address => Bidder) public bidderContractMap;\n  address[] public bidders;\n\n  constructor(string memory _auctionName, address _auctioneer) {\n    auctionName = _auctionName;\n    auctioneer = _auctioneer;\n  }\n\n  function getAuctionName()\n    view\n    public\n    returns(string memory)\n  {\n    return auctionName;\n  }\n\n  function getAuctioneer()\n    view\n    public\n    returns(address)\n  {\n    return auctioneer;\n  }\n\n  function getBidders()\n    view\n    public\n    returns(address[] memory)\n  {\n    return bidders;\n  }\n\n  function getBidderContract()\n    view\n    public\n    returns(Bidder)\n  {\n    return bidderContractMap[msg.sender];\n  }\n\n  function joinAuction()\n    public\n    returns(Bidder)\n  {\n    Bidder newBidder = new Bidder(this, msg.sender);\n    bidderContractMap[msg.sender] = newBidder;\n    bidders.push(msg.sender);\n\n    return newBidder;\n  }\n}\n\ncontract Main {\n  address public owner = msg.sender;\n  string public message;\n  Auction[] public auctions;\n\n  constructor() {\n  }\n\n  modifier ownerOnly() {\n    require(\n      msg.sender == owner,\n      \"This function is restricted to the contract's owner\"\n    );\n    _;\n  }\n\n  function getAuctions()\n    view\n    public\n    returns(Auction[] memory)\n  {\n    return auctions;\n  }\n\n  function createAuction(string memory _auctionName)\n    public\n    returns(Auction)\n  {\n    require(bytes(_auctionName).length > 0);\n\n    Auction newAuction = new Auction(_auctionName, msg.sender);\n    auctions.push(newAuction);\n\n    return newAuction;\n  }\n}\n",
  "sourcePath": "/Users/ykzheng/Projects/smart-contract/contracts/Main.sol",
  "compiler": {
    "name": "solc",
    "version": "0.8.10+commit.fc410830.Emscripten.clang"
  },
  "schemaVersion": "3.4.4",
  "updatedAt": "2022-01-05T15:57:10.061Z",
  "devdoc": {
    "kind": "dev",
    "methods": {},
    "version": 1
  },
  "userdoc": {
    "kind": "user",
    "methods": {},
    "version": 1
  }
}