{
  "contractName": "Main",
  "abi": [
    {
      "inputs": [
        {
          "internalType": "uint256",
          "name": "",
          "type": "uint256"
        }
      ],
      "name": "auctions",
      "outputs": [
        {
          "internalType": "contract Auction",
          "name": "",
          "type": "address"
        }
      ],
      "stateMutability": "view",
      "type": "function",
      "constant": true
    },
    {
      "inputs": [],
      "name": "owner",
      "outputs": [
        {
          "internalType": "address",
          "name": "",
          "type": "address"
        }
      ],
      "stateMutability": "view",
      "type": "function",
      "constant": true
    },
    {
      "inputs": [],
      "name": "getAuctions",
      "outputs": [
        {
          "internalType": "contract Auction[]",
          "name": "",
          "type": "address[]"
        }
      ],
      "stateMutability": "view",
      "type": "function",
      "constant": true
    },
    {
      "inputs": [
        {
          "internalType": "string",
          "name": "_auctionName",
          "type": "string"
        },
        {
          "internalType": "string",
          "name": "_auctionDesc",
          "type": "string"
        },
        {
          "internalType": "uint256",
          "name": "_relCommitDeadlineSec",
          "type": "uint256"
        },
        {
          "internalType": "uint256",
          "name": "_q",
          "type": "uint256"
        },
        {
          "internalType": "uint256",
          "name": "_p",
          "type": "uint256"
        },
        {
          "internalType": "uint256",
          "name": "_g",
          "type": "uint256"
        }
      ],
      "name": "createAuction",
      "outputs": [
        {
          "internalType": "contract Auction",
          "name": "",
          "type": "address"
        }
      ],
      "stateMutability": "nonpayable",
      "type": "function"
    }
  ],
  "bytecode": "0x6080604052336000806101000a81548173ffffffffffffffffffffffffffffffffffffffff021916908373ffffffffffffffffffffffffffffffffffffffff16021790555034801561005057600080fd5b50612a4e806100606000396000f3fe60806040523480156200001157600080fd5b5060043610620000525760003560e01c8063571a26a0146200005757806383575dd3146200008d5780638da5cb5b14620000c3578063d7c0691914620000e5575b600080fd5b6200007560048036038101906200006f919062000322565b62000107565b604051620000849190620003df565b60405180910390f35b620000ab6004803603810190620000a591906200055e565b62000147565b604051620000ba9190620003df565b60405180910390f35b620000cd62000211565b604051620000dc91906200065d565b60405180910390f35b620000ef62000235565b604051620000fe919062000748565b60405180910390f35b600181815481106200011857600080fd5b906000526020600020016000915054906101000a900473ffffffffffffffffffffffffffffffffffffffff1681565b6000808751116200015757600080fd5b6000878733888888886040516200016e90620002c5565b62000180979695949392919062000810565b604051809103906000f0801580156200019d573d6000803e3d6000fd5b5090506001819080600181540180825580915050600190039060005260206000200160009091909190916101000a81548173ffffffffffffffffffffffffffffffffffffffff021916908373ffffffffffffffffffffffffffffffffffffffff160217905550809150509695505050505050565b60008054906101000a900473ffffffffffffffffffffffffffffffffffffffff1681565b60606001805480602002602001604051908101604052809291908181526020018280548015620002bb57602002820191906000526020600020905b8160009054906101000a900473ffffffffffffffffffffffffffffffffffffffff1673ffffffffffffffffffffffffffffffffffffffff168152602001906001019080831162000270575b5050505050905090565b61217d806200089c83390190565b6000604051905090565b600080fd5b600080fd5b6000819050919050565b620002fc81620002e7565b81146200030857600080fd5b50565b6000813590506200031c81620002f1565b92915050565b6000602082840312156200033b576200033a620002dd565b5b60006200034b848285016200030b565b91505092915050565b600073ffffffffffffffffffffffffffffffffffffffff82169050919050565b6000819050919050565b60006200039f62000399620003938462000354565b62000374565b62000354565b9050919050565b6000620003b3826200037e565b9050919050565b6000620003c782620003a6565b9050919050565b620003d981620003ba565b82525050565b6000602082019050620003f66000830184620003ce565b92915050565b600080fd5b600080fd5b6000601f19601f8301169050919050565b7f4e487b7100000000000000000000000000000000000000000000000000000000600052604160045260246000fd5b620004518262000406565b810181811067ffffffffffffffff8211171562000473576200047262000417565b5b80604052505050565b600062000488620002d3565b905062000496828262000446565b919050565b600067ffffffffffffffff821115620004b957620004b862000417565b5b620004c48262000406565b9050602081019050919050565b82818337600083830152505050565b6000620004f7620004f1846200049b565b6200047c565b90508281526020810184848401111562000516576200051562000401565b5b62000523848285620004d1565b509392505050565b600082601f830112620005435762000542620003fc565b5b813562000555848260208601620004e0565b91505092915050565b60008060008060008060c087890312156200057e576200057d620002dd565b5b600087013567ffffffffffffffff8111156200059f576200059e620002e2565b5b620005ad89828a016200052b565b965050602087013567ffffffffffffffff811115620005d157620005d0620002e2565b5b620005df89828a016200052b565b9550506040620005f289828a016200030b565b94505060606200060589828a016200030b565b93505060806200061889828a016200030b565b92505060a06200062b89828a016200030b565b9150509295509295509295565b6000620006458262000354565b9050919050565b620006578162000638565b82525050565b60006020820190506200067460008301846200064c565b92915050565b600081519050919050565b600082825260208201905092915050565b6000819050602082019050919050565b620006b181620003ba565b82525050565b6000620006c58383620006a6565b60208301905092915050565b6000602082019050919050565b6000620006eb826200067a565b620006f7818562000685565b9350620007048362000696565b8060005b838110156200073b5781516200071f8882620006b7565b97506200072c83620006d1565b92505060018101905062000708565b5085935050505092915050565b60006020820190508181036000830152620007648184620006de565b905092915050565b600081519050919050565b600082825260208201905092915050565b60005b83811015620007a85780820151818401526020810190506200078b565b83811115620007b8576000848401525b50505050565b6000620007cb826200076c565b620007d7818562000777565b9350620007e981856020860162000788565b620007f48162000406565b840191505092915050565b6200080a81620002e7565b82525050565b600060e08201905081810360008301526200082c818a620007be565b90508181036020830152620008428189620007be565b90506200085360408301886200064c565b620008626060830187620007ff565b620008716080830186620007ff565b6200088060a0830185620007ff565b6200088f60c0830184620007ff565b9897505050505050505056fe60806040523480156200001157600080fd5b506040516200217d3803806200217d8339818101604052810190620000379190620003cc565b86600190805190602001906200004f929190620000df565b50856002908051906020019062000068929190620000df565b50846000806101000a81548173ffffffffffffffffffffffffffffffffffffffff021916908373ffffffffffffffffffffffffffffffffffffffff1602179055508342620000b79190620004ec565b60088190555082600581905550816006819055508060078190555050505050505050620005ae565b828054620000ed9062000578565b90600052602060002090601f0160209004810192826200011157600085556200015d565b82601f106200012c57805160ff19168380011785556200015d565b828001600101855582156200015d579182015b828111156200015c5782518255916020019190600101906200013f565b5b5090506200016c919062000170565b5090565b5b808211156200018b57600081600090555060010162000171565b5090565b6000604051905090565b600080fd5b600080fd5b600080fd5b600080fd5b6000601f19601f8301169050919050565b7f4e487b7100000000000000000000000000000000000000000000000000000000600052604160045260246000fd5b620001f882620001ad565b810181811067ffffffffffffffff821117156200021a5762000219620001be565b5b80604052505050565b60006200022f6200018f565b90506200023d8282620001ed565b919050565b600067ffffffffffffffff82111562000260576200025f620001be565b5b6200026b82620001ad565b9050602081019050919050565b60005b83811015620002985780820151818401526020810190506200027b565b83811115620002a8576000848401525b50505050565b6000620002c5620002bf8462000242565b62000223565b905082815260208101848484011115620002e457620002e3620001a8565b5b620002f184828562000278565b509392505050565b600082601f830112620003115762000310620001a3565b5b815162000323848260208601620002ae565b91505092915050565b600073ffffffffffffffffffffffffffffffffffffffff82169050919050565b600062000359826200032c565b9050919050565b6200036b816200034c565b81146200037757600080fd5b50565b6000815190506200038b8162000360565b92915050565b6000819050919050565b620003a68162000391565b8114620003b257600080fd5b50565b600081519050620003c6816200039b565b92915050565b600080600080600080600060e0888a031215620003ee57620003ed62000199565b5b600088015167ffffffffffffffff8111156200040f576200040e6200019e565b5b6200041d8a828b01620002f9565b975050602088015167ffffffffffffffff8111156200044157620004406200019e565b5b6200044f8a828b01620002f9565b9650506040620004628a828b016200037a565b9550506060620004758a828b01620003b5565b9450506080620004888a828b01620003b5565b93505060a06200049b8a828b01620003b5565b92505060c0620004ae8a828b01620003b5565b91505092959891949750929550565b7f4e487b7100000000000000000000000000000000000000000000000000000000600052601160045260246000fd5b6000620004f98262000391565b9150620005068362000391565b9250827fffffffffffffffffffffffffffffffffffffffffffffffffffffffffffffffff038211156200053e576200053d620004bd565b5b828201905092915050565b7f4e487b7100000000000000000000000000000000000000000000000000000000600052602260045260246000fd5b600060028204905060018216806200059157607f821691505b60208210811415620005a857620005a762000549565b5b50919050565b611bbf80620005be6000396000f3fe60806040523480156200001157600080fd5b5060043610620001005760003560e01c8063cb6632ef1162000099578063e2179b8e116200006f578063e2179b8e1462000293578063e4cba85914620002b5578063f25910d214620002d5578063fd3ab28214620002f55762000100565b8063cb6632ef1462000219578063cff29dfd146200023b578063d669df3514620002715762000100565b80635ec2c7bf11620000db5780635ec2c7bf14620001915780639ae8886a14620001b3578063a2ff020914620001d5578063c63d99db14620001f75762000100565b80630d907c2d14620001055780632d73a56c14620001255780632daccf4c146200015b575b600080fd5b6200012360048036038101906200011d91906200096e565b62000317565b005b6200014360048036038101906200013d919062000a24565b62000355565b60405162000152919062000ac1565b60405180910390f35b6200017960048036038101906200017391906200096e565b62000388565b60405162000188919062000ac1565b60405180910390f35b6200019b62000536565b604051620001aa919062000aef565b60405180910390f35b620001bd6200055a565b604051620001cc919062000b27565b60405180910390f35b620001df62000560565b604051620001ee919062000b27565b60405180910390f35b6200020162000566565b60405162000210919062000bd7565b60405180910390f35b62000223620005fc565b60405162000232919062000cc9565b60405180910390f35b62000259600480360381019062000253919062000d1e565b6200068c565b60405162000268919062000aef565b60405180910390f35b6200027b620006cc565b6040516200028a919062000bd7565b60405180910390f35b6200029d62000762565b604051620002ac919062000b27565b60405180910390f35b620002d36004803603810190620002cd91906200096e565b62000768565b005b620002f36004803603810190620002ed91906200096e565b620007a6565b005b620002ff620007e4565b6040516200030e919062000b27565b60405180910390f35b7f1ca0c217f27f2baf8e5590674de5601f45614fedab7588fd02152f30cd194a1133826040516200034a92919062000d50565b60405180910390a150565b60046020528060005260406000206000915054906101000a900473ffffffffffffffffffffffffffffffffffffffff1681565b6000600854421115620003d2576040517f08c379a0000000000000000000000000000000000000000000000000000000008152600401620003c99062000dfa565b60405180910390fd5b60003083604051620003e490620007ea565b620003f192919062000e41565b604051809103906000f0801580156200040e573d6000803e3d6000fd5b50905080600460003373ffffffffffffffffffffffffffffffffffffffff1673ffffffffffffffffffffffffffffffffffffffff16815260200190815260200160002060006101000a81548173ffffffffffffffffffffffffffffffffffffffff021916908373ffffffffffffffffffffffffffffffffffffffff1602179055506003339080600181540180825580915050600190039060005260206000200160009091909190916101000a81548173ffffffffffffffffffffffffffffffffffffffff021916908373ffffffffffffffffffffffffffffffffffffffff1602179055507f149002147a22ad17e58285a3afa294e37725d7089362947ae1be58962ce9b6d933846040516200052592919062000d50565b60405180910390a180915050919050565b60008054906101000a900473ffffffffffffffffffffffffffffffffffffffff1681565b60065481565b60085481565b60018054620005759062000ea4565b80601f0160208091040260200160405190810160405280929190818152602001828054620005a39062000ea4565b8015620005f45780601f10620005c857610100808354040283529160200191620005f4565b820191906000526020600020905b815481529060010190602001808311620005d657829003601f168201915b505050505081565b606060038054806020026020016040519081016040528092919081815260200182805480156200068257602002820191906000526020600020905b8160009054906101000a900473ffffffffffffffffffffffffffffffffffffffff1673ffffffffffffffffffffffffffffffffffffffff168152602001906001019080831162000637575b5050505050905090565b600381815481106200069d57600080fd5b906000526020600020016000915054906101000a900473ffffffffffffffffffffffffffffffffffffffff1681565b60028054620006db9062000ea4565b80601f0160208091040260200160405190810160405280929190818152602001828054620007099062000ea4565b80156200075a5780601f106200072e576101008083540402835291602001916200075a565b820191906000526020600020905b8154815290600101906020018083116200073c57829003601f168201915b505050505081565b60075481565b7ff1327726212c55a99631b02a7705072c2bddaa7907aec189538be1f3f4f903b233826040516200079b92919062000d50565b60405180910390a150565b7fb72add0baac0a81f5c8af36c38cf9684fb0b408f743ebe66e0c8037d420701ab3382604051620007d992919062000d50565b60405180910390a150565b60055481565b610caf8062000edb83390190565b6000604051905090565b600080fd5b600080fd5b600080fd5b600080fd5b6000601f19601f8301169050919050565b7f4e487b7100000000000000000000000000000000000000000000000000000000600052604160045260246000fd5b620008618262000816565b810181811067ffffffffffffffff8211171562000883576200088262000827565b5b80604052505050565b600062000898620007f8565b9050620008a6828262000856565b919050565b600067ffffffffffffffff821115620008c957620008c862000827565b5b620008d48262000816565b9050602081019050919050565b82818337600083830152505050565b6000620009076200090184620008ab565b6200088c565b90508281526020810184848401111562000926576200092562000811565b5b62000933848285620008e1565b509392505050565b600082601f8301126200095357620009526200080c565b5b813562000965848260208601620008f0565b91505092915050565b60006020828403121562000987576200098662000802565b5b600082013567ffffffffffffffff811115620009a857620009a762000807565b5b620009b6848285016200093b565b91505092915050565b600073ffffffffffffffffffffffffffffffffffffffff82169050919050565b6000620009ec82620009bf565b9050919050565b620009fe81620009df565b811462000a0a57600080fd5b50565b60008135905062000a1e81620009f3565b92915050565b60006020828403121562000a3d5762000a3c62000802565b5b600062000a4d8482850162000a0d565b91505092915050565b6000819050919050565b600062000a8162000a7b62000a7584620009bf565b62000a56565b620009bf565b9050919050565b600062000a958262000a60565b9050919050565b600062000aa98262000a88565b9050919050565b62000abb8162000a9c565b82525050565b600060208201905062000ad8600083018462000ab0565b92915050565b62000ae981620009df565b82525050565b600060208201905062000b06600083018462000ade565b92915050565b6000819050919050565b62000b218162000b0c565b82525050565b600060208201905062000b3e600083018462000b16565b92915050565b600081519050919050565b600082825260208201905092915050565b60005b8381101562000b8057808201518184015260208101905062000b63565b8381111562000b90576000848401525b50505050565b600062000ba38262000b44565b62000baf818562000b4f565b935062000bc181856020860162000b60565b62000bcc8162000816565b840191505092915050565b6000602082019050818103600083015262000bf3818462000b96565b905092915050565b600081519050919050565b600082825260208201905092915050565b6000819050602082019050919050565b62000c3281620009df565b82525050565b600062000c46838362000c27565b60208301905092915050565b6000602082019050919050565b600062000c6c8262000bfb565b62000c78818562000c06565b935062000c858362000c17565b8060005b8381101562000cbc57815162000ca0888262000c38565b975062000cad8362000c52565b92505060018101905062000c89565b5085935050505092915050565b6000602082019050818103600083015262000ce5818462000c5f565b905092915050565b62000cf88162000b0c565b811462000d0457600080fd5b50565b60008135905062000d188162000ced565b92915050565b60006020828403121562000d375762000d3662000802565b5b600062000d478482850162000d07565b91505092915050565b600060408201905062000d67600083018562000ade565b818103602083015262000d7b818462000b96565b90509392505050565b7f43616e2774206a6f696e2061756374696f6e3a20636f6d6d697420737461676560008201527f206973206f766572000000000000000000000000000000000000000000000000602082015250565b600062000de260288362000b4f565b915062000def8262000d84565b604082019050919050565b6000602082019050818103600083015262000e158162000dd3565b9050919050565b600062000e298262000a88565b9050919050565b62000e3b8162000e1c565b82525050565b600060408201905062000e58600083018562000e30565b818103602083015262000e6c818462000b96565b90509392505050565b7f4e487b7100000000000000000000000000000000000000000000000000000000600052602260045260246000fd5b6000600282049050600182168062000ebd57607f821691505b6020821081141562000ed45762000ed362000e75565b5b5091905056fe60806040523480156200001157600080fd5b5060405162000caf38038062000caf83398181016040528101906200003791906200044b565b620000576200004b620000b960201b60201c565b620000c160201b60201c565b81600160006101000a81548173ffffffffffffffffffffffffffffffffffffffff021916908373ffffffffffffffffffffffffffffffffffffffff1602179055508060029080519060200190620000b092919062000185565b50505062000516565b600033905090565b60008060009054906101000a900473ffffffffffffffffffffffffffffffffffffffff169050816000806101000a81548173ffffffffffffffffffffffffffffffffffffffff021916908373ffffffffffffffffffffffffffffffffffffffff1602179055508173ffffffffffffffffffffffffffffffffffffffff168173ffffffffffffffffffffffffffffffffffffffff167f8be0079c531659141344cd1fd0a4f28419497f9722a3daafe3b4186f6b6457e060405160405180910390a35050565b8280546200019390620004e0565b90600052602060002090601f016020900481019282620001b7576000855562000203565b82601f10620001d257805160ff191683800117855562000203565b8280016001018555821562000203579182015b8281111562000202578251825591602001919060010190620001e5565b5b50905062000212919062000216565b5090565b5b808211156200023157600081600090555060010162000217565b5090565b6000604051905090565b600080fd5b600080fd5b600073ffffffffffffffffffffffffffffffffffffffff82169050919050565b6000620002768262000249565b9050919050565b60006200028a8262000269565b9050919050565b6200029c816200027d565b8114620002a857600080fd5b50565b600081519050620002bc8162000291565b92915050565b600080fd5b600080fd5b6000601f19601f8301169050919050565b7f4e487b7100000000000000000000000000000000000000000000000000000000600052604160045260246000fd5b6200031782620002cc565b810181811067ffffffffffffffff82111715620003395762000338620002dd565b5b80604052505050565b60006200034e62000235565b90506200035c82826200030c565b919050565b600067ffffffffffffffff8211156200037f576200037e620002dd565b5b6200038a82620002cc565b9050602081019050919050565b60005b83811015620003b75780820151818401526020810190506200039a565b83811115620003c7576000848401525b50505050565b6000620003e4620003de8462000361565b62000342565b905082815260208101848484011115620004035762000402620002c7565b5b6200041084828562000397565b509392505050565b600082601f83011262000430576200042f620002c2565b5b815162000442848260208601620003cd565b91505092915050565b600080604083850312156200046557620004646200023f565b5b60006200047585828601620002ab565b925050602083015167ffffffffffffffff81111562000499576200049862000244565b5b620004a78582860162000418565b9150509250929050565b7f4e487b7100000000000000000000000000000000000000000000000000000000600052602260045260246000fd5b60006002820490506001821680620004f957607f821691505b6020821081141562000510576200050f620004b1565b5b50919050565b61078980620005266000396000f3fe608060405234801561001057600080fd5b50600436106100575760003560e01c80631303a4841461005c578063715018a61461007a5780638da5cb5b14610084578063f2fde38b146100a2578063fa6a6d36146100be575b600080fd5b6100646100dc565b604051610071919061049e565b60405180910390f35b61008261016a565b005b61008c6101f2565b6040516100999190610501565b60405180910390f35b6100bc60048036038101906100b7919061054d565b61021b565b005b6100c6610313565b6040516100d391906105d9565b60405180910390f35b600280546100e990610623565b80601f016020809104026020016040519081016040528092919081815260200182805461011590610623565b80156101625780601f1061013757610100808354040283529160200191610162565b820191906000526020600020905b81548152906001019060200180831161014557829003601f168201915b505050505081565b610172610339565b73ffffffffffffffffffffffffffffffffffffffff166101906101f2565b73ffffffffffffffffffffffffffffffffffffffff16146101e6576040517f08c379a00000000000000000000000000000000000000000000000000000000081526004016101dd906106a1565b60405180910390fd5b6101f06000610341565b565b60008060009054906101000a900473ffffffffffffffffffffffffffffffffffffffff16905090565b610223610339565b73ffffffffffffffffffffffffffffffffffffffff166102416101f2565b73ffffffffffffffffffffffffffffffffffffffff1614610297576040517f08c379a000000000000000000000000000000000000000000000000000000000815260040161028e906106a1565b60405180910390fd5b600073ffffffffffffffffffffffffffffffffffffffff168173ffffffffffffffffffffffffffffffffffffffff161415610307576040517f08c379a00000000000000000000000000000000000000000000000000000000081526004016102fe90610733565b60405180910390fd5b61031081610341565b50565b600160009054906101000a900473ffffffffffffffffffffffffffffffffffffffff1681565b600033905090565b60008060009054906101000a900473ffffffffffffffffffffffffffffffffffffffff169050816000806101000a81548173ffffffffffffffffffffffffffffffffffffffff021916908373ffffffffffffffffffffffffffffffffffffffff1602179055508173ffffffffffffffffffffffffffffffffffffffff168173ffffffffffffffffffffffffffffffffffffffff167f8be0079c531659141344cd1fd0a4f28419497f9722a3daafe3b4186f6b6457e060405160405180910390a35050565b600081519050919050565b600082825260208201905092915050565b60005b8381101561043f578082015181840152602081019050610424565b8381111561044e576000848401525b50505050565b6000601f19601f8301169050919050565b600061047082610405565b61047a8185610410565b935061048a818560208601610421565b61049381610454565b840191505092915050565b600060208201905081810360008301526104b88184610465565b905092915050565b600073ffffffffffffffffffffffffffffffffffffffff82169050919050565b60006104eb826104c0565b9050919050565b6104fb816104e0565b82525050565b600060208201905061051660008301846104f2565b92915050565b600080fd5b61052a816104e0565b811461053557600080fd5b50565b60008135905061054781610521565b92915050565b6000602082840312156105635761056261051c565b5b600061057184828501610538565b91505092915050565b6000819050919050565b600061059f61059a610595846104c0565b61057a565b6104c0565b9050919050565b60006105b182610584565b9050919050565b60006105c3826105a6565b9050919050565b6105d3816105b8565b82525050565b60006020820190506105ee60008301846105ca565b92915050565b7f4e487b7100000000000000000000000000000000000000000000000000000000600052602260045260246000fd5b6000600282049050600182168061063b57607f821691505b6020821081141561064f5761064e6105f4565b5b50919050565b7f4f776e61626c653a2063616c6c6572206973206e6f7420746865206f776e6572600082015250565b600061068b602083610410565b915061069682610655565b602082019050919050565b600060208201905081810360008301526106ba8161067e565b9050919050565b7f4f776e61626c653a206e6577206f776e657220697320746865207a65726f206160008201527f6464726573730000000000000000000000000000000000000000000000000000602082015250565b600061071d602683610410565b9150610728826106c1565b604082019050919050565b6000602082019050818103600083015261074c81610710565b905091905056fea2646970667358221220a018adceea044f5fe676e58844323029b3b081a87d0d0327dc4d6c239aa0756764736f6c634300080a0033a26469706673582212205c2bacda02df39c81fd37676e2b2a3bfbc62c2982ac4ae911e492d48c17f38c664736f6c634300080a0033a264697066735822122064fd1599326f2a4e7e8bf64336643787bcf12e3b995b6363c7be097e2b3424b164736f6c634300080a0033",
  "immutableReferences": {},
  "source": "// SPDX-License-Identifier: MIT\npragma solidity >=0.4.22 <0.9.0;\n\nimport \"@openzeppelin/contracts/access/Ownable.sol\";\n\ncontract Bidder is Ownable {\n    Auction public auctionAddr;\n    string public commitment; // JSON\n\n    constructor(\n        Auction _auctionAddr,\n        string memory _commitment\n    ) {\n        auctionAddr = _auctionAddr;\n        commitment = _commitment;\n    }\n}\n\ncontract Auction {\n    address public auctioneer;\n\n    // auction parameters\n    string public auctionName;\n    string public auctionDesc;\n    // uint8 public bitLen = 4;\n    address[] public bidders;\n    mapping(address => Bidder) public bidderContractMap;\n\n    // group parameters\n    uint256 public q;\n    uint256 public p;\n    uint256 public g;\n\n    event JoinAuctionEvent(address sender, string commitment);\n    event Round1Event(address sender, string r1);\n    event Round2Event(address sender, string r2);\n    event claimWinnerEvent(address sender, string prik);\n\n    uint256 public commitDeadline;\n\n    constructor(\n        string memory _auctionName,\n        string memory _auctionDesc,\n        address _auctioneer,\n        uint256 _relCommitDeadlineSec,\n        uint256 _q,\n        uint256 _p,\n        uint256 _g\n    ) {\n        auctionName = _auctionName;\n        auctionDesc = _auctionDesc;\n        auctioneer = _auctioneer;\n        commitDeadline = block.timestamp + _relCommitDeadlineSec;\n        q = _q;\n        p = _p;\n        g = _g;\n    }\n\n    function getBidders() public view returns (address[] memory) {\n        return bidders;\n    }\n\n    function joinAuction(string memory commitment) public returns (Bidder) {\n        require(\n            block.timestamp <= commitDeadline,\n            \"Can't join auction: commit stage is over\"\n        );\n        Bidder newBidder = new Bidder(this, commitment);\n        bidderContractMap[msg.sender] = newBidder;\n        bidders.push(msg.sender);\n\n        emit JoinAuctionEvent(msg.sender, commitment);\n\n        return newBidder;\n    }\n\n    function round1(string memory _r1) public {\n        emit Round1Event(msg.sender, _r1);\n    }\n\n    function round2(string memory _r2) public {\n        emit Round2Event(msg.sender, _r2);\n    }\n\n    function claimWinner(string memory _prik) public {\n        emit claimWinnerEvent(msg.sender, _prik);\n    }\n}\n\ncontract Main {\n    address public owner = msg.sender;\n    Auction[] public auctions;\n\n    function getAuctions() public view returns (Auction[] memory) {\n        return auctions;\n    }\n\n    function createAuction(\n        string memory _auctionName,\n        string memory _auctionDesc,\n        uint256 _relCommitDeadlineSec,\n        uint256 _q,\n        uint256 _p,\n        uint256 _g\n    ) public returns (Auction) {\n        require(bytes(_auctionName).length > 0);\n        // TODO: check group is valid (require efficient implementation of exponentiation)\n        // 1. p = q * r + 1\n        // 2. g = h^r mod p\n        // 3. g^q = 1 mod p\n\n        Auction newAuction = new Auction(\n            _auctionName,\n            _auctionDesc,\n            msg.sender,\n            _relCommitDeadlineSec,\n            _q,\n            _p,\n            _g\n        );\n        auctions.push(newAuction);\n\n        return newAuction;\n    }\n}\n",
  "sourcePath": "/Users/ykzheng/Projects/SEAL-Bid-Auction/smart-contract/contracts/Main.sol",
  "compiler": {
    "name": "solc",
    "version": "0.8.10+commit.fc410830.Emscripten.clang"
  },
  "schemaVersion": "3.4.4",
  "updatedAt": "2022-01-18T13:26:32.605Z",
  "networkType": "ethereum",
  "devdoc": {
    "kind": "dev",
    "methods": {},
    "version": 1
  },
  "userdoc": {
    "kind": "user",
    "methods": {},
    "version": 1
  }
}