{
  "contractName": "Main",
  "abi": [
    {
      "inputs": [
        {
          "internalType": "uint256",
          "name": "",
          "type": "uint256"
        }
      ],
      "name": "auctions",
      "outputs": [
        {
          "internalType": "contract Auction",
          "name": "",
          "type": "address"
        }
      ],
      "stateMutability": "view",
      "type": "function",
      "constant": true
    },
    {
      "inputs": [],
      "name": "owner",
      "outputs": [
        {
          "internalType": "address",
          "name": "",
          "type": "address"
        }
      ],
      "stateMutability": "view",
      "type": "function",
      "constant": true
    },
    {
      "inputs": [],
      "name": "getAuctions",
      "outputs": [
        {
          "internalType": "contract Auction[]",
          "name": "",
          "type": "address[]"
        }
      ],
      "stateMutability": "view",
      "type": "function",
      "constant": true
    },
    {
      "inputs": [
        {
          "internalType": "string",
          "name": "_auctionName",
          "type": "string"
        },
        {
          "internalType": "string",
          "name": "_auctionDesc",
          "type": "string"
        },
        {
          "internalType": "uint256",
          "name": "_relCommitDeadlineSec",
          "type": "uint256"
        },
        {
          "internalType": "uint256",
          "name": "_q",
          "type": "uint256"
        },
        {
          "internalType": "uint256",
          "name": "_p",
          "type": "uint256"
        },
        {
          "internalType": "uint256",
          "name": "_g",
          "type": "uint256"
        }
      ],
      "name": "createAuction",
      "outputs": [
        {
          "internalType": "contract Auction",
          "name": "",
          "type": "address"
        }
      ],
      "stateMutability": "nonpayable",
      "type": "function"
    }
  ],
  "bytecode": "0x6080604052336000806101000a81548173ffffffffffffffffffffffffffffffffffffffff021916908373ffffffffffffffffffffffffffffffffffffffff16021790555034801561005057600080fd5b50613083806100606000396000f3fe60806040523480156200001157600080fd5b5060043610620000525760003560e01c8063571a26a0146200005757806383575dd3146200008d5780638da5cb5b14620000c3578063d7c0691914620000e5575b600080fd5b6200007560048036038101906200006f919062000322565b62000107565b604051620000849190620003df565b60405180910390f35b620000ab6004803603810190620000a591906200055e565b62000147565b604051620000ba9190620003df565b60405180910390f35b620000cd62000211565b604051620000dc91906200065d565b60405180910390f35b620000ef62000235565b604051620000fe919062000748565b60405180910390f35b600181815481106200011857600080fd5b906000526020600020016000915054906101000a900473ffffffffffffffffffffffffffffffffffffffff1681565b6000808751116200015757600080fd5b6000878733888888886040516200016e90620002c5565b62000180979695949392919062000810565b604051809103906000f0801580156200019d573d6000803e3d6000fd5b5090506001819080600181540180825580915050600190039060005260206000200160009091909190916101000a81548173ffffffffffffffffffffffffffffffffffffffff021916908373ffffffffffffffffffffffffffffffffffffffff160217905550809150509695505050505050565b60008054906101000a900473ffffffffffffffffffffffffffffffffffffffff1681565b60606001805480602002602001604051908101604052809291908181526020018280548015620002bb57602002820191906000526020600020905b8160009054906101000a900473ffffffffffffffffffffffffffffffffffffffff1673ffffffffffffffffffffffffffffffffffffffff168152602001906001019080831162000270575b5050505050905090565b6127b2806200089c83390190565b6000604051905090565b600080fd5b600080fd5b6000819050919050565b620002fc81620002e7565b81146200030857600080fd5b50565b6000813590506200031c81620002f1565b92915050565b6000602082840312156200033b576200033a620002dd565b5b60006200034b848285016200030b565b91505092915050565b600073ffffffffffffffffffffffffffffffffffffffff82169050919050565b6000819050919050565b60006200039f62000399620003938462000354565b62000374565b62000354565b9050919050565b6000620003b3826200037e565b9050919050565b6000620003c782620003a6565b9050919050565b620003d981620003ba565b82525050565b6000602082019050620003f66000830184620003ce565b92915050565b600080fd5b600080fd5b6000601f19601f8301169050919050565b7f4e487b7100000000000000000000000000000000000000000000000000000000600052604160045260246000fd5b620004518262000406565b810181811067ffffffffffffffff8211171562000473576200047262000417565b5b80604052505050565b600062000488620002d3565b905062000496828262000446565b919050565b600067ffffffffffffffff821115620004b957620004b862000417565b5b620004c48262000406565b9050602081019050919050565b82818337600083830152505050565b6000620004f7620004f1846200049b565b6200047c565b90508281526020810184848401111562000516576200051562000401565b5b62000523848285620004d1565b509392505050565b600082601f830112620005435762000542620003fc565b5b813562000555848260208601620004e0565b91505092915050565b60008060008060008060c087890312156200057e576200057d620002dd565b5b600087013567ffffffffffffffff8111156200059f576200059e620002e2565b5b620005ad89828a016200052b565b965050602087013567ffffffffffffffff811115620005d157620005d0620002e2565b5b620005df89828a016200052b565b9550506040620005f289828a016200030b565b94505060606200060589828a016200030b565b93505060806200061889828a016200030b565b92505060a06200062b89828a016200030b565b9150509295509295509295565b6000620006458262000354565b9050919050565b620006578162000638565b82525050565b60006020820190506200067460008301846200064c565b92915050565b600081519050919050565b600082825260208201905092915050565b6000819050602082019050919050565b620006b181620003ba565b82525050565b6000620006c58383620006a6565b60208301905092915050565b6000602082019050919050565b6000620006eb826200067a565b620006f7818562000685565b9350620007048362000696565b8060005b838110156200073b5781516200071f8882620006b7565b97506200072c83620006d1565b92505060018101905062000708565b5085935050505092915050565b60006020820190508181036000830152620007648184620006de565b905092915050565b600081519050919050565b600082825260208201905092915050565b60005b83811015620007a85780820151818401526020810190506200078b565b83811115620007b8576000848401525b50505050565b6000620007cb826200076c565b620007d7818562000777565b9350620007e981856020860162000788565b620007f48162000406565b840191505092915050565b6200080a81620002e7565b82525050565b600060e08201905081810360008301526200082c818a620007be565b90508181036020830152620008428189620007be565b90506200085360408301886200064c565b620008626060830187620007ff565b620008716080830186620007ff565b6200088060a0830185620007ff565b6200088f60c0830184620007ff565b9897505050505050505056fe60806040523480156200001157600080fd5b50604051620027b2380380620027b28339818101604052810190620000379190620003cc565b86600190805190602001906200004f929190620000df565b50856002908051906020019062000068929190620000df565b50846000806101000a81548173ffffffffffffffffffffffffffffffffffffffff021916908373ffffffffffffffffffffffffffffffffffffffff1602179055508342620000b79190620004ec565b60088190555082600581905550816006819055508060078190555050505050505050620005ae565b828054620000ed9062000578565b90600052602060002090601f0160209004810192826200011157600085556200015d565b82601f106200012c57805160ff19168380011785556200015d565b828001600101855582156200015d579182015b828111156200015c5782518255916020019190600101906200013f565b5b5090506200016c919062000170565b5090565b5b808211156200018b57600081600090555060010162000171565b5090565b6000604051905090565b600080fd5b600080fd5b600080fd5b600080fd5b6000601f19601f8301169050919050565b7f4e487b7100000000000000000000000000000000000000000000000000000000600052604160045260246000fd5b620001f882620001ad565b810181811067ffffffffffffffff821117156200021a5762000219620001be565b5b80604052505050565b60006200022f6200018f565b90506200023d8282620001ed565b919050565b600067ffffffffffffffff82111562000260576200025f620001be565b5b6200026b82620001ad565b9050602081019050919050565b60005b83811015620002985780820151818401526020810190506200027b565b83811115620002a8576000848401525b50505050565b6000620002c5620002bf8462000242565b62000223565b905082815260208101848484011115620002e457620002e3620001a8565b5b620002f184828562000278565b509392505050565b600082601f830112620003115762000310620001a3565b5b815162000323848260208601620002ae565b91505092915050565b600073ffffffffffffffffffffffffffffffffffffffff82169050919050565b600062000359826200032c565b9050919050565b6200036b816200034c565b81146200037757600080fd5b50565b6000815190506200038b8162000360565b92915050565b6000819050919050565b620003a68162000391565b8114620003b257600080fd5b50565b600081519050620003c6816200039b565b92915050565b600080600080600080600060e0888a031215620003ee57620003ed62000199565b5b600088015167ffffffffffffffff8111156200040f576200040e6200019e565b5b6200041d8a828b01620002f9565b975050602088015167ffffffffffffffff8111156200044157620004406200019e565b5b6200044f8a828b01620002f9565b9650506040620004628a828b016200037a565b9550506060620004758a828b01620003b5565b9450506080620004888a828b01620003b5565b93505060a06200049b8a828b01620003b5565b92505060c0620004ae8a828b01620003b5565b91505092959891949750929550565b7f4e487b7100000000000000000000000000000000000000000000000000000000600052601160045260246000fd5b6000620004f98262000391565b9150620005068362000391565b9250827fffffffffffffffffffffffffffffffffffffffffffffffffffffffffffffffff038211156200053e576200053d620004bd565b5b828201905092915050565b7f4e487b7100000000000000000000000000000000000000000000000000000000600052602260045260246000fd5b600060028204905060018216806200059157607f821691505b60208210811415620005a857620005a762000549565b5b50919050565b6121f480620005be6000396000f3fe60806040523480156200001157600080fd5b5060043610620001005760003560e01c8063cb6632ef1162000099578063e2179b8e116200006f578063e2179b8e1462000293578063e4cba85914620002b5578063f25910d214620002d5578063fd3ab28214620002f55762000100565b8063cb6632ef1462000219578063cff29dfd146200023b578063d669df3514620002715762000100565b80635ec2c7bf11620000db5780635ec2c7bf14620001915780639ae8886a14620001b3578063a2ff020914620001d5578063c63d99db14620001f75762000100565b80630d907c2d14620001055780632d73a56c14620001255780632daccf4c146200015b575b600080fd5b6200012360048036038101906200011d91906200096e565b62000317565b005b6200014360048036038101906200013d919062000a24565b62000355565b60405162000152919062000ac1565b60405180910390f35b6200017960048036038101906200017391906200096e565b62000388565b60405162000188919062000ac1565b60405180910390f35b6200019b62000536565b604051620001aa919062000aef565b60405180910390f35b620001bd6200055a565b604051620001cc919062000b27565b60405180910390f35b620001df62000560565b604051620001ee919062000b27565b60405180910390f35b6200020162000566565b60405162000210919062000bd7565b60405180910390f35b62000223620005fc565b60405162000232919062000cc9565b60405180910390f35b62000259600480360381019062000253919062000d1e565b6200068c565b60405162000268919062000aef565b60405180910390f35b6200027b620006cc565b6040516200028a919062000bd7565b60405180910390f35b6200029d62000762565b604051620002ac919062000b27565b60405180910390f35b620002d36004803603810190620002cd91906200096e565b62000768565b005b620002f36004803603810190620002ed91906200096e565b620007a6565b005b620002ff620007e4565b6040516200030e919062000b27565b60405180910390f35b7f1ca0c217f27f2baf8e5590674de5601f45614fedab7588fd02152f30cd194a1133826040516200034a92919062000d50565b60405180910390a150565b60046020528060005260406000206000915054906101000a900473ffffffffffffffffffffffffffffffffffffffff1681565b6000600854421115620003d2576040517f08c379a0000000000000000000000000000000000000000000000000000000008152600401620003c99062000dfa565b60405180910390fd5b60003083604051620003e490620007ea565b620003f192919062000e41565b604051809103906000f0801580156200040e573d6000803e3d6000fd5b50905080600460003373ffffffffffffffffffffffffffffffffffffffff1673ffffffffffffffffffffffffffffffffffffffff16815260200190815260200160002060006101000a81548173ffffffffffffffffffffffffffffffffffffffff021916908373ffffffffffffffffffffffffffffffffffffffff1602179055506003339080600181540180825580915050600190039060005260206000200160009091909190916101000a81548173ffffffffffffffffffffffffffffffffffffffff021916908373ffffffffffffffffffffffffffffffffffffffff1602179055507f149002147a22ad17e58285a3afa294e37725d7089362947ae1be58962ce9b6d933846040516200052592919062000d50565b60405180910390a180915050919050565b60008054906101000a900473ffffffffffffffffffffffffffffffffffffffff1681565b60065481565b60085481565b60018054620005759062000ea4565b80601f0160208091040260200160405190810160405280929190818152602001828054620005a39062000ea4565b8015620005f45780601f10620005c857610100808354040283529160200191620005f4565b820191906000526020600020905b815481529060010190602001808311620005d657829003601f168201915b505050505081565b606060038054806020026020016040519081016040528092919081815260200182805480156200068257602002820191906000526020600020905b8160009054906101000a900473ffffffffffffffffffffffffffffffffffffffff1673ffffffffffffffffffffffffffffffffffffffff168152602001906001019080831162000637575b5050505050905090565b600381815481106200069d57600080fd5b906000526020600020016000915054906101000a900473ffffffffffffffffffffffffffffffffffffffff1681565b60028054620006db9062000ea4565b80601f0160208091040260200160405190810160405280929190818152602001828054620007099062000ea4565b80156200075a5780601f106200072e576101008083540402835291602001916200075a565b820191906000526020600020905b8154815290600101906020018083116200073c57829003601f168201915b505050505081565b60075481565b7ff1327726212c55a99631b02a7705072c2bddaa7907aec189538be1f3f4f903b233826040516200079b92919062000d50565b60405180910390a150565b7fb72add0baac0a81f5c8af36c38cf9684fb0b408f743ebe66e0c8037d420701ab3382604051620007d992919062000d50565b60405180910390a150565b60055481565b6112e48062000edb83390190565b6000604051905090565b600080fd5b600080fd5b600080fd5b600080fd5b6000601f19601f8301169050919050565b7f4e487b7100000000000000000000000000000000000000000000000000000000600052604160045260246000fd5b620008618262000816565b810181811067ffffffffffffffff8211171562000883576200088262000827565b5b80604052505050565b600062000898620007f8565b9050620008a6828262000856565b919050565b600067ffffffffffffffff821115620008c957620008c862000827565b5b620008d48262000816565b9050602081019050919050565b82818337600083830152505050565b6000620009076200090184620008ab565b6200088c565b90508281526020810184848401111562000926576200092562000811565b5b62000933848285620008e1565b509392505050565b600082601f8301126200095357620009526200080c565b5b813562000965848260208601620008f0565b91505092915050565b60006020828403121562000987576200098662000802565b5b600082013567ffffffffffffffff811115620009a857620009a762000807565b5b620009b6848285016200093b565b91505092915050565b600073ffffffffffffffffffffffffffffffffffffffff82169050919050565b6000620009ec82620009bf565b9050919050565b620009fe81620009df565b811462000a0a57600080fd5b50565b60008135905062000a1e81620009f3565b92915050565b60006020828403121562000a3d5762000a3c62000802565b5b600062000a4d8482850162000a0d565b91505092915050565b6000819050919050565b600062000a8162000a7b62000a7584620009bf565b62000a56565b620009bf565b9050919050565b600062000a958262000a60565b9050919050565b600062000aa98262000a88565b9050919050565b62000abb8162000a9c565b82525050565b600060208201905062000ad8600083018462000ab0565b92915050565b62000ae981620009df565b82525050565b600060208201905062000b06600083018462000ade565b92915050565b6000819050919050565b62000b218162000b0c565b82525050565b600060208201905062000b3e600083018462000b16565b92915050565b600081519050919050565b600082825260208201905092915050565b60005b8381101562000b8057808201518184015260208101905062000b63565b8381111562000b90576000848401525b50505050565b600062000ba38262000b44565b62000baf818562000b4f565b935062000bc181856020860162000b60565b62000bcc8162000816565b840191505092915050565b6000602082019050818103600083015262000bf3818462000b96565b905092915050565b600081519050919050565b600082825260208201905092915050565b6000819050602082019050919050565b62000c3281620009df565b82525050565b600062000c46838362000c27565b60208301905092915050565b6000602082019050919050565b600062000c6c8262000bfb565b62000c78818562000c06565b935062000c858362000c17565b8060005b8381101562000cbc57815162000ca0888262000c38565b975062000cad8362000c52565b92505060018101905062000c89565b5085935050505092915050565b6000602082019050818103600083015262000ce5818462000c5f565b905092915050565b62000cf88162000b0c565b811462000d0457600080fd5b50565b60008135905062000d188162000ced565b92915050565b60006020828403121562000d375762000d3662000802565b5b600062000d478482850162000d07565b91505092915050565b600060408201905062000d67600083018562000ade565b818103602083015262000d7b818462000b96565b90509392505050565b7f43616e2774206a6f696e2061756374696f6e3a20636f6d6d697420737461676560008201527f206973206f766572000000000000000000000000000000000000000000000000602082015250565b600062000de260288362000b4f565b915062000def8262000d84565b604082019050919050565b6000602082019050818103600083015262000e158162000dd3565b9050919050565b600062000e298262000a88565b9050919050565b62000e3b8162000e1c565b82525050565b600060408201905062000e58600083018562000e30565b818103602083015262000e6c818462000b96565b90509392505050565b7f4e487b7100000000000000000000000000000000000000000000000000000000600052602260045260246000fd5b6000600282049050600182168062000ebd57607f821691505b6020821081141562000ed45762000ed362000e75565b5b5091905056fe60806040523480156200001157600080fd5b50604051620012e4380380620012e483398181016040528101906200003791906200044b565b620000576200004b620000b960201b60201c565b620000c160201b60201c565b81600160006101000a81548173ffffffffffffffffffffffffffffffffffffffff021916908373ffffffffffffffffffffffffffffffffffffffff1602179055508060029080519060200190620000b092919062000185565b50505062000516565b600033905090565b60008060009054906101000a900473ffffffffffffffffffffffffffffffffffffffff169050816000806101000a81548173ffffffffffffffffffffffffffffffffffffffff021916908373ffffffffffffffffffffffffffffffffffffffff1602179055508173ffffffffffffffffffffffffffffffffffffffff168173ffffffffffffffffffffffffffffffffffffffff167f8be0079c531659141344cd1fd0a4f28419497f9722a3daafe3b4186f6b6457e060405160405180910390a35050565b8280546200019390620004e0565b90600052602060002090601f016020900481019282620001b7576000855562000203565b82601f10620001d257805160ff191683800117855562000203565b8280016001018555821562000203579182015b8281111562000202578251825591602001919060010190620001e5565b5b50905062000212919062000216565b5090565b5b808211156200023157600081600090555060010162000217565b5090565b6000604051905090565b600080fd5b600080fd5b600073ffffffffffffffffffffffffffffffffffffffff82169050919050565b6000620002768262000249565b9050919050565b60006200028a8262000269565b9050919050565b6200029c816200027d565b8114620002a857600080fd5b50565b600081519050620002bc8162000291565b92915050565b600080fd5b600080fd5b6000601f19601f8301169050919050565b7f4e487b7100000000000000000000000000000000000000000000000000000000600052604160045260246000fd5b6200031782620002cc565b810181811067ffffffffffffffff82111715620003395762000338620002dd565b5b80604052505050565b60006200034e62000235565b90506200035c82826200030c565b919050565b600067ffffffffffffffff8211156200037f576200037e620002dd565b5b6200038a82620002cc565b9050602081019050919050565b60005b83811015620003b75780820151818401526020810190506200039a565b83811115620003c7576000848401525b50505050565b6000620003e4620003de8462000361565b62000342565b905082815260208101848484011115620004035762000402620002c7565b5b6200041084828562000397565b509392505050565b600082601f83011262000430576200042f620002c2565b5b815162000442848260208601620003cd565b91505092915050565b600080604083850312156200046557620004646200023f565b5b60006200047585828601620002ab565b925050602083015167ffffffffffffffff81111562000499576200049862000244565b5b620004a78582860162000418565b9150509250929050565b7f4e487b7100000000000000000000000000000000000000000000000000000000600052602260045260246000fd5b60006002820490506001821680620004f957607f821691505b6020821081141562000510576200050f620004b1565b5b50919050565b610dbe80620005266000396000f3fe608060405234801561001057600080fd5b50600436106100935760003560e01c80638da5cb5b116100665780638da5cb5b14610120578063e4cba8591461013e578063f25910d21461015a578063f2fde38b14610176578063fa6a6d361461019257610093565b806305e27c22146100985780631303a484146100c85780632f948768146100e6578063715018a614610116575b600080fd5b6100b260048036038101906100ad9190610894565b6101b0565b6040516100bf919061095a565b60405180910390f35b6100d061025c565b6040516100dd919061095a565b60405180910390f35b61010060048036038101906100fb9190610894565b6102ea565b60405161010d919061095a565b60405180910390f35b61011e610396565b005b61012861041e565b60405161013591906109bd565b60405180910390f35b61015860048036038101906101539190610b0d565b610447565b005b610174600480360381019061016f9190610b0d565b610502565b005b610190600480360381019061018b9190610b82565b6105bd565b005b61019a6106b5565b6040516101a79190610c0e565b60405180910390f35b600481815481106101c057600080fd5b9060005260206000200160009150905080546101db90610c58565b80601f016020809104026020016040519081016040528092919081815260200182805461020790610c58565b80156102545780601f1061022957610100808354040283529160200191610254565b820191906000526020600020905b81548152906001019060200180831161023757829003601f168201915b505050505081565b6002805461026990610c58565b80601f016020809104026020016040519081016040528092919081815260200182805461029590610c58565b80156102e25780601f106102b7576101008083540402835291602001916102e2565b820191906000526020600020905b8154815290600101906020018083116102c557829003601f168201915b505050505081565b600381815481106102fa57600080fd5b90600052602060002001600091509050805461031590610c58565b80601f016020809104026020016040519081016040528092919081815260200182805461034190610c58565b801561038e5780601f106103635761010080835404028352916020019161038e565b820191906000526020600020905b81548152906001019060200180831161037157829003601f168201915b505050505081565b61039e6106db565b73ffffffffffffffffffffffffffffffffffffffff166103bc61041e565b73ffffffffffffffffffffffffffffffffffffffff1614610412576040517f08c379a000000000000000000000000000000000000000000000000000000000815260040161040990610cd6565b60405180910390fd5b61041c60006106e3565b565b60008060009054906101000a900473ffffffffffffffffffffffffffffffffffffffff16905090565b61044f6106db565b73ffffffffffffffffffffffffffffffffffffffff1661046d61041e565b73ffffffffffffffffffffffffffffffffffffffff16146104c3576040517f08c379a00000000000000000000000000000000000000000000000000000000081526004016104ba90610cd6565b60405180910390fd5b6004819080600181540180825580915050600190039060005260206000200160009091909190915090805190602001906104fe9291906107a7565b5050565b61050a6106db565b73ffffffffffffffffffffffffffffffffffffffff1661052861041e565b73ffffffffffffffffffffffffffffffffffffffff161461057e576040517f08c379a000000000000000000000000000000000000000000000000000000000815260040161057590610cd6565b60405180910390fd5b6003819080600181540180825580915050600190039060005260206000200160009091909190915090805190602001906105b99291906107a7565b5050565b6105c56106db565b73ffffffffffffffffffffffffffffffffffffffff166105e361041e565b73ffffffffffffffffffffffffffffffffffffffff1614610639576040517f08c379a000000000000000000000000000000000000000000000000000000000815260040161063090610cd6565b60405180910390fd5b600073ffffffffffffffffffffffffffffffffffffffff168173ffffffffffffffffffffffffffffffffffffffff1614156106a9576040517f08c379a00000000000000000000000000000000000000000000000000000000081526004016106a090610d68565b60405180910390fd5b6106b2816106e3565b50565b600160009054906101000a900473ffffffffffffffffffffffffffffffffffffffff1681565b600033905090565b60008060009054906101000a900473ffffffffffffffffffffffffffffffffffffffff169050816000806101000a81548173ffffffffffffffffffffffffffffffffffffffff021916908373ffffffffffffffffffffffffffffffffffffffff1602179055508173ffffffffffffffffffffffffffffffffffffffff168173ffffffffffffffffffffffffffffffffffffffff167f8be0079c531659141344cd1fd0a4f28419497f9722a3daafe3b4186f6b6457e060405160405180910390a35050565b8280546107b390610c58565b90600052602060002090601f0160209004810192826107d5576000855561081c565b82601f106107ee57805160ff191683800117855561081c565b8280016001018555821561081c579182015b8281111561081b578251825591602001919060010190610800565b5b509050610829919061082d565b5090565b5b8082111561084657600081600090555060010161082e565b5090565b6000604051905090565b600080fd5b600080fd5b6000819050919050565b6108718161085e565b811461087c57600080fd5b50565b60008135905061088e81610868565b92915050565b6000602082840312156108aa576108a9610854565b5b60006108b88482850161087f565b91505092915050565b600081519050919050565b600082825260208201905092915050565b60005b838110156108fb5780820151818401526020810190506108e0565b8381111561090a576000848401525b50505050565b6000601f19601f8301169050919050565b600061092c826108c1565b61093681856108cc565b93506109468185602086016108dd565b61094f81610910565b840191505092915050565b600060208201905081810360008301526109748184610921565b905092915050565b600073ffffffffffffffffffffffffffffffffffffffff82169050919050565b60006109a78261097c565b9050919050565b6109b78161099c565b82525050565b60006020820190506109d260008301846109ae565b92915050565b600080fd5b600080fd5b7f4e487b7100000000000000000000000000000000000000000000000000000000600052604160045260246000fd5b610a1a82610910565b810181811067ffffffffffffffff82111715610a3957610a386109e2565b5b80604052505050565b6000610a4c61084a565b9050610a588282610a11565b919050565b600067ffffffffffffffff821115610a7857610a776109e2565b5b610a8182610910565b9050602081019050919050565b82818337600083830152505050565b6000610ab0610aab84610a5d565b610a42565b905082815260208101848484011115610acc57610acb6109dd565b5b610ad7848285610a8e565b509392505050565b600082601f830112610af457610af36109d8565b5b8135610b04848260208601610a9d565b91505092915050565b600060208284031215610b2357610b22610854565b5b600082013567ffffffffffffffff811115610b4157610b40610859565b5b610b4d84828501610adf565b91505092915050565b610b5f8161099c565b8114610b6a57600080fd5b50565b600081359050610b7c81610b56565b92915050565b600060208284031215610b9857610b97610854565b5b6000610ba684828501610b6d565b91505092915050565b6000819050919050565b6000610bd4610bcf610bca8461097c565b610baf565b61097c565b9050919050565b6000610be682610bb9565b9050919050565b6000610bf882610bdb565b9050919050565b610c0881610bed565b82525050565b6000602082019050610c236000830184610bff565b92915050565b7f4e487b7100000000000000000000000000000000000000000000000000000000600052602260045260246000fd5b60006002820490506001821680610c7057607f821691505b60208210811415610c8457610c83610c29565b5b50919050565b7f4f776e61626c653a2063616c6c6572206973206e6f7420746865206f776e6572600082015250565b6000610cc06020836108cc565b9150610ccb82610c8a565b602082019050919050565b60006020820190508181036000830152610cef81610cb3565b9050919050565b7f4f776e61626c653a206e6577206f776e657220697320746865207a65726f206160008201527f6464726573730000000000000000000000000000000000000000000000000000602082015250565b6000610d526026836108cc565b9150610d5d82610cf6565b604082019050919050565b60006020820190508181036000830152610d8181610d45565b905091905056fea2646970667358221220d32065e1f717ea4cfd1e83c67c4b25bf770c1cbf12e5f41f745067634852d42764736f6c634300080a0033a2646970667358221220bfdd0f7cc7c04f45417948cb12306bebec8057a804eb1bdb16bfd0671fc9c7d264736f6c634300080a0033a264697066735822122083213fa1bd1ad14e5b608fa3ac5f0afd2700b1e1a4ed01c3ebdbd7482543331764736f6c634300080a0033",
  "immutableReferences": {},
  "source": "// SPDX-License-Identifier: MIT\npragma solidity >=0.4.22 <0.9.0;\n\nimport \"@openzeppelin/contracts/access/Ownable.sol\";\n\n// Improve: Use Event&Log to store Bidder information\ncontract Bidder is Ownable {\n    Auction public auctionAddr;\n    string public commitment; // JSON\n    string[] public r1; // JSON (start from MSB)\n    string[] public r2; // JSON (start from MSB)\n\n    // uint256[] public gx; // round 1 (start from MSB)\n    // uint256[] public gr; // round 1 (start from MSB)\n    // uint256[] public b; // round 2 (start from MSB)\n\n    constructor(\n        Auction _auctionAddr,\n        string memory _commitment\n    ) {\n        auctionAddr = _auctionAddr;\n        commitment = _commitment;\n    }\n\n    function round1(string memory _r1) public onlyOwner {\n        r1.push(_r1);\n        // TODO: check already submit case\n        // gx.push(_gx);\n        // gr.push(_gr);\n    }\n\n    function round2(string memory _r2) public onlyOwner {\n        r2.push(_r2);\n        // TODO: check already submit case\n        // b.push(_b);\n    }\n}\n\ncontract Auction {\n    address public auctioneer;\n\n    // auction parameters\n    string public auctionName;\n    string public auctionDesc;\n    // uint8 public bitLen = 4;\n    address[] public bidders;\n    mapping(address => Bidder) public bidderContractMap;\n\n    // group parameters\n    uint256 public q;\n    uint256 public p;\n    uint256 public g;\n\n    // state maintain parameters\n    // bool public mpcStartFlag = false;\n    // uint8 public curBit = bitLen - 1;\n    // uint8 public curRound = 1;\n    // mapping(uint8 => mapping(uint8 => address[])) public roundBidders;\n\n    event JoinAuctionEvent(address sender, string commitment);\n    event Round1Event(address sender, string r1);\n    event Round2Event(address sender, string r2);\n    event claimWinnerEvent(address sender, string prik);\n    // event RoundEndNotification(uint8 curBit, uint8 curRound);\n\n    uint256 public commitDeadline;\n\n    constructor(\n        string memory _auctionName,\n        string memory _auctionDesc,\n        address _auctioneer,\n        uint256 _relCommitDeadlineSec,\n        uint256 _q,\n        uint256 _p,\n        uint256 _g\n    ) {\n        auctionName = _auctionName;\n        auctionDesc = _auctionDesc;\n        auctioneer = _auctioneer;\n        commitDeadline = block.timestamp + _relCommitDeadlineSec;\n        q = _q;\n        p = _p;\n        g = _g;\n    }\n\n    // modifier mpcStart() {\n    //     require(\n    //         mpcStartFlag == true ||\n    //             (mpcStartFlag == false && block.timestamp > commitDeadline)\n    //     );\n\n    //     // start auction\n    //     if (mpcStartFlag == false && block.timestamp > commitDeadline) {\n    //         mpcStartFlag = true;\n    //     }\n    //     _;\n    // }\n\n    // modifier updateState() {\n    //     _;\n    //     roundBidders[curBit][curRound].push(msg.sender);\n    //     // move to next round\n    //     if (roundEnd()) {\n    //         if (curRound == 1) {\n    //             curRound = 2;\n    //         } else if (curRound == 2) {\n    //             curBit--;\n    //             curRound = 1;\n    //         }\n    //         // emit RoundEndNotification(curBit, curRound);\n    //     }\n    // }\n\n    function getBidders() public view returns (address[] memory) {\n        return bidders;\n    }\n\n    // function roundEnd() public view returns (bool) {\n    //     return roundBidders[curBit][curRound].length == bidders.length;\n    // }\n\n    function joinAuction(string memory commitment) public returns (Bidder) {\n        require(\n            block.timestamp <= commitDeadline,\n            \"Can't join auction: commit stage is over\"\n        );\n        Bidder newBidder = new Bidder(this, commitment);\n        bidderContractMap[msg.sender] = newBidder;\n        bidders.push(msg.sender);\n\n        emit JoinAuctionEvent(msg.sender, commitment);\n\n        return newBidder;\n    }\n\n    function round1(string memory _r1) public {\n        // require(curRound == 1, \"Not round 1\");\n        // bidderContractMap[msg.sender].round1(_r1);\n        emit Round1Event(msg.sender, _r1);\n    }\n\n    function round2(string memory _r2) public {\n        // require(curRound == 2, \"Not round 2\");\n        // bidderContractMap[msg.sender].round2(_r2);\n        emit Round2Event(msg.sender, _r2);\n    }\n\n    function claimWinner(string memory _prik) public {\n        emit claimWinnerEvent(msg.sender, _prik);\n    }\n}\n\ncontract Main {\n    address public owner = msg.sender;\n    Auction[] public auctions;\n\n    function getAuctions() public view returns (Auction[] memory) {\n        return auctions;\n    }\n\n    function createAuction(\n        string memory _auctionName,\n        string memory _auctionDesc,\n        uint256 _relCommitDeadlineSec,\n        uint256 _q,\n        uint256 _p,\n        uint256 _g\n    ) public returns (Auction) {\n        require(bytes(_auctionName).length > 0);\n        // TODO: check group is valid (require efficient implementation of exponentiation)\n        // 1. p = q * r + 1\n        // 2. g = h^r mod p\n        // 3. g^q = 1 mod p\n\n        Auction newAuction = new Auction(\n            _auctionName,\n            _auctionDesc,\n            msg.sender,\n            _relCommitDeadlineSec,\n            _q,\n            _p,\n            _g\n        );\n        auctions.push(newAuction);\n\n        return newAuction;\n    }\n}\n",
  "sourcePath": "/Users/ykzheng/Projects/SEAL-Bid-Auction/smart-contract/contracts/Main.sol",
  "compiler": {
    "name": "solc",
    "version": "0.8.10+commit.fc410830.Emscripten.clang"
  },
  "schemaVersion": "3.4.4",
  "updatedAt": "2022-01-12T18:48:10.390Z",
  "networkType": "ethereum",
  "devdoc": {
    "kind": "dev",
    "methods": {},
    "version": 1
  },
  "userdoc": {
    "kind": "user",
    "methods": {},
    "version": 1
  }
}