{
  "contractName": "Auction",
  "abi": [
    {
      "inputs": [
        {
          "internalType": "string",
          "name": "_auctionName",
          "type": "string"
        },
        {
          "internalType": "string",
          "name": "_auctionDesc",
          "type": "string"
        },
        {
          "internalType": "address",
          "name": "_auctioneer",
          "type": "address"
        },
        {
          "internalType": "uint256",
          "name": "_relCommitDeadlineSec",
          "type": "uint256"
        },
        {
          "internalType": "uint256",
          "name": "_q",
          "type": "uint256"
        },
        {
          "internalType": "uint256",
          "name": "_p",
          "type": "uint256"
        },
        {
          "internalType": "uint256",
          "name": "_g",
          "type": "uint256"
        }
      ],
      "stateMutability": "nonpayable",
      "type": "constructor"
    },
    {
      "anonymous": false,
      "inputs": [
        {
          "indexed": false,
          "internalType": "address",
          "name": "sender",
          "type": "address"
        },
        {
          "indexed": false,
          "internalType": "uint256",
          "name": "gx",
          "type": "uint256"
        },
        {
          "indexed": false,
          "internalType": "uint256",
          "name": "gr",
          "type": "uint256"
        }
      ],
      "name": "Round1Notification",
      "type": "event"
    },
    {
      "anonymous": false,
      "inputs": [
        {
          "indexed": false,
          "internalType": "address",
          "name": "sender",
          "type": "address"
        },
        {
          "indexed": false,
          "internalType": "uint256",
          "name": "b",
          "type": "uint256"
        }
      ],
      "name": "Round2Notification",
      "type": "event"
    },
    {
      "anonymous": false,
      "inputs": [
        {
          "indexed": false,
          "internalType": "uint8",
          "name": "curBit",
          "type": "uint8"
        },
        {
          "indexed": false,
          "internalType": "uint8",
          "name": "curRound",
          "type": "uint8"
        }
      ],
      "name": "RoundEndNotification",
      "type": "event"
    },
    {
      "inputs": [],
      "name": "auctionDesc",
      "outputs": [
        {
          "internalType": "string",
          "name": "",
          "type": "string"
        }
      ],
      "stateMutability": "view",
      "type": "function"
    },
    {
      "inputs": [],
      "name": "auctionName",
      "outputs": [
        {
          "internalType": "string",
          "name": "",
          "type": "string"
        }
      ],
      "stateMutability": "view",
      "type": "function"
    },
    {
      "inputs": [],
      "name": "auctioneer",
      "outputs": [
        {
          "internalType": "address",
          "name": "",
          "type": "address"
        }
      ],
      "stateMutability": "view",
      "type": "function"
    },
    {
      "inputs": [
        {
          "internalType": "address",
          "name": "",
          "type": "address"
        }
      ],
      "name": "bidderContractMap",
      "outputs": [
        {
          "internalType": "contract Bidder",
          "name": "",
          "type": "address"
        }
      ],
      "stateMutability": "view",
      "type": "function"
    },
    {
      "inputs": [
        {
          "internalType": "uint256",
          "name": "",
          "type": "uint256"
        }
      ],
      "name": "bidders",
      "outputs": [
        {
          "internalType": "address",
          "name": "",
          "type": "address"
        }
      ],
      "stateMutability": "view",
      "type": "function"
    },
    {
      "inputs": [],
      "name": "bitLen",
      "outputs": [
        {
          "internalType": "uint8",
          "name": "",
          "type": "uint8"
        }
      ],
      "stateMutability": "view",
      "type": "function"
    },
    {
      "inputs": [],
      "name": "commitDeadline",
      "outputs": [
        {
          "internalType": "uint256",
          "name": "",
          "type": "uint256"
        }
      ],
      "stateMutability": "view",
      "type": "function"
    },
    {
      "inputs": [],
      "name": "curBit",
      "outputs": [
        {
          "internalType": "uint8",
          "name": "",
          "type": "uint8"
        }
      ],
      "stateMutability": "view",
      "type": "function"
    },
    {
      "inputs": [],
      "name": "curRound",
      "outputs": [
        {
          "internalType": "uint8",
          "name": "",
          "type": "uint8"
        }
      ],
      "stateMutability": "view",
      "type": "function"
    },
    {
      "inputs": [],
      "name": "g",
      "outputs": [
        {
          "internalType": "uint256",
          "name": "",
          "type": "uint256"
        }
      ],
      "stateMutability": "view",
      "type": "function"
    },
    {
      "inputs": [],
      "name": "mpcStartFlag",
      "outputs": [
        {
          "internalType": "bool",
          "name": "",
          "type": "bool"
        }
      ],
      "stateMutability": "view",
      "type": "function"
    },
    {
      "inputs": [],
      "name": "p",
      "outputs": [
        {
          "internalType": "uint256",
          "name": "",
          "type": "uint256"
        }
      ],
      "stateMutability": "view",
      "type": "function"
    },
    {
      "inputs": [],
      "name": "q",
      "outputs": [
        {
          "internalType": "uint256",
          "name": "",
          "type": "uint256"
        }
      ],
      "stateMutability": "view",
      "type": "function"
    },
    {
      "inputs": [
        {
          "internalType": "uint8",
          "name": "",
          "type": "uint8"
        },
        {
          "internalType": "uint8",
          "name": "",
          "type": "uint8"
        },
        {
          "internalType": "uint256",
          "name": "",
          "type": "uint256"
        }
      ],
      "name": "roundBidders",
      "outputs": [
        {
          "internalType": "address",
          "name": "",
          "type": "address"
        }
      ],
      "stateMutability": "view",
      "type": "function"
    },
    {
      "inputs": [],
      "name": "getBidders",
      "outputs": [
        {
          "internalType": "address[]",
          "name": "",
          "type": "address[]"
        }
      ],
      "stateMutability": "view",
      "type": "function"
    },
    {
      "inputs": [],
      "name": "roundEnd",
      "outputs": [
        {
          "internalType": "bool",
          "name": "",
          "type": "bool"
        }
      ],
      "stateMutability": "view",
      "type": "function"
    },
    {
      "inputs": [
        {
          "internalType": "uint256[]",
          "name": "_ga",
          "type": "uint256[]"
        },
        {
          "internalType": "uint256[]",
          "name": "_gb",
          "type": "uint256[]"
        },
        {
          "internalType": "uint256[]",
          "name": "_gp",
          "type": "uint256[]"
        }
      ],
      "name": "joinAuction",
      "outputs": [
        {
          "internalType": "contract Bidder",
          "name": "",
          "type": "address"
        }
      ],
      "stateMutability": "nonpayable",
      "type": "function"
    },
    {
      "inputs": [
        {
          "internalType": "uint256",
          "name": "_gx",
          "type": "uint256"
        },
        {
          "internalType": "uint256",
          "name": "_gr",
          "type": "uint256"
        }
      ],
      "name": "round1",
      "outputs": [],
      "stateMutability": "nonpayable",
      "type": "function"
    },
    {
      "inputs": [
        {
          "internalType": "uint256",
          "name": "_b",
          "type": "uint256"
        }
      ],
      "name": "round2",
      "outputs": [],
      "stateMutability": "nonpayable",
      "type": "function"
    }
  ],
  "bytecode": "0x60806040526004600360006101000a81548160ff021916908360ff1602179055506000600960006101000a81548160ff0219169083151502179055506001600360009054906101000a900460ff1662000059919062000256565b600960016101000a81548160ff021916908360ff1602179055506001600960026101000a81548160ff021916908360ff1602179055503480156200009c57600080fd5b50604051620033ef380380620033ef8339818101604052810190620000c29190620004ce565b8660019080519060200190620000da9291906200016a565b508560029080519060200190620000f39291906200016a565b50846000806101000a81548173ffffffffffffffffffffffffffffffffffffffff021916908373ffffffffffffffffffffffffffffffffffffffff1602179055508342620001429190620005bf565b600b819055508260068190555081600781905550806008819055505050505050505062000681565b82805462000178906200064b565b90600052602060002090601f0160209004810192826200019c5760008555620001e8565b82601f10620001b757805160ff1916838001178555620001e8565b82800160010185558215620001e8579182015b82811115620001e7578251825591602001919060010190620001ca565b5b509050620001f79190620001fb565b5090565b5b8082111562000216576000816000905550600101620001fc565b5090565b600060ff82169050919050565b7f4e487b7100000000000000000000000000000000000000000000000000000000600052601160045260246000fd5b600062000263826200021a565b915062000270836200021a565b92508282101562000286576200028562000227565b5b828203905092915050565b6000604051905090565b600080fd5b600080fd5b600080fd5b600080fd5b6000601f19601f8301169050919050565b7f4e487b7100000000000000000000000000000000000000000000000000000000600052604160045260246000fd5b620002fa82620002af565b810181811067ffffffffffffffff821117156200031c576200031b620002c0565b5b80604052505050565b60006200033162000291565b90506200033f8282620002ef565b919050565b600067ffffffffffffffff821115620003625762000361620002c0565b5b6200036d82620002af565b9050602081019050919050565b60005b838110156200039a5780820151818401526020810190506200037d565b83811115620003aa576000848401525b50505050565b6000620003c7620003c18462000344565b62000325565b905082815260208101848484011115620003e657620003e5620002aa565b5b620003f38482856200037a565b509392505050565b600082601f830112620004135762000412620002a5565b5b815162000425848260208601620003b0565b91505092915050565b600073ffffffffffffffffffffffffffffffffffffffff82169050919050565b60006200045b826200042e565b9050919050565b6200046d816200044e565b81146200047957600080fd5b50565b6000815190506200048d8162000462565b92915050565b6000819050919050565b620004a88162000493565b8114620004b457600080fd5b50565b600081519050620004c8816200049d565b92915050565b600080600080600080600060e0888a031215620004f057620004ef6200029b565b5b600088015167ffffffffffffffff811115620005115762000510620002a0565b5b6200051f8a828b01620003fb565b975050602088015167ffffffffffffffff811115620005435762000542620002a0565b5b620005518a828b01620003fb565b9650506040620005648a828b016200047c565b9550506060620005778a828b01620004b7565b94505060806200058a8a828b01620004b7565b93505060a06200059d8a828b01620004b7565b92505060c0620005b08a828b01620004b7565b91505092959891949750929550565b6000620005cc8262000493565b9150620005d98362000493565b9250827fffffffffffffffffffffffffffffffffffffffffffffffffffffffffffffffff0382111562000611576200061062000227565b5b828201905092915050565b7f4e487b7100000000000000000000000000000000000000000000000000000000600052602260045260246000fd5b600060028204905060018216806200066457607f821691505b602082108114156200067b576200067a6200061c565b5b50919050565b612d5e80620006916000396000f3fe60806040523480156200001157600080fd5b50600436106200013c5760003560e01c8063b3f7584311620000bd578063d669df35116200007b578063d669df351462000355578063dbfb60891462000377578063dddb52f51462000399578063e2179b8e14620003cf578063fd3ab28214620003f1576200013c565b8063b3f758431462000297578063c02e580e14620002b9578063c63d99db14620002db578063cb6632ef14620002fd578063cff29dfd146200031f576200013c565b80632d73a56c116200010b5780632d73a56c14620001d95780635ec2c7bf146200020f5780636e962f0214620002315780639ae8886a1462000253578063a2ff02091462000275576200013c565b8063110f7584146200014157806318253b3214620001775780632356896514620001975780632d30d9af14620001b9575b600080fd5b6200015f6004803603810190620001599190620012f4565b62000413565b6040516200016e919062001438565b60405180910390f35b6200019560048036038101906200018f919062001455565b62000622565b005b620001a1620009eb565b604051620001b09190620014ba565b60405180910390f35b620001d76004803603810190620001d19190620014d7565b620009fe565b005b620001f76004803603810190620001f191906200154e565b62000dc2565b60405162000206919062001438565b60405180910390f35b6200021962000df5565b60405162000228919062001591565b60405180910390f35b6200023b62000e19565b6040516200024a9190620014ba565b60405180910390f35b6200025d62000e2c565b6040516200026c9190620015bf565b60405180910390f35b6200027f62000e32565b6040516200028e9190620015bf565b60405180910390f35b620002a162000e38565b604051620002b09190620014ba565b60405180910390f35b620002c362000e4b565b604051620002d29190620015f9565b60405180910390f35b620002e562000eab565b604051620002f49190620016a9565b60405180910390f35b6200030762000f41565b6040516200031691906200179b565b60405180910390f35b6200033d6004803603810190620003379190620014d7565b62000fd1565b6040516200034c919062001591565b60405180910390f35b6200035f62001011565b6040516200036e9190620016a9565b60405180910390f35b62000381620010a7565b604051620003909190620015f9565b60405180910390f35b620003b76004803603810190620003b19190620017f0565b620010ba565b604051620003c6919062001591565b60405180910390f35b620003d962001116565b604051620003e89190620015bf565b60405180910390f35b620003fb6200111c565b6040516200040a9190620015bf565b60405180910390f35b6000600b544211156200045d576040517f08c379a00000000000000000000000000000000000000000000000000000000081526004016200045490620018c2565b60405180910390fd5b600360009054906101000a900460ff1660ff168451148015620004925750600360009054906101000a900460ff1660ff168351145b8015620004b15750600360009054906101000a900460ff1660ff168251145b620004f3576040517f08c379a0000000000000000000000000000000000000000000000000000000008152600401620004ea906200195a565b60405180910390fd5b600030858585604051620005079062001122565b62000516949392919062001a6f565b604051809103906000f08015801562000533573d6000803e3d6000fd5b50905080600560003373ffffffffffffffffffffffffffffffffffffffff1673ffffffffffffffffffffffffffffffffffffffff16815260200190815260200160002060006101000a81548173ffffffffffffffffffffffffffffffffffffffff021916908373ffffffffffffffffffffffffffffffffffffffff1602179055506004339080600181540180825580915050600190039060005260206000200160009091909190916101000a81548173ffffffffffffffffffffffffffffffffffffffff021916908373ffffffffffffffffffffffffffffffffffffffff160217905550809150509392505050565b60011515600960009054906101000a900460ff161515148062000666575060001515600960009054906101000a900460ff161515148015620006655750600b5442115b5b6200067057600080fd5b60001515600960009054906101000a900460ff161515148015620006955750600b5442115b15620006b7576001600960006101000a81548160ff0219169083151502179055505b6001600960029054906101000a900460ff1660ff16146200070f576040517f08c379a0000000000000000000000000000000000000000000000000000000008152600401620007069062001b21565b60405180910390fd5b600560003373ffffffffffffffffffffffffffffffffffffffff1673ffffffffffffffffffffffffffffffffffffffff16815260200190815260200160002060009054906101000a900473ffffffffffffffffffffffffffffffffffffffff1673ffffffffffffffffffffffffffffffffffffffff166318253b3283836040518363ffffffff1660e01b8152600401620007ab92919062001b43565b600060405180830381600087803b158015620007c657600080fd5b505af1158015620007db573d6000803e3d6000fd5b505050507fbce404a6daf2841fa8654a064509cfeb0db7711a83206b37629370025c0d0e85338383604051620008149392919062001b70565b60405180910390a1600a6000600960019054906101000a900460ff1660ff1660ff1681526020019081526020016000206000600960029054906101000a900460ff1660ff1660ff168152602001908152602001600020339080600181540180825580915050600190039060005260206000200160009091909190916101000a81548173ffffffffffffffffffffffffffffffffffffffff021916908373ffffffffffffffffffffffffffffffffffffffff160217905550620008d562000e4b565b15620009e7576001600960029054906101000a900460ff1660ff16141562000919576002600960026101000a81548160ff021916908360ff1602179055506200098d565b6002600960029054906101000a900460ff1660ff1614156200098c576009600181819054906101000a900460ff1680929190620009569062001bdc565b91906101000a81548160ff021916908360ff160217905550506001600960026101000a81548160ff021916908360ff1602179055505b5b7f89d4bd91a1b522f70e516351721176ee7ffdd2dad610c755dbcab987191acb1d600960019054906101000a900460ff16600960029054906101000a900460ff16604051620009de92919062001c0b565b60405180910390a15b5050565b600360009054906101000a900460ff1681565b60011515600960009054906101000a900460ff161515148062000a42575060001515600960009054906101000a900460ff16151514801562000a415750600b5442115b5b62000a4c57600080fd5b60001515600960009054906101000a900460ff16151514801562000a715750600b5442115b1562000a93576001600960006101000a81548160ff0219169083151502179055505b6002600960029054906101000a900460ff1660ff161462000aeb576040517f08c379a000000000000000000000000000000000000000000000000000000000815260040162000ae29062001c88565b60405180910390fd5b600560003373ffffffffffffffffffffffffffffffffffffffff1673ffffffffffffffffffffffffffffffffffffffff16815260200190815260200160002060009054906101000a900473ffffffffffffffffffffffffffffffffffffffff1673ffffffffffffffffffffffffffffffffffffffff16632d30d9af826040518263ffffffff1660e01b815260040162000b859190620015bf565b600060405180830381600087803b15801562000ba057600080fd5b505af115801562000bb5573d6000803e3d6000fd5b505050507f61e6856509dad6acd9acbba7a080f6a9b69805b5f8cabcc4cb73bb4646c5a036338260405162000bec92919062001caa565b60405180910390a1600a6000600960019054906101000a900460ff1660ff1660ff1681526020019081526020016000206000600960029054906101000a900460ff1660ff1660ff168152602001908152602001600020339080600181540180825580915050600190039060005260206000200160009091909190916101000a81548173ffffffffffffffffffffffffffffffffffffffff021916908373ffffffffffffffffffffffffffffffffffffffff16021790555062000cad62000e4b565b1562000dbf576001600960029054906101000a900460ff1660ff16141562000cf1576002600960026101000a81548160ff021916908360ff16021790555062000d65565b6002600960029054906101000a900460ff1660ff16141562000d64576009600181819054906101000a900460ff168092919062000d2e9062001bdc565b91906101000a81548160ff021916908360ff160217905550506001600960026101000a81548160ff021916908360ff1602179055505b5b7f89d4bd91a1b522f70e516351721176ee7ffdd2dad610c755dbcab987191acb1d600960019054906101000a900460ff16600960029054906101000a900460ff1660405162000db692919062001c0b565b60405180910390a15b50565b60056020528060005260406000206000915054906101000a900473ffffffffffffffffffffffffffffffffffffffff1681565b60008054906101000a900473ffffffffffffffffffffffffffffffffffffffff1681565b600960019054906101000a900460ff1681565b60075481565b600b5481565b600960029054906101000a900460ff1681565b6000600480549050600a6000600960019054906101000a900460ff1660ff1660ff1681526020019081526020016000206000600960029054906101000a900460ff1660ff1660ff1681526020019081526020016000208054905014905090565b6001805462000eba9062001d06565b80601f016020809104026020016040519081016040528092919081815260200182805462000ee89062001d06565b801562000f395780601f1062000f0d5761010080835404028352916020019162000f39565b820191906000526020600020905b81548152906001019060200180831162000f1b57829003601f168201915b505050505081565b6060600480548060200260200160405190810160405280929190818152602001828054801562000fc757602002820191906000526020600020905b8160009054906101000a900473ffffffffffffffffffffffffffffffffffffffff1673ffffffffffffffffffffffffffffffffffffffff168152602001906001019080831162000f7c575b5050505050905090565b6004818154811062000fe257600080fd5b906000526020600020016000915054906101000a900473ffffffffffffffffffffffffffffffffffffffff1681565b60028054620010209062001d06565b80601f01602080910402602001604051908101604052809291908181526020018280546200104e9062001d06565b80156200109f5780601f1062001073576101008083540402835291602001916200109f565b820191906000526020600020905b8154815290600101906020018083116200108157829003601f168201915b505050505081565b600960009054906101000a900460ff1681565b600a6020528260005260406000206020528160005260406000208181548110620010e357600080fd5b90600052602060002001600092509250509054906101000a900473ffffffffffffffffffffffffffffffffffffffff1681565b60085481565b60065481565b610fec8062001d3d83390190565b6000604051905090565b600080fd5b600080fd5b600080fd5b6000601f19601f8301169050919050565b7f4e487b7100000000000000000000000000000000000000000000000000000000600052604160045260246000fd5b620011948262001149565b810181811067ffffffffffffffff82111715620011b657620011b56200115a565b5b80604052505050565b6000620011cb62001130565b9050620011d9828262001189565b919050565b600067ffffffffffffffff821115620011fc57620011fb6200115a565b5b602082029050602081019050919050565b600080fd5b6000819050919050565b620012278162001212565b81146200123357600080fd5b50565b60008135905062001247816200121c565b92915050565b6000620012646200125e84620011de565b620011bf565b905080838252602082019050602084028301858111156200128a57620012896200120d565b5b835b81811015620012b75780620012a2888262001236565b8452602084019350506020810190506200128c565b5050509392505050565b600082601f830112620012d957620012d862001144565b5b8135620012eb8482602086016200124d565b91505092915050565b60008060006060848603121562001310576200130f6200113a565b5b600084013567ffffffffffffffff8111156200133157620013306200113f565b5b6200133f86828701620012c1565b935050602084013567ffffffffffffffff8111156200136357620013626200113f565b5b6200137186828701620012c1565b925050604084013567ffffffffffffffff8111156200139557620013946200113f565b5b620013a386828701620012c1565b9150509250925092565b600073ffffffffffffffffffffffffffffffffffffffff82169050919050565b6000819050919050565b6000620013f8620013f2620013ec84620013ad565b620013cd565b620013ad565b9050919050565b60006200140c82620013d7565b9050919050565b60006200142082620013ff565b9050919050565b620014328162001413565b82525050565b60006020820190506200144f600083018462001427565b92915050565b600080604083850312156200146f576200146e6200113a565b5b60006200147f8582860162001236565b9250506020620014928582860162001236565b9150509250929050565b600060ff82169050919050565b620014b4816200149c565b82525050565b6000602082019050620014d16000830184620014a9565b92915050565b600060208284031215620014f057620014ef6200113a565b5b6000620015008482850162001236565b91505092915050565b60006200151682620013ad565b9050919050565b620015288162001509565b81146200153457600080fd5b50565b60008135905062001548816200151d565b92915050565b6000602082840312156200156757620015666200113a565b5b6000620015778482850162001537565b91505092915050565b6200158b8162001509565b82525050565b6000602082019050620015a8600083018462001580565b92915050565b620015b98162001212565b82525050565b6000602082019050620015d66000830184620015ae565b92915050565b60008115159050919050565b620015f381620015dc565b82525050565b6000602082019050620016106000830184620015e8565b92915050565b600081519050919050565b600082825260208201905092915050565b60005b838110156200165257808201518184015260208101905062001635565b8381111562001662576000848401525b50505050565b6000620016758262001616565b62001681818562001621565b93506200169381856020860162001632565b6200169e8162001149565b840191505092915050565b60006020820190508181036000830152620016c5818462001668565b905092915050565b600081519050919050565b600082825260208201905092915050565b6000819050602082019050919050565b620017048162001509565b82525050565b6000620017188383620016f9565b60208301905092915050565b6000602082019050919050565b60006200173e82620016cd565b6200174a8185620016d8565b93506200175783620016e9565b8060005b838110156200178e5781516200177288826200170a565b97506200177f8362001724565b9250506001810190506200175b565b5085935050505092915050565b60006020820190508181036000830152620017b7818462001731565b905092915050565b620017ca816200149c565b8114620017d657600080fd5b50565b600081359050620017ea81620017bf565b92915050565b6000806000606084860312156200180c576200180b6200113a565b5b60006200181c86828701620017d9565b93505060206200182f86828701620017d9565b9250506040620018428682870162001236565b9150509250925092565b7f43616e2774206a6f696e2061756374696f6e3a20636f6d6d697420737461676560008201527f206973206f766572000000000000000000000000000000000000000000000000602082015250565b6000620018aa60288362001621565b9150620018b7826200184c565b604082019050919050565b60006020820190508181036000830152620018dd816200189b565b9050919050565b7f43616e2774206a6f696e2061756374696f6e3a20626974206c656e677468206960008201527f73206e6f74206d61746368656400000000000000000000000000000000000000602082015250565b600062001942602d8362001621565b91506200194f82620018e4565b604082019050919050565b60006020820190508181036000830152620019758162001933565b9050919050565b60006200198982620013ff565b9050919050565b6200199b816200197c565b82525050565b600081519050919050565b600082825260208201905092915050565b6000819050602082019050919050565b620019d88162001212565b82525050565b6000620019ec8383620019cd565b60208301905092915050565b6000602082019050919050565b600062001a1282620019a1565b62001a1e8185620019ac565b935062001a2b83620019bd565b8060005b8381101562001a6257815162001a468882620019de565b975062001a5383620019f8565b92505060018101905062001a2f565b5085935050505092915050565b600060808201905062001a86600083018762001990565b818103602083015262001a9a818662001a05565b9050818103604083015262001ab0818562001a05565b9050818103606083015262001ac6818462001a05565b905095945050505050565b7f4e6f7420726f756e642031000000000000000000000000000000000000000000600082015250565b600062001b09600b8362001621565b915062001b168262001ad1565b602082019050919050565b6000602082019050818103600083015262001b3c8162001afa565b9050919050565b600060408201905062001b5a6000830185620015ae565b62001b696020830184620015ae565b9392505050565b600060608201905062001b87600083018662001580565b62001b966020830185620015ae565b62001ba56040830184620015ae565b949350505050565b7f4e487b7100000000000000000000000000000000000000000000000000000000600052601160045260246000fd5b600062001be9826200149c565b9150600082141562001c005762001bff62001bad565b5b600182039050919050565b600060408201905062001c226000830185620014a9565b62001c316020830184620014a9565b9392505050565b7f4e6f7420726f756e642032000000000000000000000000000000000000000000600082015250565b600062001c70600b8362001621565b915062001c7d8262001c38565b602082019050919050565b6000602082019050818103600083015262001ca38162001c61565b9050919050565b600060408201905062001cc1600083018562001580565b62001cd06020830184620015ae565b9392505050565b7f4e487b7100000000000000000000000000000000000000000000000000000000600052602260045260246000fd5b6000600282049050600182168062001d1f57607f821691505b6020821081141562001d365762001d3562001cd7565b5b5091905056fe60806040523480156200001157600080fd5b5060405162000fec38038062000fec833981810160405281019062000037919062000467565b620000576200004b620000ed60201b60201c565b620000f560201b60201c565b83600160006101000a81548173ffffffffffffffffffffffffffffffffffffffff021916908373ffffffffffffffffffffffffffffffffffffffff1602179055508260029080519060200190620000b0929190620001b9565b508160039080519060200190620000c9929190620001b9565b508060049080519060200190620000e2929190620001b9565b505050505062000536565b600033905090565b60008060009054906101000a900473ffffffffffffffffffffffffffffffffffffffff169050816000806101000a81548173ffffffffffffffffffffffffffffffffffffffff021916908373ffffffffffffffffffffffffffffffffffffffff1602179055508173ffffffffffffffffffffffffffffffffffffffff168173ffffffffffffffffffffffffffffffffffffffff167f8be0079c531659141344cd1fd0a4f28419497f9722a3daafe3b4186f6b6457e060405160405180910390a35050565b828054828255906000526020600020908101928215620001f8579160200282015b82811115620001f7578251825591602001919060010190620001da565b5b5090506200020791906200020b565b5090565b5b80821115620002265760008160009055506001016200020c565b5090565b6000604051905090565b600080fd5b600080fd5b600073ffffffffffffffffffffffffffffffffffffffff82169050919050565b60006200026b826200023e565b9050919050565b60006200027f826200025e565b9050919050565b620002918162000272565b81146200029d57600080fd5b50565b600081519050620002b18162000286565b92915050565b600080fd5b6000601f19601f8301169050919050565b7f4e487b7100000000000000000000000000000000000000000000000000000000600052604160045260246000fd5b6200030782620002bc565b810181811067ffffffffffffffff82111715620003295762000328620002cd565b5b80604052505050565b60006200033e6200022a565b90506200034c8282620002fc565b919050565b600067ffffffffffffffff8211156200036f576200036e620002cd565b5b602082029050602081019050919050565b600080fd5b6000819050919050565b6200039a8162000385565b8114620003a657600080fd5b50565b600081519050620003ba816200038f565b92915050565b6000620003d7620003d18462000351565b62000332565b90508083825260208201905060208402830185811115620003fd57620003fc62000380565b5b835b818110156200042a5780620004158882620003a9565b845260208401935050602081019050620003ff565b5050509392505050565b600082601f8301126200044c576200044b620002b7565b5b81516200045e848260208601620003c0565b91505092915050565b6000806000806080858703121562000484576200048362000234565b5b60006200049487828801620002a0565b945050602085015167ffffffffffffffff811115620004b857620004b762000239565b5b620004c68782880162000434565b935050604085015167ffffffffffffffff811115620004ea57620004e962000239565b5b620004f88782880162000434565b925050606085015167ffffffffffffffff8111156200051c576200051b62000239565b5b6200052a8782880162000434565b91505092959194509250565b610aa680620005466000396000f3fe608060405234801561001057600080fd5b50600436106100b45760003560e01c8063a322211311610071578063a322211314610179578063cd580ff3146101a9578063d07d1f04146101d9578063f2fde38b14610209578063f509d18314610225578063fa6a6d3614610255576100b4565b806318253b32146100b957806325d5aa91146100d55780632d30d9af146101055780634cfa0ad514610121578063715018a6146101515780638da5cb5b1461015b575b600080fd5b6100d360048036038101906100ce919061079b565b610273565b005b6100ef60048036038101906100ea91906107db565b610345565b6040516100fc9190610817565b60405180910390f35b61011f600480360381019061011a91906107db565b610369565b005b61013b600480360381019061013691906107db565b610411565b6040516101489190610817565b60405180910390f35b610159610435565b005b6101636104bd565b6040516101709190610873565b60405180910390f35b610193600480360381019061018e91906107db565b6104e6565b6040516101a09190610817565b60405180910390f35b6101c360048036038101906101be91906107db565b61050a565b6040516101d09190610817565b60405180910390f35b6101f360048036038101906101ee91906107db565b61052e565b6040516102009190610817565b60405180910390f35b610223600480360381019061021e91906108ba565b610552565b005b61023f600480360381019061023a91906107db565b61064a565b60405161024c9190610817565b60405180910390f35b61025d61066e565b60405161026a9190610946565b60405180910390f35b61027b610694565b73ffffffffffffffffffffffffffffffffffffffff166102996104bd565b73ffffffffffffffffffffffffffffffffffffffff16146102ef576040517f08c379a00000000000000000000000000000000000000000000000000000000081526004016102e6906109be565b60405180910390fd5b600582908060018154018082558091505060019003906000526020600020016000909190919091505560068190806001815401808255809150506001900390600052602060002001600090919091909150555050565b6002818154811061035557600080fd5b906000526020600020016000915090505481565b610371610694565b73ffffffffffffffffffffffffffffffffffffffff1661038f6104bd565b73ffffffffffffffffffffffffffffffffffffffff16146103e5576040517f08c379a00000000000000000000000000000000000000000000000000000000081526004016103dc906109be565b60405180910390fd5b600781908060018154018082558091505060019003906000526020600020016000909190919091505550565b6006818154811061042157600080fd5b906000526020600020016000915090505481565b61043d610694565b73ffffffffffffffffffffffffffffffffffffffff1661045b6104bd565b73ffffffffffffffffffffffffffffffffffffffff16146104b1576040517f08c379a00000000000000000000000000000000000000000000000000000000081526004016104a8906109be565b60405180910390fd5b6104bb600061069c565b565b60008060009054906101000a900473ffffffffffffffffffffffffffffffffffffffff16905090565b600581815481106104f657600080fd5b906000526020600020016000915090505481565b6007818154811061051a57600080fd5b906000526020600020016000915090505481565b6003818154811061053e57600080fd5b906000526020600020016000915090505481565b61055a610694565b73ffffffffffffffffffffffffffffffffffffffff166105786104bd565b73ffffffffffffffffffffffffffffffffffffffff16146105ce576040517f08c379a00000000000000000000000000000000000000000000000000000000081526004016105c5906109be565b60405180910390fd5b600073ffffffffffffffffffffffffffffffffffffffff168173ffffffffffffffffffffffffffffffffffffffff16141561063e576040517f08c379a000000000000000000000000000000000000000000000000000000000815260040161063590610a50565b60405180910390fd5b6106478161069c565b50565b6004818154811061065a57600080fd5b906000526020600020016000915090505481565b600160009054906101000a900473ffffffffffffffffffffffffffffffffffffffff1681565b600033905090565b60008060009054906101000a900473ffffffffffffffffffffffffffffffffffffffff169050816000806101000a81548173ffffffffffffffffffffffffffffffffffffffff021916908373ffffffffffffffffffffffffffffffffffffffff1602179055508173ffffffffffffffffffffffffffffffffffffffff168173ffffffffffffffffffffffffffffffffffffffff167f8be0079c531659141344cd1fd0a4f28419497f9722a3daafe3b4186f6b6457e060405160405180910390a35050565b600080fd5b6000819050919050565b61077881610765565b811461078357600080fd5b50565b6000813590506107958161076f565b92915050565b600080604083850312156107b2576107b1610760565b5b60006107c085828601610786565b92505060206107d185828601610786565b9150509250929050565b6000602082840312156107f1576107f0610760565b5b60006107ff84828501610786565b91505092915050565b61081181610765565b82525050565b600060208201905061082c6000830184610808565b92915050565b600073ffffffffffffffffffffffffffffffffffffffff82169050919050565b600061085d82610832565b9050919050565b61086d81610852565b82525050565b60006020820190506108886000830184610864565b92915050565b61089781610852565b81146108a257600080fd5b50565b6000813590506108b48161088e565b92915050565b6000602082840312156108d0576108cf610760565b5b60006108de848285016108a5565b91505092915050565b6000819050919050565b600061090c61090761090284610832565b6108e7565b610832565b9050919050565b600061091e826108f1565b9050919050565b600061093082610913565b9050919050565b61094081610925565b82525050565b600060208201905061095b6000830184610937565b92915050565b600082825260208201905092915050565b7f4f776e61626c653a2063616c6c6572206973206e6f7420746865206f776e6572600082015250565b60006109a8602083610961565b91506109b382610972565b602082019050919050565b600060208201905081810360008301526109d78161099b565b9050919050565b7f4f776e61626c653a206e6577206f776e657220697320746865207a65726f206160008201527f6464726573730000000000000000000000000000000000000000000000000000602082015250565b6000610a3a602683610961565b9150610a45826109de565b604082019050919050565b60006020820190508181036000830152610a6981610a2d565b905091905056fea2646970667358221220d1874c92c64291e4da1bc3fde20b390d9df641c95deb6af298146311e611826264736f6c634300080a0033a26469706673582212206930dc8f9af10028f6e4cc946f2ab4fd96ecdd0190c0889e4b96e6007f6768bb64736f6c634300080a0033",
  "immutableReferences": {},
  "source": "// SPDX-License-Identifier: MIT\npragma solidity >=0.4.22 <0.9.0;\n\nimport \"@openzeppelin/contracts/access/Ownable.sol\";\n\n// Improve: Use Event&Log to store Bidder information\ncontract Bidder is Ownable {\n    Auction public auctionAddr;\n    uint256[] public ga; // commitment (start from MSB)\n    uint256[] public gb; // commitment (start from MSB)\n    uint256[] public gp; // commitment (start from MSB)\n    uint256[] public gx; // round 1 (start from MSB)\n    uint256[] public gr; // round 1 (start from MSB)\n    uint256[] public b; // round 2 (start from MSB)\n\n    constructor(\n        Auction _auctionAddr,\n        uint256[] memory _ga,\n        uint256[] memory _gb,\n        uint256[] memory _gp\n    ) {\n        auctionAddr = _auctionAddr;\n        ga = _ga;\n        gb = _gb;\n        gp = _gp;\n    }\n\n    function round1(uint256 _gx, uint256 _gr) public onlyOwner {\n        // TODO: check already submit case\n        gx.push(_gx);\n        gr.push(_gr);\n    }\n\n    function round2(uint256 _b) public onlyOwner {\n        // TODO: check already submit case\n        b.push(_b);\n    }\n}\n\ncontract Auction {\n    address public auctioneer;\n\n    // auction parameters\n    string public auctionName;\n    string public auctionDesc;\n    uint8 public bitLen = 4;\n    address[] public bidders;\n    mapping(address => Bidder) public bidderContractMap;\n\n    // group parameters\n    uint256 public q;\n    uint256 public p;\n    uint256 public g;\n\n    // state maintain parameters\n    bool public mpcStartFlag = false;\n    uint8 public curBit = bitLen - 1;\n    uint8 public curRound = 1;\n    mapping(uint8 => mapping(uint8 => address[])) public roundBidders;\n\n    event Round1Notification(address sender, uint256 gx, uint256 gr);\n    event Round2Notification(address sender, uint256 b);\n    event RoundEndNotification(uint8 curBit, uint8 curRound);\n\n    uint256 public commitDeadline;\n\n    constructor(\n        string memory _auctionName,\n        string memory _auctionDesc,\n        address _auctioneer,\n        uint256 _relCommitDeadlineSec,\n        uint256 _q,\n        uint256 _p,\n        uint256 _g\n    ) {\n        auctionName = _auctionName;\n        auctionDesc = _auctionDesc;\n        auctioneer = _auctioneer;\n        commitDeadline = block.timestamp + _relCommitDeadlineSec;\n        q = _q;\n        p = _p;\n        g = _g;\n    }\n\n    modifier mpcStart() {\n        require(\n            mpcStartFlag == true ||\n                (mpcStartFlag == false && block.timestamp > commitDeadline)\n        );\n\n        // start auction\n        if (mpcStartFlag == false && block.timestamp > commitDeadline) {\n            mpcStartFlag = true;\n        }\n        _;\n    }\n\n    modifier updateState() {\n        _;\n        roundBidders[curBit][curRound].push(msg.sender);\n        // move to next round\n        if (roundEnd()) {\n            if (curRound == 1) {\n                curRound = 2;\n            } else if (curRound == 2) {\n                curBit--;\n                curRound = 1;\n            }\n            emit RoundEndNotification(curBit, curRound);\n        }\n    }\n\n    function getBidders() public view returns (address[] memory) {\n        return bidders;\n    }\n\n    function roundEnd() public view returns (bool) {\n        return roundBidders[curBit][curRound].length == bidders.length;\n    }\n\n    function joinAuction(\n        uint256[] memory _ga,\n        uint256[] memory _gb,\n        uint256[] memory _gp\n    ) public returns (Bidder) {\n        require(\n            block.timestamp <= commitDeadline,\n            \"Can't join auction: commit stage is over\"\n        );\n        require(\n            _ga.length == bitLen &&\n                _gb.length == bitLen &&\n                _gp.length == bitLen,\n            \"Can't join auction: bit length is not matched\"\n        );\n\n        Bidder newBidder = new Bidder(this, _ga, _gb, _gp);\n        bidderContractMap[msg.sender] = newBidder;\n        bidders.push(msg.sender);\n\n        return newBidder;\n    }\n\n    function round1(uint256 _gx, uint256 _gr) public mpcStart updateState {\n        require(curRound == 1, \"Not round 1\");\n        bidderContractMap[msg.sender].round1(_gx, _gr);\n        emit Round1Notification(msg.sender, _gx, _gr);\n    }\n\n    function round2(uint256 _b) public mpcStart updateState {\n        require(curRound == 2, \"Not round 2\");\n        bidderContractMap[msg.sender].round2(_b);\n        emit Round2Notification(msg.sender, _b);\n    }\n}\n\ncontract Main {\n    address public owner = msg.sender;\n    Auction[] public auctions;\n\n    function getAuctions() public view returns (Auction[] memory) {\n        return auctions;\n    }\n\n    function createAuction(\n        string memory _auctionName,\n        string memory _auctionDesc,\n        uint256 _relCommitDeadlineSec,\n        uint256 _q,\n        uint256 _p,\n        uint256 _g\n    ) public returns (Auction) {\n        require(bytes(_auctionName).length > 0);\n        // TODO: check group is valid (require efficient implementation of exponentiation)\n        // 1. p = q * r + 1\n        // 2. g = h^r mod p\n        // 3. g^q = 1 mod p\n\n        Auction newAuction = new Auction(\n            _auctionName,\n            _auctionDesc,\n            msg.sender,\n            _relCommitDeadlineSec,\n            _q,\n            _p,\n            _g\n        );\n        auctions.push(newAuction);\n\n        return newAuction;\n    }\n}\n",
  "sourcePath": "/Users/ykzheng/Projects/SEAL-Bid-Auction/smart-contract/contracts/Main.sol",
  "compiler": {
    "name": "solc",
    "version": "0.8.10+commit.fc410830.Emscripten.clang"
  },
  "schemaVersion": "3.4.4",
  "updatedAt": "2022-01-12T15:27:37.743Z",
  "devdoc": {
    "kind": "dev",
    "methods": {},
    "version": 1
  },
  "userdoc": {
    "kind": "user",
    "methods": {},
    "version": 1
  }
}