{
  "contractName": "Auction",
  "abi": [
    {
      "inputs": [
        {
          "internalType": "string",
          "name": "_auctionName",
          "type": "string"
        },
        {
          "internalType": "string",
          "name": "_auctionDesc",
          "type": "string"
        },
        {
          "internalType": "address",
          "name": "_auctioneer",
          "type": "address"
        },
        {
          "internalType": "uint256",
          "name": "_relCommitDeadlineSec",
          "type": "uint256"
        },
        {
          "internalType": "uint256",
          "name": "_q",
          "type": "uint256"
        },
        {
          "internalType": "uint256",
          "name": "_p",
          "type": "uint256"
        },
        {
          "internalType": "uint256",
          "name": "_g",
          "type": "uint256"
        }
      ],
      "stateMutability": "nonpayable",
      "type": "constructor"
    },
    {
      "anonymous": false,
      "inputs": [
        {
          "indexed": false,
          "internalType": "address",
          "name": "sender",
          "type": "address"
        },
        {
          "indexed": false,
          "internalType": "string",
          "name": "commitment",
          "type": "string"
        }
      ],
      "name": "JoinAuctionEvent",
      "type": "event"
    },
    {
      "anonymous": false,
      "inputs": [
        {
          "indexed": false,
          "internalType": "address",
          "name": "sender",
          "type": "address"
        },
        {
          "indexed": false,
          "internalType": "uint256",
          "name": "gx",
          "type": "uint256"
        },
        {
          "indexed": false,
          "internalType": "uint256",
          "name": "gr",
          "type": "uint256"
        }
      ],
      "name": "Round1Notification",
      "type": "event"
    },
    {
      "anonymous": false,
      "inputs": [
        {
          "indexed": false,
          "internalType": "address",
          "name": "sender",
          "type": "address"
        },
        {
          "indexed": false,
          "internalType": "uint256",
          "name": "b",
          "type": "uint256"
        }
      ],
      "name": "Round2Notification",
      "type": "event"
    },
    {
      "anonymous": false,
      "inputs": [
        {
          "indexed": false,
          "internalType": "uint8",
          "name": "curBit",
          "type": "uint8"
        },
        {
          "indexed": false,
          "internalType": "uint8",
          "name": "curRound",
          "type": "uint8"
        }
      ],
      "name": "RoundEndNotification",
      "type": "event"
    },
    {
      "inputs": [],
      "name": "auctionDesc",
      "outputs": [
        {
          "internalType": "string",
          "name": "",
          "type": "string"
        }
      ],
      "stateMutability": "view",
      "type": "function"
    },
    {
      "inputs": [],
      "name": "auctionName",
      "outputs": [
        {
          "internalType": "string",
          "name": "",
          "type": "string"
        }
      ],
      "stateMutability": "view",
      "type": "function"
    },
    {
      "inputs": [],
      "name": "auctioneer",
      "outputs": [
        {
          "internalType": "address",
          "name": "",
          "type": "address"
        }
      ],
      "stateMutability": "view",
      "type": "function"
    },
    {
      "inputs": [
        {
          "internalType": "address",
          "name": "",
          "type": "address"
        }
      ],
      "name": "bidderContractMap",
      "outputs": [
        {
          "internalType": "contract Bidder",
          "name": "",
          "type": "address"
        }
      ],
      "stateMutability": "view",
      "type": "function"
    },
    {
      "inputs": [
        {
          "internalType": "uint256",
          "name": "",
          "type": "uint256"
        }
      ],
      "name": "bidders",
      "outputs": [
        {
          "internalType": "address",
          "name": "",
          "type": "address"
        }
      ],
      "stateMutability": "view",
      "type": "function"
    },
    {
      "inputs": [],
      "name": "bitLen",
      "outputs": [
        {
          "internalType": "uint8",
          "name": "",
          "type": "uint8"
        }
      ],
      "stateMutability": "view",
      "type": "function"
    },
    {
      "inputs": [],
      "name": "commitDeadline",
      "outputs": [
        {
          "internalType": "uint256",
          "name": "",
          "type": "uint256"
        }
      ],
      "stateMutability": "view",
      "type": "function"
    },
    {
      "inputs": [],
      "name": "curBit",
      "outputs": [
        {
          "internalType": "uint8",
          "name": "",
          "type": "uint8"
        }
      ],
      "stateMutability": "view",
      "type": "function"
    },
    {
      "inputs": [],
      "name": "curRound",
      "outputs": [
        {
          "internalType": "uint8",
          "name": "",
          "type": "uint8"
        }
      ],
      "stateMutability": "view",
      "type": "function"
    },
    {
      "inputs": [],
      "name": "g",
      "outputs": [
        {
          "internalType": "uint256",
          "name": "",
          "type": "uint256"
        }
      ],
      "stateMutability": "view",
      "type": "function"
    },
    {
      "inputs": [],
      "name": "mpcStartFlag",
      "outputs": [
        {
          "internalType": "bool",
          "name": "",
          "type": "bool"
        }
      ],
      "stateMutability": "view",
      "type": "function"
    },
    {
      "inputs": [],
      "name": "p",
      "outputs": [
        {
          "internalType": "uint256",
          "name": "",
          "type": "uint256"
        }
      ],
      "stateMutability": "view",
      "type": "function"
    },
    {
      "inputs": [],
      "name": "q",
      "outputs": [
        {
          "internalType": "uint256",
          "name": "",
          "type": "uint256"
        }
      ],
      "stateMutability": "view",
      "type": "function"
    },
    {
      "inputs": [
        {
          "internalType": "uint8",
          "name": "",
          "type": "uint8"
        },
        {
          "internalType": "uint8",
          "name": "",
          "type": "uint8"
        },
        {
          "internalType": "uint256",
          "name": "",
          "type": "uint256"
        }
      ],
      "name": "roundBidders",
      "outputs": [
        {
          "internalType": "address",
          "name": "",
          "type": "address"
        }
      ],
      "stateMutability": "view",
      "type": "function"
    },
    {
      "inputs": [],
      "name": "getBidders",
      "outputs": [
        {
          "internalType": "address[]",
          "name": "",
          "type": "address[]"
        }
      ],
      "stateMutability": "view",
      "type": "function"
    },
    {
      "inputs": [],
      "name": "roundEnd",
      "outputs": [
        {
          "internalType": "bool",
          "name": "",
          "type": "bool"
        }
      ],
      "stateMutability": "view",
      "type": "function"
    },
    {
      "inputs": [
        {
          "internalType": "string",
          "name": "commitment",
          "type": "string"
        }
      ],
      "name": "joinAuction",
      "outputs": [
        {
          "internalType": "contract Bidder",
          "name": "",
          "type": "address"
        }
      ],
      "stateMutability": "nonpayable",
      "type": "function"
    },
    {
      "inputs": [
        {
          "internalType": "uint256",
          "name": "_gx",
          "type": "uint256"
        },
        {
          "internalType": "uint256",
          "name": "_gr",
          "type": "uint256"
        }
      ],
      "name": "round1",
      "outputs": [],
      "stateMutability": "nonpayable",
      "type": "function"
    },
    {
      "inputs": [
        {
          "internalType": "uint256",
          "name": "_b",
          "type": "uint256"
        }
      ],
      "name": "round2",
      "outputs": [],
      "stateMutability": "nonpayable",
      "type": "function"
    }
  ],
  "bytecode": "0x60806040526004600360006101000a81548160ff021916908360ff1602179055506000600960006101000a81548160ff0219169083151502179055506001600360009054906101000a900460ff1662000059919062000256565b600960016101000a81548160ff021916908360ff1602179055506001600960026101000a81548160ff021916908360ff1602179055503480156200009c57600080fd5b5060405162003238380380620032388339818101604052810190620000c29190620004ce565b8660019080519060200190620000da9291906200016a565b508560029080519060200190620000f39291906200016a565b50846000806101000a81548173ffffffffffffffffffffffffffffffffffffffff021916908373ffffffffffffffffffffffffffffffffffffffff1602179055508342620001429190620005bf565b600b819055508260068190555081600781905550806008819055505050505050505062000681565b82805462000178906200064b565b90600052602060002090601f0160209004810192826200019c5760008555620001e8565b82601f10620001b757805160ff1916838001178555620001e8565b82800160010185558215620001e8579182015b82811115620001e7578251825591602001919060010190620001ca565b5b509050620001f79190620001fb565b5090565b5b8082111562000216576000816000905550600101620001fc565b5090565b600060ff82169050919050565b7f4e487b7100000000000000000000000000000000000000000000000000000000600052601160045260246000fd5b600062000263826200021a565b915062000270836200021a565b92508282101562000286576200028562000227565b5b828203905092915050565b6000604051905090565b600080fd5b600080fd5b600080fd5b600080fd5b6000601f19601f8301169050919050565b7f4e487b7100000000000000000000000000000000000000000000000000000000600052604160045260246000fd5b620002fa82620002af565b810181811067ffffffffffffffff821117156200031c576200031b620002c0565b5b80604052505050565b60006200033162000291565b90506200033f8282620002ef565b919050565b600067ffffffffffffffff821115620003625762000361620002c0565b5b6200036d82620002af565b9050602081019050919050565b60005b838110156200039a5780820151818401526020810190506200037d565b83811115620003aa576000848401525b50505050565b6000620003c7620003c18462000344565b62000325565b905082815260208101848484011115620003e657620003e5620002aa565b5b620003f38482856200037a565b509392505050565b600082601f830112620004135762000412620002a5565b5b815162000425848260208601620003b0565b91505092915050565b600073ffffffffffffffffffffffffffffffffffffffff82169050919050565b60006200045b826200042e565b9050919050565b6200046d816200044e565b81146200047957600080fd5b50565b6000815190506200048d8162000462565b92915050565b6000819050919050565b620004a88162000493565b8114620004b457600080fd5b50565b600081519050620004c8816200049d565b92915050565b600080600080600080600060e0888a031215620004f057620004ef6200029b565b5b600088015167ffffffffffffffff811115620005115762000510620002a0565b5b6200051f8a828b01620003fb565b975050602088015167ffffffffffffffff811115620005435762000542620002a0565b5b620005518a828b01620003fb565b9650506040620005648a828b016200047c565b9550506060620005778a828b01620004b7565b94505060806200058a8a828b01620004b7565b93505060a06200059d8a828b01620004b7565b92505060c0620005b08a828b01620004b7565b91505092959891949750929550565b6000620005cc8262000493565b9150620005d98362000493565b9250827fffffffffffffffffffffffffffffffffffffffffffffffffffffffffffffffff0382111562000611576200061062000227565b5b828201905092915050565b7f4e487b7100000000000000000000000000000000000000000000000000000000600052602260045260246000fd5b600060028204905060018216806200066457607f821691505b602082108114156200067b576200067a6200061c565b5b50919050565b612ba780620006916000396000f3fe60806040523480156200001157600080fd5b50600436106200013c5760003560e01c8063b3f7584311620000bd578063d669df35116200007b578063d669df351462000355578063dbfb60891462000377578063dddb52f51462000399578063e2179b8e14620003cf578063fd3ab28214620003f1576200013c565b8063b3f758431462000297578063c02e580e14620002b9578063c63d99db14620002db578063cb6632ef14620002fd578063cff29dfd146200031f576200013c565b80632daccf4c116200010b5780632daccf4c14620001d95780635ec2c7bf146200020f5780636e962f0214620002315780639ae8886a1462000253578063a2ff02091462000275576200013c565b806318253b3214620001415780632356896514620001615780632d30d9af14620001835780632d73a56c14620001a3575b600080fd5b6200015f60048036038101906200015991906200111e565b62000413565b005b6200016b620007dc565b6040516200017a919062001183565b60405180910390f35b620001a160048036038101906200019b9190620011a0565b620007ef565b005b620001c16004803603810190620001bb919062001237565b62000bb3565b604051620001d09190620012d4565b60405180910390f35b620001f76004803603810190620001f1919062001453565b62000be6565b604051620002069190620012d4565b60405180910390f35b6200021962000d94565b604051620002289190620014b5565b60405180910390f35b6200023b62000db8565b6040516200024a919062001183565b60405180910390f35b6200025d62000dcb565b6040516200026c9190620014e3565b60405180910390f35b6200027f62000dd1565b6040516200028e9190620014e3565b60405180910390f35b620002a162000dd7565b604051620002b0919062001183565b60405180910390f35b620002c362000dea565b604051620002d291906200151d565b60405180910390f35b620002e562000e4a565b604051620002f49190620015cd565b60405180910390f35b6200030762000ee0565b604051620003169190620016bf565b60405180910390f35b6200033d6004803603810190620003379190620011a0565b62000f70565b6040516200034c9190620014b5565b60405180910390f35b6200035f62000fb0565b6040516200036e9190620015cd565b60405180910390f35b6200038162001046565b6040516200039091906200151d565b60405180910390f35b620003b76004803603810190620003b1919062001714565b62001059565b604051620003c69190620014b5565b60405180910390f35b620003d9620010b5565b604051620003e89190620014e3565b60405180910390f35b620003fb620010bb565b6040516200040a9190620014e3565b60405180910390f35b60011515600960009054906101000a900460ff161515148062000457575060001515600960009054906101000a900460ff161515148015620004565750600b5442115b5b6200046157600080fd5b60001515600960009054906101000a900460ff161515148015620004865750600b5442115b15620004a8576001600960006101000a81548160ff0219169083151502179055505b6001600960029054906101000a900460ff1660ff161462000500576040517f08c379a0000000000000000000000000000000000000000000000000000000008152600401620004f790620017c0565b60405180910390fd5b600560003373ffffffffffffffffffffffffffffffffffffffff1673ffffffffffffffffffffffffffffffffffffffff16815260200190815260200160002060009054906101000a900473ffffffffffffffffffffffffffffffffffffffff1673ffffffffffffffffffffffffffffffffffffffff166318253b3283836040518363ffffffff1660e01b81526004016200059c929190620017e2565b600060405180830381600087803b158015620005b757600080fd5b505af1158015620005cc573d6000803e3d6000fd5b505050507fbce404a6daf2841fa8654a064509cfeb0db7711a83206b37629370025c0d0e8533838360405162000605939291906200180f565b60405180910390a1600a6000600960019054906101000a900460ff1660ff1660ff1681526020019081526020016000206000600960029054906101000a900460ff1660ff1660ff168152602001908152602001600020339080600181540180825580915050600190039060005260206000200160009091909190916101000a81548173ffffffffffffffffffffffffffffffffffffffff021916908373ffffffffffffffffffffffffffffffffffffffff160217905550620006c662000dea565b15620007d8576001600960029054906101000a900460ff1660ff1614156200070a576002600960026101000a81548160ff021916908360ff1602179055506200077e565b6002600960029054906101000a900460ff1660ff1614156200077d576009600181819054906101000a900460ff168092919062000747906200187b565b91906101000a81548160ff021916908360ff160217905550506001600960026101000a81548160ff021916908360ff1602179055505b5b7f89d4bd91a1b522f70e516351721176ee7ffdd2dad610c755dbcab987191acb1d600960019054906101000a900460ff16600960029054906101000a900460ff16604051620007cf929190620018aa565b60405180910390a15b5050565b600360009054906101000a900460ff1681565b60011515600960009054906101000a900460ff161515148062000833575060001515600960009054906101000a900460ff161515148015620008325750600b5442115b5b6200083d57600080fd5b60001515600960009054906101000a900460ff161515148015620008625750600b5442115b1562000884576001600960006101000a81548160ff0219169083151502179055505b6002600960029054906101000a900460ff1660ff1614620008dc576040517f08c379a0000000000000000000000000000000000000000000000000000000008152600401620008d39062001927565b60405180910390fd5b600560003373ffffffffffffffffffffffffffffffffffffffff1673ffffffffffffffffffffffffffffffffffffffff16815260200190815260200160002060009054906101000a900473ffffffffffffffffffffffffffffffffffffffff1673ffffffffffffffffffffffffffffffffffffffff16632d30d9af826040518263ffffffff1660e01b8152600401620009769190620014e3565b600060405180830381600087803b1580156200099157600080fd5b505af1158015620009a6573d6000803e3d6000fd5b505050507f61e6856509dad6acd9acbba7a080f6a9b69805b5f8cabcc4cb73bb4646c5a0363382604051620009dd92919062001949565b60405180910390a1600a6000600960019054906101000a900460ff1660ff1660ff1681526020019081526020016000206000600960029054906101000a900460ff1660ff1660ff168152602001908152602001600020339080600181540180825580915050600190039060005260206000200160009091909190916101000a81548173ffffffffffffffffffffffffffffffffffffffff021916908373ffffffffffffffffffffffffffffffffffffffff16021790555062000a9e62000dea565b1562000bb0576001600960029054906101000a900460ff1660ff16141562000ae2576002600960026101000a81548160ff021916908360ff16021790555062000b56565b6002600960029054906101000a900460ff1660ff16141562000b55576009600181819054906101000a900460ff168092919062000b1f906200187b565b91906101000a81548160ff021916908360ff160217905550506001600960026101000a81548160ff021916908360ff1602179055505b5b7f89d4bd91a1b522f70e516351721176ee7ffdd2dad610c755dbcab987191acb1d600960019054906101000a900460ff16600960029054906101000a900460ff1660405162000ba7929190620018aa565b60405180910390a15b50565b60056020528060005260406000206000915054906101000a900473ffffffffffffffffffffffffffffffffffffffff1681565b6000600b5442111562000c30576040517f08c379a000000000000000000000000000000000000000000000000000000000815260040162000c2790620019ec565b60405180910390fd5b6000308360405162000c4290620010c1565b62000c4f92919062001a33565b604051809103906000f08015801562000c6c573d6000803e3d6000fd5b50905080600560003373ffffffffffffffffffffffffffffffffffffffff1673ffffffffffffffffffffffffffffffffffffffff16815260200190815260200160002060006101000a81548173ffffffffffffffffffffffffffffffffffffffff021916908373ffffffffffffffffffffffffffffffffffffffff1602179055506004339080600181540180825580915050600190039060005260206000200160009091909190916101000a81548173ffffffffffffffffffffffffffffffffffffffff021916908373ffffffffffffffffffffffffffffffffffffffff1602179055507f149002147a22ad17e58285a3afa294e37725d7089362947ae1be58962ce9b6d9338460405162000d8392919062001a67565b60405180910390a180915050919050565b60008054906101000a900473ffffffffffffffffffffffffffffffffffffffff1681565b600960019054906101000a900460ff1681565b60075481565b600b5481565b600960029054906101000a900460ff1681565b6000600480549050600a6000600960019054906101000a900460ff1660ff1660ff1681526020019081526020016000206000600960029054906101000a900460ff1660ff1660ff1681526020019081526020016000208054905014905090565b6001805462000e599062001aca565b80601f016020809104026020016040519081016040528092919081815260200182805462000e879062001aca565b801562000ed85780601f1062000eac5761010080835404028352916020019162000ed8565b820191906000526020600020905b81548152906001019060200180831162000eba57829003601f168201915b505050505081565b6060600480548060200260200160405190810160405280929190818152602001828054801562000f6657602002820191906000526020600020905b8160009054906101000a900473ffffffffffffffffffffffffffffffffffffffff1673ffffffffffffffffffffffffffffffffffffffff168152602001906001019080831162000f1b575b5050505050905090565b6004818154811062000f8157600080fd5b906000526020600020016000915054906101000a900473ffffffffffffffffffffffffffffffffffffffff1681565b6002805462000fbf9062001aca565b80601f016020809104026020016040519081016040528092919081815260200182805462000fed9062001aca565b80156200103e5780601f1062001012576101008083540402835291602001916200103e565b820191906000526020600020905b8154815290600101906020018083116200102057829003601f168201915b505050505081565b600960009054906101000a900460ff1681565b600a60205282600052604060002060205281600052604060002081815481106200108257600080fd5b90600052602060002001600092509250509054906101000a900473ffffffffffffffffffffffffffffffffffffffff1681565b60085481565b60065481565b6110718062001b0183390190565b6000604051905090565b600080fd5b600080fd5b6000819050919050565b620010f881620010e3565b81146200110457600080fd5b50565b6000813590506200111881620010ed565b92915050565b60008060408385031215620011385762001137620010d9565b5b6000620011488582860162001107565b92505060206200115b8582860162001107565b9150509250929050565b600060ff82169050919050565b6200117d8162001165565b82525050565b60006020820190506200119a600083018462001172565b92915050565b600060208284031215620011b957620011b8620010d9565b5b6000620011c98482850162001107565b91505092915050565b600073ffffffffffffffffffffffffffffffffffffffff82169050919050565b6000620011ff82620011d2565b9050919050565b6200121181620011f2565b81146200121d57600080fd5b50565b600081359050620012318162001206565b92915050565b60006020828403121562001250576200124f620010d9565b5b6000620012608482850162001220565b91505092915050565b6000819050919050565b6000620012946200128e6200128884620011d2565b62001269565b620011d2565b9050919050565b6000620012a88262001273565b9050919050565b6000620012bc826200129b565b9050919050565b620012ce81620012af565b82525050565b6000602082019050620012eb6000830184620012c3565b92915050565b600080fd5b600080fd5b6000601f19601f8301169050919050565b7f4e487b7100000000000000000000000000000000000000000000000000000000600052604160045260246000fd5b6200134682620012fb565b810181811067ffffffffffffffff821117156200136857620013676200130c565b5b80604052505050565b60006200137d620010cf565b90506200138b82826200133b565b919050565b600067ffffffffffffffff821115620013ae57620013ad6200130c565b5b620013b982620012fb565b9050602081019050919050565b82818337600083830152505050565b6000620013ec620013e68462001390565b62001371565b9050828152602081018484840111156200140b576200140a620012f6565b5b62001418848285620013c6565b509392505050565b600082601f830112620014385762001437620012f1565b5b81356200144a848260208601620013d5565b91505092915050565b6000602082840312156200146c576200146b620010d9565b5b600082013567ffffffffffffffff8111156200148d576200148c620010de565b5b6200149b8482850162001420565b91505092915050565b620014af81620011f2565b82525050565b6000602082019050620014cc6000830184620014a4565b92915050565b620014dd81620010e3565b82525050565b6000602082019050620014fa6000830184620014d2565b92915050565b60008115159050919050565b620015178162001500565b82525050565b60006020820190506200153460008301846200150c565b92915050565b600081519050919050565b600082825260208201905092915050565b60005b838110156200157657808201518184015260208101905062001559565b8381111562001586576000848401525b50505050565b600062001599826200153a565b620015a5818562001545565b9350620015b781856020860162001556565b620015c281620012fb565b840191505092915050565b60006020820190508181036000830152620015e981846200158c565b905092915050565b600081519050919050565b600082825260208201905092915050565b6000819050602082019050919050565b6200162881620011f2565b82525050565b60006200163c83836200161d565b60208301905092915050565b6000602082019050919050565b60006200166282620015f1565b6200166e8185620015fc565b93506200167b836200160d565b8060005b83811015620016b25781516200169688826200162e565b9750620016a38362001648565b9250506001810190506200167f565b5085935050505092915050565b60006020820190508181036000830152620016db818462001655565b905092915050565b620016ee8162001165565b8114620016fa57600080fd5b50565b6000813590506200170e81620016e3565b92915050565b60008060006060848603121562001730576200172f620010d9565b5b60006200174086828701620016fd565b93505060206200175386828701620016fd565b9250506040620017668682870162001107565b9150509250925092565b7f4e6f7420726f756e642031000000000000000000000000000000000000000000600082015250565b6000620017a8600b8362001545565b9150620017b58262001770565b602082019050919050565b60006020820190508181036000830152620017db8162001799565b9050919050565b6000604082019050620017f96000830185620014d2565b620018086020830184620014d2565b9392505050565b6000606082019050620018266000830186620014a4565b620018356020830185620014d2565b620018446040830184620014d2565b949350505050565b7f4e487b7100000000000000000000000000000000000000000000000000000000600052601160045260246000fd5b6000620018888262001165565b915060008214156200189f576200189e6200184c565b5b600182039050919050565b6000604082019050620018c1600083018562001172565b620018d0602083018462001172565b9392505050565b7f4e6f7420726f756e642032000000000000000000000000000000000000000000600082015250565b60006200190f600b8362001545565b91506200191c82620018d7565b602082019050919050565b60006020820190508181036000830152620019428162001900565b9050919050565b6000604082019050620019606000830185620014a4565b6200196f6020830184620014d2565b9392505050565b7f43616e2774206a6f696e2061756374696f6e3a20636f6d6d697420737461676560008201527f206973206f766572000000000000000000000000000000000000000000000000602082015250565b6000620019d460288362001545565b9150620019e18262001976565b604082019050919050565b6000602082019050818103600083015262001a0781620019c5565b9050919050565b600062001a1b826200129b565b9050919050565b62001a2d8162001a0e565b82525050565b600060408201905062001a4a600083018562001a22565b818103602083015262001a5e81846200158c565b90509392505050565b600060408201905062001a7e6000830185620014a4565b818103602083015262001a9281846200158c565b90509392505050565b7f4e487b7100000000000000000000000000000000000000000000000000000000600052602260045260246000fd5b6000600282049050600182168062001ae357607f821691505b6020821081141562001afa5762001af962001a9b565b5b5091905056fe60806040523480156200001157600080fd5b50604051620010713803806200107183398181016040528101906200003791906200044b565b620000576200004b620000b960201b60201c565b620000c160201b60201c565b81600160006101000a81548173ffffffffffffffffffffffffffffffffffffffff021916908373ffffffffffffffffffffffffffffffffffffffff1602179055508060029080519060200190620000b092919062000185565b50505062000516565b600033905090565b60008060009054906101000a900473ffffffffffffffffffffffffffffffffffffffff169050816000806101000a81548173ffffffffffffffffffffffffffffffffffffffff021916908373ffffffffffffffffffffffffffffffffffffffff1602179055508173ffffffffffffffffffffffffffffffffffffffff168173ffffffffffffffffffffffffffffffffffffffff167f8be0079c531659141344cd1fd0a4f28419497f9722a3daafe3b4186f6b6457e060405160405180910390a35050565b8280546200019390620004e0565b90600052602060002090601f016020900481019282620001b7576000855562000203565b82601f10620001d257805160ff191683800117855562000203565b8280016001018555821562000203579182015b8281111562000202578251825591602001919060010190620001e5565b5b50905062000212919062000216565b5090565b5b808211156200023157600081600090555060010162000217565b5090565b6000604051905090565b600080fd5b600080fd5b600073ffffffffffffffffffffffffffffffffffffffff82169050919050565b6000620002768262000249565b9050919050565b60006200028a8262000269565b9050919050565b6200029c816200027d565b8114620002a857600080fd5b50565b600081519050620002bc8162000291565b92915050565b600080fd5b600080fd5b6000601f19601f8301169050919050565b7f4e487b7100000000000000000000000000000000000000000000000000000000600052604160045260246000fd5b6200031782620002cc565b810181811067ffffffffffffffff82111715620003395762000338620002dd565b5b80604052505050565b60006200034e62000235565b90506200035c82826200030c565b919050565b600067ffffffffffffffff8211156200037f576200037e620002dd565b5b6200038a82620002cc565b9050602081019050919050565b60005b83811015620003b75780820151818401526020810190506200039a565b83811115620003c7576000848401525b50505050565b6000620003e4620003de8462000361565b62000342565b905082815260208101848484011115620004035762000402620002c7565b5b6200041084828562000397565b509392505050565b600082601f83011262000430576200042f620002c2565b5b815162000442848260208601620003cd565b91505092915050565b600080604083850312156200046557620004646200023f565b5b60006200047585828601620002ab565b925050602083015167ffffffffffffffff81111562000499576200049862000244565b5b620004a78582860162000418565b9150509250929050565b7f4e487b7100000000000000000000000000000000000000000000000000000000600052602260045260246000fd5b60006002820490506001821680620004f957607f821691505b6020821081141562000510576200050f620004b1565b5b50919050565b610b4b80620005266000396000f3fe608060405234801561001057600080fd5b506004361061009e5760003560e01c80638da5cb5b116100665780638da5cb5b14610133578063a322211314610151578063cd580ff314610181578063f2fde38b146101b1578063fa6a6d36146101cd5761009e565b80631303a484146100a357806318253b32146100c15780632d30d9af146100dd5780634cfa0ad5146100f9578063715018a614610129575b600080fd5b6100ab6101eb565b6040516100b89190610793565b60405180910390f35b6100db60048036038101906100d691906107f0565b610279565b005b6100f760048036038101906100f29190610830565b61034b565b005b610113600480360381019061010e9190610830565b6103f3565b604051610120919061086c565b60405180910390f35b610131610417565b005b61013b61049f565b60405161014891906108c8565b60405180910390f35b61016b60048036038101906101669190610830565b6104c8565b604051610178919061086c565b60405180910390f35b61019b60048036038101906101969190610830565b6104ec565b6040516101a8919061086c565b60405180910390f35b6101cb60048036038101906101c6919061090f565b610510565b005b6101d5610608565b6040516101e2919061099b565b60405180910390f35b600280546101f8906109e5565b80601f0160208091040260200160405190810160405280929190818152602001828054610224906109e5565b80156102715780601f1061024657610100808354040283529160200191610271565b820191906000526020600020905b81548152906001019060200180831161025457829003601f168201915b505050505081565b61028161062e565b73ffffffffffffffffffffffffffffffffffffffff1661029f61049f565b73ffffffffffffffffffffffffffffffffffffffff16146102f5576040517f08c379a00000000000000000000000000000000000000000000000000000000081526004016102ec90610a63565b60405180910390fd5b600382908060018154018082558091505060019003906000526020600020016000909190919091505560048190806001815401808255809150506001900390600052602060002001600090919091909150555050565b61035361062e565b73ffffffffffffffffffffffffffffffffffffffff1661037161049f565b73ffffffffffffffffffffffffffffffffffffffff16146103c7576040517f08c379a00000000000000000000000000000000000000000000000000000000081526004016103be90610a63565b60405180910390fd5b600581908060018154018082558091505060019003906000526020600020016000909190919091505550565b6004818154811061040357600080fd5b906000526020600020016000915090505481565b61041f61062e565b73ffffffffffffffffffffffffffffffffffffffff1661043d61049f565b73ffffffffffffffffffffffffffffffffffffffff1614610493576040517f08c379a000000000000000000000000000000000000000000000000000000000815260040161048a90610a63565b60405180910390fd5b61049d6000610636565b565b60008060009054906101000a900473ffffffffffffffffffffffffffffffffffffffff16905090565b600381815481106104d857600080fd5b906000526020600020016000915090505481565b600581815481106104fc57600080fd5b906000526020600020016000915090505481565b61051861062e565b73ffffffffffffffffffffffffffffffffffffffff1661053661049f565b73ffffffffffffffffffffffffffffffffffffffff161461058c576040517f08c379a000000000000000000000000000000000000000000000000000000000815260040161058390610a63565b60405180910390fd5b600073ffffffffffffffffffffffffffffffffffffffff168173ffffffffffffffffffffffffffffffffffffffff1614156105fc576040517f08c379a00000000000000000000000000000000000000000000000000000000081526004016105f390610af5565b60405180910390fd5b61060581610636565b50565b600160009054906101000a900473ffffffffffffffffffffffffffffffffffffffff1681565b600033905090565b60008060009054906101000a900473ffffffffffffffffffffffffffffffffffffffff169050816000806101000a81548173ffffffffffffffffffffffffffffffffffffffff021916908373ffffffffffffffffffffffffffffffffffffffff1602179055508173ffffffffffffffffffffffffffffffffffffffff168173ffffffffffffffffffffffffffffffffffffffff167f8be0079c531659141344cd1fd0a4f28419497f9722a3daafe3b4186f6b6457e060405160405180910390a35050565b600081519050919050565b600082825260208201905092915050565b60005b83811015610734578082015181840152602081019050610719565b83811115610743576000848401525b50505050565b6000601f19601f8301169050919050565b6000610765826106fa565b61076f8185610705565b935061077f818560208601610716565b61078881610749565b840191505092915050565b600060208201905081810360008301526107ad818461075a565b905092915050565b600080fd5b6000819050919050565b6107cd816107ba565b81146107d857600080fd5b50565b6000813590506107ea816107c4565b92915050565b60008060408385031215610807576108066107b5565b5b6000610815858286016107db565b9250506020610826858286016107db565b9150509250929050565b600060208284031215610846576108456107b5565b5b6000610854848285016107db565b91505092915050565b610866816107ba565b82525050565b6000602082019050610881600083018461085d565b92915050565b600073ffffffffffffffffffffffffffffffffffffffff82169050919050565b60006108b282610887565b9050919050565b6108c2816108a7565b82525050565b60006020820190506108dd60008301846108b9565b92915050565b6108ec816108a7565b81146108f757600080fd5b50565b600081359050610909816108e3565b92915050565b600060208284031215610925576109246107b5565b5b6000610933848285016108fa565b91505092915050565b6000819050919050565b600061096161095c61095784610887565b61093c565b610887565b9050919050565b600061097382610946565b9050919050565b600061098582610968565b9050919050565b6109958161097a565b82525050565b60006020820190506109b0600083018461098c565b92915050565b7f4e487b7100000000000000000000000000000000000000000000000000000000600052602260045260246000fd5b600060028204905060018216806109fd57607f821691505b60208210811415610a1157610a106109b6565b5b50919050565b7f4f776e61626c653a2063616c6c6572206973206e6f7420746865206f776e6572600082015250565b6000610a4d602083610705565b9150610a5882610a17565b602082019050919050565b60006020820190508181036000830152610a7c81610a40565b9050919050565b7f4f776e61626c653a206e6577206f776e657220697320746865207a65726f206160008201527f6464726573730000000000000000000000000000000000000000000000000000602082015250565b6000610adf602683610705565b9150610aea82610a83565b604082019050919050565b60006020820190508181036000830152610b0e81610ad2565b905091905056fea264697066735822122055ee438602cef0be22565a8f72838f5b1f7e8dd5cb5a60a119ce3f7ef4870ffc64736f6c634300080a0033a2646970667358221220933e8919287dc40676d1dbc2c73dc18d9f304b457d47c5a143d98aeff907340264736f6c634300080a0033",
  "immutableReferences": {},
  "source": "// SPDX-License-Identifier: MIT\npragma solidity >=0.4.22 <0.9.0;\n\nimport \"@openzeppelin/contracts/access/Ownable.sol\";\n\n// Improve: Use Event&Log to store Bidder information\ncontract Bidder is Ownable {\n    Auction public auctionAddr;\n    string public commitment; // JSON\n\n    uint256[] public gx; // round 1 (start from MSB)\n    uint256[] public gr; // round 1 (start from MSB)\n    uint256[] public b; // round 2 (start from MSB)\n\n    constructor(\n        Auction _auctionAddr,\n        string memory _commitment\n    ) {\n        auctionAddr = _auctionAddr;\n        commitment = _commitment;\n    }\n\n    function round1(uint256 _gx, uint256 _gr) public onlyOwner {\n        // TODO: check already submit case\n        gx.push(_gx);\n        gr.push(_gr);\n    }\n\n    function round2(uint256 _b) public onlyOwner {\n        // TODO: check already submit case\n        b.push(_b);\n    }\n}\n\ncontract Auction {\n    address public auctioneer;\n\n    // auction parameters\n    string public auctionName;\n    string public auctionDesc;\n    uint8 public bitLen = 4;\n    address[] public bidders;\n    mapping(address => Bidder) public bidderContractMap;\n\n    // group parameters\n    uint256 public q;\n    uint256 public p;\n    uint256 public g;\n\n    // state maintain parameters\n    bool public mpcStartFlag = false;\n    uint8 public curBit = bitLen - 1;\n    uint8 public curRound = 1;\n    mapping(uint8 => mapping(uint8 => address[])) public roundBidders;\n\n    event JoinAuctionEvent(address sender, string commitment);\n    event Round1Notification(address sender, uint256 gx, uint256 gr);\n    event Round2Notification(address sender, uint256 b);\n    event RoundEndNotification(uint8 curBit, uint8 curRound);\n\n    uint256 public commitDeadline;\n\n    constructor(\n        string memory _auctionName,\n        string memory _auctionDesc,\n        address _auctioneer,\n        uint256 _relCommitDeadlineSec,\n        uint256 _q,\n        uint256 _p,\n        uint256 _g\n    ) {\n        auctionName = _auctionName;\n        auctionDesc = _auctionDesc;\n        auctioneer = _auctioneer;\n        commitDeadline = block.timestamp + _relCommitDeadlineSec;\n        q = _q;\n        p = _p;\n        g = _g;\n    }\n\n    modifier mpcStart() {\n        require(\n            mpcStartFlag == true ||\n                (mpcStartFlag == false && block.timestamp > commitDeadline)\n        );\n\n        // start auction\n        if (mpcStartFlag == false && block.timestamp > commitDeadline) {\n            mpcStartFlag = true;\n        }\n        _;\n    }\n\n    modifier updateState() {\n        _;\n        roundBidders[curBit][curRound].push(msg.sender);\n        // move to next round\n        if (roundEnd()) {\n            if (curRound == 1) {\n                curRound = 2;\n            } else if (curRound == 2) {\n                curBit--;\n                curRound = 1;\n            }\n            emit RoundEndNotification(curBit, curRound);\n        }\n    }\n\n    function getBidders() public view returns (address[] memory) {\n        return bidders;\n    }\n\n    function roundEnd() public view returns (bool) {\n        return roundBidders[curBit][curRound].length == bidders.length;\n    }\n\n    function joinAuction(string memory commitment) public returns (Bidder) {\n        require(\n            block.timestamp <= commitDeadline,\n            \"Can't join auction: commit stage is over\"\n        );\n        Bidder newBidder = new Bidder(this, commitment);\n        bidderContractMap[msg.sender] = newBidder;\n        bidders.push(msg.sender);\n\n        emit JoinAuctionEvent(msg.sender, commitment);\n\n        return newBidder;\n    }\n\n    function round1(uint256 _gx, uint256 _gr) public mpcStart updateState {\n        require(curRound == 1, \"Not round 1\");\n        bidderContractMap[msg.sender].round1(_gx, _gr);\n        emit Round1Notification(msg.sender, _gx, _gr);\n    }\n\n    function round2(uint256 _b) public mpcStart updateState {\n        require(curRound == 2, \"Not round 2\");\n        bidderContractMap[msg.sender].round2(_b);\n        emit Round2Notification(msg.sender, _b);\n    }\n}\n\ncontract Main {\n    address public owner = msg.sender;\n    Auction[] public auctions;\n\n    function getAuctions() public view returns (Auction[] memory) {\n        return auctions;\n    }\n\n    function createAuction(\n        string memory _auctionName,\n        string memory _auctionDesc,\n        uint256 _relCommitDeadlineSec,\n        uint256 _q,\n        uint256 _p,\n        uint256 _g\n    ) public returns (Auction) {\n        require(bytes(_auctionName).length > 0);\n        // TODO: check group is valid (require efficient implementation of exponentiation)\n        // 1. p = q * r + 1\n        // 2. g = h^r mod p\n        // 3. g^q = 1 mod p\n\n        Auction newAuction = new Auction(\n            _auctionName,\n            _auctionDesc,\n            msg.sender,\n            _relCommitDeadlineSec,\n            _q,\n            _p,\n            _g\n        );\n        auctions.push(newAuction);\n\n        return newAuction;\n    }\n}\n",
  "sourcePath": "/Users/ykzheng/Projects/SEAL-Bid-Auction/smart-contract/contracts/Main.sol",
  "compiler": {
    "name": "solc",
    "version": "0.8.10+commit.fc410830.Emscripten.clang"
  },
  "schemaVersion": "3.4.4",
  "updatedAt": "2022-01-12T16:59:31.848Z",
  "devdoc": {
    "kind": "dev",
    "methods": {},
    "version": 1
  },
  "userdoc": {
    "kind": "user",
    "methods": {},
    "version": 1
  }
}