{
  "contractName": "Auction",
  "abi": [
    {
      "inputs": [
        {
          "internalType": "string",
          "name": "_auctionName",
          "type": "string"
        },
        {
          "internalType": "address",
          "name": "_auctioneer",
          "type": "address"
        },
        {
          "internalType": "uint256",
          "name": "_relCommitDeadlineSec",
          "type": "uint256"
        },
        {
          "internalType": "uint256",
          "name": "_q",
          "type": "uint256"
        },
        {
          "internalType": "uint256",
          "name": "_r",
          "type": "uint256"
        },
        {
          "internalType": "uint256",
          "name": "_p",
          "type": "uint256"
        },
        {
          "internalType": "uint256",
          "name": "_h",
          "type": "uint256"
        },
        {
          "internalType": "uint256",
          "name": "_g",
          "type": "uint256"
        }
      ],
      "stateMutability": "nonpayable",
      "type": "constructor"
    },
    {
      "anonymous": false,
      "inputs": [
        {
          "indexed": false,
          "internalType": "address",
          "name": "sender",
          "type": "address"
        },
        {
          "indexed": false,
          "internalType": "uint256",
          "name": "gx",
          "type": "uint256"
        },
        {
          "indexed": false,
          "internalType": "uint256",
          "name": "gr",
          "type": "uint256"
        }
      ],
      "name": "Round1Notification",
      "type": "event"
    },
    {
      "anonymous": false,
      "inputs": [
        {
          "indexed": false,
          "internalType": "address",
          "name": "sender",
          "type": "address"
        },
        {
          "indexed": false,
          "internalType": "uint256",
          "name": "b",
          "type": "uint256"
        }
      ],
      "name": "Round2Notification",
      "type": "event"
    },
    {
      "anonymous": false,
      "inputs": [
        {
          "indexed": false,
          "internalType": "uint8",
          "name": "curBit",
          "type": "uint8"
        },
        {
          "indexed": false,
          "internalType": "uint8",
          "name": "curRound",
          "type": "uint8"
        }
      ],
      "name": "RoundEndNotification",
      "type": "event"
    },
    {
      "inputs": [],
      "name": "auctionName",
      "outputs": [
        {
          "internalType": "string",
          "name": "",
          "type": "string"
        }
      ],
      "stateMutability": "view",
      "type": "function"
    },
    {
      "inputs": [],
      "name": "auctioneer",
      "outputs": [
        {
          "internalType": "address",
          "name": "",
          "type": "address"
        }
      ],
      "stateMutability": "view",
      "type": "function"
    },
    {
      "inputs": [
        {
          "internalType": "address",
          "name": "",
          "type": "address"
        }
      ],
      "name": "bidderContractMap",
      "outputs": [
        {
          "internalType": "contract Bidder",
          "name": "",
          "type": "address"
        }
      ],
      "stateMutability": "view",
      "type": "function"
    },
    {
      "inputs": [
        {
          "internalType": "uint256",
          "name": "",
          "type": "uint256"
        }
      ],
      "name": "bidders",
      "outputs": [
        {
          "internalType": "address",
          "name": "",
          "type": "address"
        }
      ],
      "stateMutability": "view",
      "type": "function"
    },
    {
      "inputs": [],
      "name": "bitLen",
      "outputs": [
        {
          "internalType": "uint8",
          "name": "",
          "type": "uint8"
        }
      ],
      "stateMutability": "view",
      "type": "function"
    },
    {
      "inputs": [],
      "name": "commitDeadline",
      "outputs": [
        {
          "internalType": "uint256",
          "name": "",
          "type": "uint256"
        }
      ],
      "stateMutability": "view",
      "type": "function"
    },
    {
      "inputs": [],
      "name": "curBit",
      "outputs": [
        {
          "internalType": "uint8",
          "name": "",
          "type": "uint8"
        }
      ],
      "stateMutability": "view",
      "type": "function"
    },
    {
      "inputs": [],
      "name": "curRound",
      "outputs": [
        {
          "internalType": "uint8",
          "name": "",
          "type": "uint8"
        }
      ],
      "stateMutability": "view",
      "type": "function"
    },
    {
      "inputs": [],
      "name": "g",
      "outputs": [
        {
          "internalType": "uint256",
          "name": "",
          "type": "uint256"
        }
      ],
      "stateMutability": "view",
      "type": "function"
    },
    {
      "inputs": [],
      "name": "h",
      "outputs": [
        {
          "internalType": "uint256",
          "name": "",
          "type": "uint256"
        }
      ],
      "stateMutability": "view",
      "type": "function"
    },
    {
      "inputs": [],
      "name": "mpcStartFlag",
      "outputs": [
        {
          "internalType": "bool",
          "name": "",
          "type": "bool"
        }
      ],
      "stateMutability": "view",
      "type": "function"
    },
    {
      "inputs": [],
      "name": "p",
      "outputs": [
        {
          "internalType": "uint256",
          "name": "",
          "type": "uint256"
        }
      ],
      "stateMutability": "view",
      "type": "function"
    },
    {
      "inputs": [],
      "name": "q",
      "outputs": [
        {
          "internalType": "uint256",
          "name": "",
          "type": "uint256"
        }
      ],
      "stateMutability": "view",
      "type": "function"
    },
    {
      "inputs": [],
      "name": "r",
      "outputs": [
        {
          "internalType": "uint256",
          "name": "",
          "type": "uint256"
        }
      ],
      "stateMutability": "view",
      "type": "function"
    },
    {
      "inputs": [
        {
          "internalType": "uint8",
          "name": "",
          "type": "uint8"
        },
        {
          "internalType": "uint8",
          "name": "",
          "type": "uint8"
        },
        {
          "internalType": "uint256",
          "name": "",
          "type": "uint256"
        }
      ],
      "name": "roundBidders",
      "outputs": [
        {
          "internalType": "address",
          "name": "",
          "type": "address"
        }
      ],
      "stateMutability": "view",
      "type": "function"
    },
    {
      "inputs": [],
      "name": "getBidders",
      "outputs": [
        {
          "internalType": "address[]",
          "name": "",
          "type": "address[]"
        }
      ],
      "stateMutability": "view",
      "type": "function"
    },
    {
      "inputs": [],
      "name": "roundEnd",
      "outputs": [
        {
          "internalType": "bool",
          "name": "",
          "type": "bool"
        }
      ],
      "stateMutability": "view",
      "type": "function"
    },
    {
      "inputs": [
        {
          "internalType": "uint256[]",
          "name": "_ga",
          "type": "uint256[]"
        },
        {
          "internalType": "uint256[]",
          "name": "_gb",
          "type": "uint256[]"
        },
        {
          "internalType": "uint256[]",
          "name": "_gp",
          "type": "uint256[]"
        }
      ],
      "name": "joinAuction",
      "outputs": [
        {
          "internalType": "contract Bidder",
          "name": "",
          "type": "address"
        }
      ],
      "stateMutability": "nonpayable",
      "type": "function"
    },
    {
      "inputs": [
        {
          "internalType": "uint256",
          "name": "_gx",
          "type": "uint256"
        },
        {
          "internalType": "uint256",
          "name": "_gr",
          "type": "uint256"
        }
      ],
      "name": "round1",
      "outputs": [],
      "stateMutability": "nonpayable",
      "type": "function"
    },
    {
      "inputs": [
        {
          "internalType": "uint256",
          "name": "_b",
          "type": "uint256"
        }
      ],
      "name": "round2",
      "outputs": [],
      "stateMutability": "nonpayable",
      "type": "function"
    }
  ],
  "bytecode": "0x60806040526004600260006101000a81548160ff021916908360ff1602179055506000600a60006101000a81548160ff0219169083151502179055506001600260009054906101000a900460ff166200005991906200024c565b600a60016101000a81548160ff021916908360ff1602179055506001600a60026101000a81548160ff021916908360ff1602179055503480156200009c57600080fd5b5060405162003380380380620033808339818101604052810190620000c29190620004c4565b8760019080519060200190620000da92919062000160565b50866000806101000a81548173ffffffffffffffffffffffffffffffffffffffff021916908373ffffffffffffffffffffffffffffffffffffffff1602179055508542620001299190620005ac565b600c81905550846005819055508360068190555082600781905550816008819055508060098190555050505050505050506200066e565b8280546200016e9062000638565b90600052602060002090601f016020900481019282620001925760008555620001de565b82601f10620001ad57805160ff1916838001178555620001de565b82800160010185558215620001de579182015b82811115620001dd578251825591602001919060010190620001c0565b5b509050620001ed9190620001f1565b5090565b5b808211156200020c576000816000905550600101620001f2565b5090565b600060ff82169050919050565b7f4e487b7100000000000000000000000000000000000000000000000000000000600052601160045260246000fd5b6000620002598262000210565b9150620002668362000210565b9250828210156200027c576200027b6200021d565b5b828203905092915050565b6000604051905090565b600080fd5b600080fd5b600080fd5b600080fd5b6000601f19601f8301169050919050565b7f4e487b7100000000000000000000000000000000000000000000000000000000600052604160045260246000fd5b620002f082620002a5565b810181811067ffffffffffffffff82111715620003125762000311620002b6565b5b80604052505050565b60006200032762000287565b9050620003358282620002e5565b919050565b600067ffffffffffffffff821115620003585762000357620002b6565b5b6200036382620002a5565b9050602081019050919050565b60005b838110156200039057808201518184015260208101905062000373565b83811115620003a0576000848401525b50505050565b6000620003bd620003b7846200033a565b6200031b565b905082815260208101848484011115620003dc57620003db620002a0565b5b620003e984828562000370565b509392505050565b600082601f8301126200040957620004086200029b565b5b81516200041b848260208601620003a6565b91505092915050565b600073ffffffffffffffffffffffffffffffffffffffff82169050919050565b6000620004518262000424565b9050919050565b620004638162000444565b81146200046f57600080fd5b50565b600081519050620004838162000458565b92915050565b6000819050919050565b6200049e8162000489565b8114620004aa57600080fd5b50565b600081519050620004be8162000493565b92915050565b600080600080600080600080610100898b031215620004e857620004e762000291565b5b600089015167ffffffffffffffff81111562000509576200050862000296565b5b620005178b828c01620003f1565b98505060206200052a8b828c0162000472565b97505060406200053d8b828c01620004ad565b9650506060620005508b828c01620004ad565b9550506080620005638b828c01620004ad565b94505060a0620005768b828c01620004ad565b93505060c0620005898b828c01620004ad565b92505060e06200059c8b828c01620004ad565b9150509295985092959890939650565b6000620005b98262000489565b9150620005c68362000489565b9250827fffffffffffffffffffffffffffffffffffffffffffffffffffffffffffffffff03821115620005fe57620005fd6200021d565b5b828201905092915050565b7f4e487b7100000000000000000000000000000000000000000000000000000000600052602260045260246000fd5b600060028204905060018216806200065157607f821691505b6020821081141562000668576200066762000609565b5b50919050565b612d02806200067e6000396000f3fe60806040523480156200001157600080fd5b5060043610620001485760003560e01c8063b3f7584311620000bd578063cff29dfd116200007b578063cff29dfd146200036f578063dbfb608914620003a5578063dddb52f514620003c7578063e2179b8e14620003fd578063fd3ab282146200041f5762000148565b8063b3f7584314620002c5578063b8c9d36514620002e7578063c02e580e1462000309578063c63d99db146200032b578063cb6632ef146200034d5762000148565b80635ec2c7bf116200010b5780635ec2c7bf146200021b5780636c8ae38c146200023d5780636e962f02146200025f5780639ae8886a1462000281578063a2ff020914620002a35762000148565b8063110f7584146200014d57806318253b3214620001835780632356896514620001a35780632d30d9af14620001c55780632d73a56c14620001e5575b600080fd5b6200016b600480360381019062000165919062001298565b62000441565b6040516200017a9190620013dc565b60405180910390f35b620001a160048036038101906200019b9190620013f9565b62000650565b005b620001ad62000a19565b604051620001bc91906200145e565b60405180910390f35b620001e36004803603810190620001dd91906200147b565b62000a2c565b005b620002036004803603810190620001fd9190620014f2565b62000df0565b604051620002129190620013dc565b60405180910390f35b6200022562000e23565b60405162000234919062001535565b60405180910390f35b6200024762000e47565b60405162000256919062001563565b60405180910390f35b6200026962000e4d565b6040516200027891906200145e565b60405180910390f35b6200028b62000e60565b6040516200029a919062001563565b60405180910390f35b620002ad62000e66565b604051620002bc919062001563565b60405180910390f35b620002cf62000e6c565b604051620002de91906200145e565b60405180910390f35b620002f162000e7f565b60405162000300919062001563565b60405180910390f35b6200031362000e85565b6040516200032291906200159d565b60405180910390f35b6200033562000ee5565b6040516200034491906200164d565b60405180910390f35b6200035762000f7b565b6040516200036691906200173f565b60405180910390f35b6200038d60048036038101906200038791906200147b565b6200100b565b6040516200039c919062001535565b60405180910390f35b620003af6200104b565b604051620003be91906200159d565b60405180910390f35b620003e56004803603810190620003df919062001794565b6200105e565b604051620003f4919062001535565b60405180910390f35b62000407620010ba565b60405162000416919062001563565b60405180910390f35b62000429620010c0565b60405162000438919062001563565b60405180910390f35b6000600c544211156200048b576040517f08c379a0000000000000000000000000000000000000000000000000000000008152600401620004829062001866565b60405180910390fd5b600260009054906101000a900460ff1660ff168451148015620004c05750600260009054906101000a900460ff1660ff168351145b8015620004df5750600260009054906101000a900460ff1660ff168251145b62000521576040517f08c379a00000000000000000000000000000000000000000000000000000000081526004016200051890620018fe565b60405180910390fd5b6000308585856040516200053590620010c6565b62000544949392919062001a13565b604051809103906000f08015801562000561573d6000803e3d6000fd5b50905080600460003373ffffffffffffffffffffffffffffffffffffffff1673ffffffffffffffffffffffffffffffffffffffff16815260200190815260200160002060006101000a81548173ffffffffffffffffffffffffffffffffffffffff021916908373ffffffffffffffffffffffffffffffffffffffff1602179055506003339080600181540180825580915050600190039060005260206000200160009091909190916101000a81548173ffffffffffffffffffffffffffffffffffffffff021916908373ffffffffffffffffffffffffffffffffffffffff160217905550809150509392505050565b60011515600a60009054906101000a900460ff161515148062000694575060001515600a60009054906101000a900460ff161515148015620006935750600c5442115b5b6200069e57600080fd5b60001515600a60009054906101000a900460ff161515148015620006c35750600c5442115b15620006e5576001600a60006101000a81548160ff0219169083151502179055505b6001600a60029054906101000a900460ff1660ff16146200073d576040517f08c379a0000000000000000000000000000000000000000000000000000000008152600401620007349062001ac5565b60405180910390fd5b600460003373ffffffffffffffffffffffffffffffffffffffff1673ffffffffffffffffffffffffffffffffffffffff16815260200190815260200160002060009054906101000a900473ffffffffffffffffffffffffffffffffffffffff1673ffffffffffffffffffffffffffffffffffffffff166318253b3283836040518363ffffffff1660e01b8152600401620007d992919062001ae7565b600060405180830381600087803b158015620007f457600080fd5b505af115801562000809573d6000803e3d6000fd5b505050507fbce404a6daf2841fa8654a064509cfeb0db7711a83206b37629370025c0d0e85338383604051620008429392919062001b14565b60405180910390a1600b6000600a60019054906101000a900460ff1660ff1660ff1681526020019081526020016000206000600a60029054906101000a900460ff1660ff1660ff168152602001908152602001600020339080600181540180825580915050600190039060005260206000200160009091909190916101000a81548173ffffffffffffffffffffffffffffffffffffffff021916908373ffffffffffffffffffffffffffffffffffffffff1602179055506200090362000e85565b1562000a15576001600a60029054906101000a900460ff1660ff16141562000947576002600a60026101000a81548160ff021916908360ff160217905550620009bb565b6002600a60029054906101000a900460ff1660ff161415620009ba57600a600181819054906101000a900460ff1680929190620009849062001b80565b91906101000a81548160ff021916908360ff160217905550506001600a60026101000a81548160ff021916908360ff1602179055505b5b7f89d4bd91a1b522f70e516351721176ee7ffdd2dad610c755dbcab987191acb1d600a60019054906101000a900460ff16600a60029054906101000a900460ff1660405162000a0c92919062001baf565b60405180910390a15b5050565b600260009054906101000a900460ff1681565b60011515600a60009054906101000a900460ff161515148062000a70575060001515600a60009054906101000a900460ff16151514801562000a6f5750600c5442115b5b62000a7a57600080fd5b60001515600a60009054906101000a900460ff16151514801562000a9f5750600c5442115b1562000ac1576001600a60006101000a81548160ff0219169083151502179055505b6002600a60029054906101000a900460ff1660ff161462000b19576040517f08c379a000000000000000000000000000000000000000000000000000000000815260040162000b109062001c2c565b60405180910390fd5b600460003373ffffffffffffffffffffffffffffffffffffffff1673ffffffffffffffffffffffffffffffffffffffff16815260200190815260200160002060009054906101000a900473ffffffffffffffffffffffffffffffffffffffff1673ffffffffffffffffffffffffffffffffffffffff16632d30d9af826040518263ffffffff1660e01b815260040162000bb3919062001563565b600060405180830381600087803b15801562000bce57600080fd5b505af115801562000be3573d6000803e3d6000fd5b505050507f61e6856509dad6acd9acbba7a080f6a9b69805b5f8cabcc4cb73bb4646c5a036338260405162000c1a92919062001c4e565b60405180910390a1600b6000600a60019054906101000a900460ff1660ff1660ff1681526020019081526020016000206000600a60029054906101000a900460ff1660ff1660ff168152602001908152602001600020339080600181540180825580915050600190039060005260206000200160009091909190916101000a81548173ffffffffffffffffffffffffffffffffffffffff021916908373ffffffffffffffffffffffffffffffffffffffff16021790555062000cdb62000e85565b1562000ded576001600a60029054906101000a900460ff1660ff16141562000d1f576002600a60026101000a81548160ff021916908360ff16021790555062000d93565b6002600a60029054906101000a900460ff1660ff16141562000d9257600a600181819054906101000a900460ff168092919062000d5c9062001b80565b91906101000a81548160ff021916908360ff160217905550506001600a60026101000a81548160ff021916908360ff1602179055505b5b7f89d4bd91a1b522f70e516351721176ee7ffdd2dad610c755dbcab987191acb1d600a60019054906101000a900460ff16600a60029054906101000a900460ff1660405162000de492919062001baf565b60405180910390a15b50565b60046020528060005260406000206000915054906101000a900473ffffffffffffffffffffffffffffffffffffffff1681565b60008054906101000a900473ffffffffffffffffffffffffffffffffffffffff1681565b60065481565b600a60019054906101000a900460ff1681565b60075481565b600c5481565b600a60029054906101000a900460ff1681565b60085481565b6000600380549050600b6000600a60019054906101000a900460ff1660ff1660ff1681526020019081526020016000206000600a60029054906101000a900460ff1660ff1660ff1681526020019081526020016000208054905014905090565b6001805462000ef49062001caa565b80601f016020809104026020016040519081016040528092919081815260200182805462000f229062001caa565b801562000f735780601f1062000f475761010080835404028352916020019162000f73565b820191906000526020600020905b81548152906001019060200180831162000f5557829003601f168201915b505050505081565b606060038054806020026020016040519081016040528092919081815260200182805480156200100157602002820191906000526020600020905b8160009054906101000a900473ffffffffffffffffffffffffffffffffffffffff1673ffffffffffffffffffffffffffffffffffffffff168152602001906001019080831162000fb6575b5050505050905090565b600381815481106200101c57600080fd5b906000526020600020016000915054906101000a900473ffffffffffffffffffffffffffffffffffffffff1681565b600a60009054906101000a900460ff1681565b600b60205282600052604060002060205281600052604060002081815481106200108757600080fd5b90600052602060002001600092509250509054906101000a900473ffffffffffffffffffffffffffffffffffffffff1681565b60095481565b60055481565b610fec8062001ce183390190565b6000604051905090565b600080fd5b600080fd5b600080fd5b6000601f19601f8301169050919050565b7f4e487b7100000000000000000000000000000000000000000000000000000000600052604160045260246000fd5b6200113882620010ed565b810181811067ffffffffffffffff821117156200115a5762001159620010fe565b5b80604052505050565b60006200116f620010d4565b90506200117d82826200112d565b919050565b600067ffffffffffffffff821115620011a0576200119f620010fe565b5b602082029050602081019050919050565b600080fd5b6000819050919050565b620011cb81620011b6565b8114620011d757600080fd5b50565b600081359050620011eb81620011c0565b92915050565b600062001208620012028462001182565b62001163565b905080838252602082019050602084028301858111156200122e576200122d620011b1565b5b835b818110156200125b5780620012468882620011da565b84526020840193505060208101905062001230565b5050509392505050565b600082601f8301126200127d576200127c620010e8565b5b81356200128f848260208601620011f1565b91505092915050565b600080600060608486031215620012b457620012b3620010de565b5b600084013567ffffffffffffffff811115620012d557620012d4620010e3565b5b620012e38682870162001265565b935050602084013567ffffffffffffffff811115620013075762001306620010e3565b5b620013158682870162001265565b925050604084013567ffffffffffffffff811115620013395762001338620010e3565b5b620013478682870162001265565b9150509250925092565b600073ffffffffffffffffffffffffffffffffffffffff82169050919050565b6000819050919050565b60006200139c62001396620013908462001351565b62001371565b62001351565b9050919050565b6000620013b0826200137b565b9050919050565b6000620013c482620013a3565b9050919050565b620013d681620013b7565b82525050565b6000602082019050620013f36000830184620013cb565b92915050565b60008060408385031215620014135762001412620010de565b5b60006200142385828601620011da565b92505060206200143685828601620011da565b9150509250929050565b600060ff82169050919050565b620014588162001440565b82525050565b60006020820190506200147560008301846200144d565b92915050565b600060208284031215620014945762001493620010de565b5b6000620014a484828501620011da565b91505092915050565b6000620014ba8262001351565b9050919050565b620014cc81620014ad565b8114620014d857600080fd5b50565b600081359050620014ec81620014c1565b92915050565b6000602082840312156200150b576200150a620010de565b5b60006200151b84828501620014db565b91505092915050565b6200152f81620014ad565b82525050565b60006020820190506200154c600083018462001524565b92915050565b6200155d81620011b6565b82525050565b60006020820190506200157a600083018462001552565b92915050565b60008115159050919050565b620015978162001580565b82525050565b6000602082019050620015b460008301846200158c565b92915050565b600081519050919050565b600082825260208201905092915050565b60005b83811015620015f6578082015181840152602081019050620015d9565b8381111562001606576000848401525b50505050565b60006200161982620015ba565b620016258185620015c5565b935062001637818560208601620015d6565b6200164281620010ed565b840191505092915050565b600060208201905081810360008301526200166981846200160c565b905092915050565b600081519050919050565b600082825260208201905092915050565b6000819050602082019050919050565b620016a881620014ad565b82525050565b6000620016bc83836200169d565b60208301905092915050565b6000602082019050919050565b6000620016e28262001671565b620016ee81856200167c565b9350620016fb836200168d565b8060005b8381101562001732578151620017168882620016ae565b97506200172383620016c8565b925050600181019050620016ff565b5085935050505092915050565b600060208201905081810360008301526200175b8184620016d5565b905092915050565b6200176e8162001440565b81146200177a57600080fd5b50565b6000813590506200178e8162001763565b92915050565b600080600060608486031215620017b057620017af620010de565b5b6000620017c0868287016200177d565b9350506020620017d3868287016200177d565b9250506040620017e686828701620011da565b9150509250925092565b7f43616e2774206a6f696e2061756374696f6e3a20636f6d6d697420737461676560008201527f206973206f766572000000000000000000000000000000000000000000000000602082015250565b60006200184e602883620015c5565b91506200185b82620017f0565b604082019050919050565b6000602082019050818103600083015262001881816200183f565b9050919050565b7f43616e2774206a6f696e2061756374696f6e3a20626974206c656e677468206960008201527f73206e6f74206d61746368656400000000000000000000000000000000000000602082015250565b6000620018e6602d83620015c5565b9150620018f38262001888565b604082019050919050565b600060208201905081810360008301526200191981620018d7565b9050919050565b60006200192d82620013a3565b9050919050565b6200193f8162001920565b82525050565b600081519050919050565b600082825260208201905092915050565b6000819050602082019050919050565b6200197c81620011b6565b82525050565b600062001990838362001971565b60208301905092915050565b6000602082019050919050565b6000620019b68262001945565b620019c2818562001950565b9350620019cf8362001961565b8060005b8381101562001a06578151620019ea888262001982565b9750620019f7836200199c565b925050600181019050620019d3565b5085935050505092915050565b600060808201905062001a2a600083018762001934565b818103602083015262001a3e8186620019a9565b9050818103604083015262001a548185620019a9565b9050818103606083015262001a6a8184620019a9565b905095945050505050565b7f4e6f7420726f756e642031000000000000000000000000000000000000000000600082015250565b600062001aad600b83620015c5565b915062001aba8262001a75565b602082019050919050565b6000602082019050818103600083015262001ae08162001a9e565b9050919050565b600060408201905062001afe600083018562001552565b62001b0d602083018462001552565b9392505050565b600060608201905062001b2b600083018662001524565b62001b3a602083018562001552565b62001b49604083018462001552565b949350505050565b7f4e487b7100000000000000000000000000000000000000000000000000000000600052601160045260246000fd5b600062001b8d8262001440565b9150600082141562001ba45762001ba362001b51565b5b600182039050919050565b600060408201905062001bc660008301856200144d565b62001bd560208301846200144d565b9392505050565b7f4e6f7420726f756e642032000000000000000000000000000000000000000000600082015250565b600062001c14600b83620015c5565b915062001c218262001bdc565b602082019050919050565b6000602082019050818103600083015262001c478162001c05565b9050919050565b600060408201905062001c65600083018562001524565b62001c74602083018462001552565b9392505050565b7f4e487b7100000000000000000000000000000000000000000000000000000000600052602260045260246000fd5b6000600282049050600182168062001cc357607f821691505b6020821081141562001cda5762001cd962001c7b565b5b5091905056fe60806040523480156200001157600080fd5b5060405162000fec38038062000fec833981810160405281019062000037919062000467565b620000576200004b620000ed60201b60201c565b620000f560201b60201c565b83600160006101000a81548173ffffffffffffffffffffffffffffffffffffffff021916908373ffffffffffffffffffffffffffffffffffffffff1602179055508260029080519060200190620000b0929190620001b9565b508160039080519060200190620000c9929190620001b9565b508060049080519060200190620000e2929190620001b9565b505050505062000536565b600033905090565b60008060009054906101000a900473ffffffffffffffffffffffffffffffffffffffff169050816000806101000a81548173ffffffffffffffffffffffffffffffffffffffff021916908373ffffffffffffffffffffffffffffffffffffffff1602179055508173ffffffffffffffffffffffffffffffffffffffff168173ffffffffffffffffffffffffffffffffffffffff167f8be0079c531659141344cd1fd0a4f28419497f9722a3daafe3b4186f6b6457e060405160405180910390a35050565b828054828255906000526020600020908101928215620001f8579160200282015b82811115620001f7578251825591602001919060010190620001da565b5b5090506200020791906200020b565b5090565b5b80821115620002265760008160009055506001016200020c565b5090565b6000604051905090565b600080fd5b600080fd5b600073ffffffffffffffffffffffffffffffffffffffff82169050919050565b60006200026b826200023e565b9050919050565b60006200027f826200025e565b9050919050565b620002918162000272565b81146200029d57600080fd5b50565b600081519050620002b18162000286565b92915050565b600080fd5b6000601f19601f8301169050919050565b7f4e487b7100000000000000000000000000000000000000000000000000000000600052604160045260246000fd5b6200030782620002bc565b810181811067ffffffffffffffff82111715620003295762000328620002cd565b5b80604052505050565b60006200033e6200022a565b90506200034c8282620002fc565b919050565b600067ffffffffffffffff8211156200036f576200036e620002cd565b5b602082029050602081019050919050565b600080fd5b6000819050919050565b6200039a8162000385565b8114620003a657600080fd5b50565b600081519050620003ba816200038f565b92915050565b6000620003d7620003d18462000351565b62000332565b90508083825260208201905060208402830185811115620003fd57620003fc62000380565b5b835b818110156200042a5780620004158882620003a9565b845260208401935050602081019050620003ff565b5050509392505050565b600082601f8301126200044c576200044b620002b7565b5b81516200045e848260208601620003c0565b91505092915050565b6000806000806080858703121562000484576200048362000234565b5b60006200049487828801620002a0565b945050602085015167ffffffffffffffff811115620004b857620004b762000239565b5b620004c68782880162000434565b935050604085015167ffffffffffffffff811115620004ea57620004e962000239565b5b620004f88782880162000434565b925050606085015167ffffffffffffffff8111156200051c576200051b62000239565b5b6200052a8782880162000434565b91505092959194509250565b610aa680620005466000396000f3fe608060405234801561001057600080fd5b50600436106100b45760003560e01c8063a322211311610071578063a322211314610179578063cd580ff3146101a9578063d07d1f04146101d9578063f2fde38b14610209578063f509d18314610225578063fa6a6d3614610255576100b4565b806318253b32146100b957806325d5aa91146100d55780632d30d9af146101055780634cfa0ad514610121578063715018a6146101515780638da5cb5b1461015b575b600080fd5b6100d360048036038101906100ce919061079b565b610273565b005b6100ef60048036038101906100ea91906107db565b610345565b6040516100fc9190610817565b60405180910390f35b61011f600480360381019061011a91906107db565b610369565b005b61013b600480360381019061013691906107db565b610411565b6040516101489190610817565b60405180910390f35b610159610435565b005b6101636104bd565b6040516101709190610873565b60405180910390f35b610193600480360381019061018e91906107db565b6104e6565b6040516101a09190610817565b60405180910390f35b6101c360048036038101906101be91906107db565b61050a565b6040516101d09190610817565b60405180910390f35b6101f360048036038101906101ee91906107db565b61052e565b6040516102009190610817565b60405180910390f35b610223600480360381019061021e91906108ba565b610552565b005b61023f600480360381019061023a91906107db565b61064a565b60405161024c9190610817565b60405180910390f35b61025d61066e565b60405161026a9190610946565b60405180910390f35b61027b610694565b73ffffffffffffffffffffffffffffffffffffffff166102996104bd565b73ffffffffffffffffffffffffffffffffffffffff16146102ef576040517f08c379a00000000000000000000000000000000000000000000000000000000081526004016102e6906109be565b60405180910390fd5b600582908060018154018082558091505060019003906000526020600020016000909190919091505560068190806001815401808255809150506001900390600052602060002001600090919091909150555050565b6002818154811061035557600080fd5b906000526020600020016000915090505481565b610371610694565b73ffffffffffffffffffffffffffffffffffffffff1661038f6104bd565b73ffffffffffffffffffffffffffffffffffffffff16146103e5576040517f08c379a00000000000000000000000000000000000000000000000000000000081526004016103dc906109be565b60405180910390fd5b600781908060018154018082558091505060019003906000526020600020016000909190919091505550565b6006818154811061042157600080fd5b906000526020600020016000915090505481565b61043d610694565b73ffffffffffffffffffffffffffffffffffffffff1661045b6104bd565b73ffffffffffffffffffffffffffffffffffffffff16146104b1576040517f08c379a00000000000000000000000000000000000000000000000000000000081526004016104a8906109be565b60405180910390fd5b6104bb600061069c565b565b60008060009054906101000a900473ffffffffffffffffffffffffffffffffffffffff16905090565b600581815481106104f657600080fd5b906000526020600020016000915090505481565b6007818154811061051a57600080fd5b906000526020600020016000915090505481565b6003818154811061053e57600080fd5b906000526020600020016000915090505481565b61055a610694565b73ffffffffffffffffffffffffffffffffffffffff166105786104bd565b73ffffffffffffffffffffffffffffffffffffffff16146105ce576040517f08c379a00000000000000000000000000000000000000000000000000000000081526004016105c5906109be565b60405180910390fd5b600073ffffffffffffffffffffffffffffffffffffffff168173ffffffffffffffffffffffffffffffffffffffff16141561063e576040517f08c379a000000000000000000000000000000000000000000000000000000000815260040161063590610a50565b60405180910390fd5b6106478161069c565b50565b6004818154811061065a57600080fd5b906000526020600020016000915090505481565b600160009054906101000a900473ffffffffffffffffffffffffffffffffffffffff1681565b600033905090565b60008060009054906101000a900473ffffffffffffffffffffffffffffffffffffffff169050816000806101000a81548173ffffffffffffffffffffffffffffffffffffffff021916908373ffffffffffffffffffffffffffffffffffffffff1602179055508173ffffffffffffffffffffffffffffffffffffffff168173ffffffffffffffffffffffffffffffffffffffff167f8be0079c531659141344cd1fd0a4f28419497f9722a3daafe3b4186f6b6457e060405160405180910390a35050565b600080fd5b6000819050919050565b61077881610765565b811461078357600080fd5b50565b6000813590506107958161076f565b92915050565b600080604083850312156107b2576107b1610760565b5b60006107c085828601610786565b92505060206107d185828601610786565b9150509250929050565b6000602082840312156107f1576107f0610760565b5b60006107ff84828501610786565b91505092915050565b61081181610765565b82525050565b600060208201905061082c6000830184610808565b92915050565b600073ffffffffffffffffffffffffffffffffffffffff82169050919050565b600061085d82610832565b9050919050565b61086d81610852565b82525050565b60006020820190506108886000830184610864565b92915050565b61089781610852565b81146108a257600080fd5b50565b6000813590506108b48161088e565b92915050565b6000602082840312156108d0576108cf610760565b5b60006108de848285016108a5565b91505092915050565b6000819050919050565b600061090c61090761090284610832565b6108e7565b610832565b9050919050565b600061091e826108f1565b9050919050565b600061093082610913565b9050919050565b61094081610925565b82525050565b600060208201905061095b6000830184610937565b92915050565b600082825260208201905092915050565b7f4f776e61626c653a2063616c6c6572206973206e6f7420746865206f776e6572600082015250565b60006109a8602083610961565b91506109b382610972565b602082019050919050565b600060208201905081810360008301526109d78161099b565b9050919050565b7f4f776e61626c653a206e6577206f776e657220697320746865207a65726f206160008201527f6464726573730000000000000000000000000000000000000000000000000000602082015250565b6000610a3a602683610961565b9150610a45826109de565b604082019050919050565b60006020820190508181036000830152610a6981610a2d565b905091905056fea26469706673582212204be939797b0197879202e8c4164318e85cfb219b8feb4ffede0784cc30ede0b164736f6c634300080a0033a2646970667358221220885ef7d80de79adac9daf385a4412e50fe26313907c63b5a9f938e9cbcc7ebdd64736f6c634300080a0033",
  "immutableReferences": {},
  "source": "// SPDX-License-Identifier: MIT\npragma solidity >=0.4.22 <0.9.0;\n\nimport \"@openzeppelin/contracts/access/Ownable.sol\";\n\n// Improve: Use Event&Log to store Bidder information\ncontract Bidder is Ownable {\n    Auction public auctionAddr;\n    uint256[] public ga; // commitment (start from MSB)\n    uint256[] public gb; // commitment (start from MSB)\n    uint256[] public gp; // commitment (start from MSB)\n    uint256[] public gx; // round 1 (start from MSB)\n    uint256[] public gr; // round 1 (start from MSB)\n    uint256[] public b; // round 2 (start from MSB)\n\n    constructor(\n        Auction _auctionAddr,\n        uint256[] memory _ga,\n        uint256[] memory _gb,\n        uint256[] memory _gp\n    ) {\n        auctionAddr = _auctionAddr;\n        ga = _ga;\n        gb = _gb;\n        gp = _gp;\n    }\n\n    function round1(uint256 _gx, uint256 _gr) public onlyOwner {\n        // TODO: check already submit case\n        gx.push(_gx);\n        gr.push(_gr);\n    }\n\n    function round2(uint256 _b) public onlyOwner {\n        // TODO: check already submit case\n        b.push(_b);\n    }\n}\n\ncontract Auction {\n    address public auctioneer;\n\n    // auction parameters\n    string public auctionName;\n    uint8 public bitLen = 4;\n    address[] public bidders;\n    mapping(address => Bidder) public bidderContractMap;\n\n    // group parameters\n    uint256 public q;\n    uint256 public r;\n    uint256 public p;\n    uint256 public h;\n    uint256 public g;\n\n    // state maintain parameters\n    bool public mpcStartFlag = false;\n    uint8 public curBit = bitLen - 1;\n    uint8 public curRound = 1;\n    mapping(uint8 => mapping(uint8 => address[])) public roundBidders;\n\n    event Round1Notification(address sender, uint256 gx, uint256 gr);\n    event Round2Notification(address sender, uint256 b);\n    event RoundEndNotification(uint8 curBit, uint8 curRound);\n\n    uint256 public commitDeadline;\n\n    constructor(\n        string memory _auctionName,\n        address _auctioneer,\n        uint256 _relCommitDeadlineSec,\n        uint256 _q,\n        uint256 _r,\n        uint256 _p,\n        uint256 _h,\n        uint256 _g\n    ) {\n        auctionName = _auctionName;\n        auctioneer = _auctioneer;\n        commitDeadline = block.timestamp + _relCommitDeadlineSec;\n        q = _q;\n        r = _r;\n        p = _p;\n        h = _h;\n        g = _g;\n    }\n\n    modifier mpcStart() {\n        require(\n            mpcStartFlag == true ||\n                (mpcStartFlag == false && block.timestamp > commitDeadline)\n        );\n\n        // start auction\n        if (mpcStartFlag == false && block.timestamp > commitDeadline) {\n            mpcStartFlag = true;\n        }\n        _;\n    }\n\n    modifier updateState() {\n        _;\n        roundBidders[curBit][curRound].push(msg.sender);\n        // move to next round\n        if (roundEnd()) {\n            if (curRound == 1) {\n                curRound = 2;\n            } else if (curRound == 2) {\n                curBit--;\n                curRound = 1;\n            }\n            emit RoundEndNotification(curBit, curRound);\n        }\n    }\n\n    function getBidders() public view returns (address[] memory) {\n        return bidders;\n    }\n\n    function roundEnd() public view returns (bool) {\n        return roundBidders[curBit][curRound].length == bidders.length;\n    }\n\n    function joinAuction(\n        uint256[] memory _ga,\n        uint256[] memory _gb,\n        uint256[] memory _gp\n    ) public returns (Bidder) {\n        require(\n            block.timestamp <= commitDeadline,\n            \"Can't join auction: commit stage is over\"\n        );\n        require(\n            _ga.length == bitLen &&\n                _gb.length == bitLen &&\n                _gp.length == bitLen,\n            \"Can't join auction: bit length is not matched\"\n        );\n\n        Bidder newBidder = new Bidder(this, _ga, _gb, _gp);\n        bidderContractMap[msg.sender] = newBidder;\n        bidders.push(msg.sender);\n\n        return newBidder;\n    }\n\n    function round1(uint256 _gx, uint256 _gr) public mpcStart updateState {\n        require(curRound == 1, \"Not round 1\");\n        bidderContractMap[msg.sender].round1(_gx, _gr);\n        emit Round1Notification(msg.sender, _gx, _gr);\n    }\n\n    function round2(uint256 _b) public mpcStart updateState {\n        require(curRound == 2, \"Not round 2\");\n        bidderContractMap[msg.sender].round2(_b);\n        emit Round2Notification(msg.sender, _b);\n    }\n}\n\ncontract Main {\n    address public owner = msg.sender;\n    Auction[] public auctions;\n\n    function getAuctions() public view returns (Auction[] memory) {\n        return auctions;\n    }\n\n    function createAuction(\n        string memory _auctionName,\n        uint256 _relCommitDeadlineSec,\n        uint256 _q,\n        uint256 _r,\n        uint256 _p,\n        uint256 _h,\n        uint256 _g\n    ) public returns (Auction) {\n        require(bytes(_auctionName).length > 0);\n        // TODO: check group is valid (require efficient implementation of exponentiation)\n        // 1. p = q * r + 1\n        // 2. g = h^r mod p\n        // 3. g^q = 1 mod p\n\n        Auction newAuction = new Auction(\n            _auctionName,\n            msg.sender,\n            _relCommitDeadlineSec,\n            _q,\n            _r,\n            _p,\n            _h,\n            _g\n        );\n        auctions.push(newAuction);\n\n        return newAuction;\n    }\n}\n",
  "sourcePath": "/Users/ykzheng/Projects/SEAL-Bid-Auction/smart-contract/contracts/Main.sol",
  "compiler": {
    "name": "solc",
    "version": "0.8.10+commit.fc410830.Emscripten.clang"
  },
  "schemaVersion": "3.4.4",
  "updatedAt": "2022-01-12T14:30:22.009Z",
  "devdoc": {
    "kind": "dev",
    "methods": {},
    "version": 1
  },
  "userdoc": {
    "kind": "user",
    "methods": {},
    "version": 1
  }
}