{
  "contractName": "Bidder",
  "abi": [
    {
      "inputs": [
        {
          "internalType": "contract Auction",
          "name": "_auctionAddr",
          "type": "address"
        },
        {
          "internalType": "uint256[]",
          "name": "_ga",
          "type": "uint256[]"
        },
        {
          "internalType": "uint256[]",
          "name": "_gb",
          "type": "uint256[]"
        },
        {
          "internalType": "uint256[]",
          "name": "_gp",
          "type": "uint256[]"
        }
      ],
      "stateMutability": "nonpayable",
      "type": "constructor"
    },
    {
      "anonymous": false,
      "inputs": [
        {
          "indexed": true,
          "internalType": "address",
          "name": "previousOwner",
          "type": "address"
        },
        {
          "indexed": true,
          "internalType": "address",
          "name": "newOwner",
          "type": "address"
        }
      ],
      "name": "OwnershipTransferred",
      "type": "event"
    },
    {
      "inputs": [],
      "name": "auctionAddr",
      "outputs": [
        {
          "internalType": "contract Auction",
          "name": "",
          "type": "address"
        }
      ],
      "stateMutability": "view",
      "type": "function"
    },
    {
      "inputs": [
        {
          "internalType": "uint256",
          "name": "",
          "type": "uint256"
        }
      ],
      "name": "b",
      "outputs": [
        {
          "internalType": "uint256",
          "name": "",
          "type": "uint256"
        }
      ],
      "stateMutability": "view",
      "type": "function"
    },
    {
      "inputs": [
        {
          "internalType": "uint256",
          "name": "",
          "type": "uint256"
        }
      ],
      "name": "ga",
      "outputs": [
        {
          "internalType": "uint256",
          "name": "",
          "type": "uint256"
        }
      ],
      "stateMutability": "view",
      "type": "function"
    },
    {
      "inputs": [
        {
          "internalType": "uint256",
          "name": "",
          "type": "uint256"
        }
      ],
      "name": "gb",
      "outputs": [
        {
          "internalType": "uint256",
          "name": "",
          "type": "uint256"
        }
      ],
      "stateMutability": "view",
      "type": "function"
    },
    {
      "inputs": [
        {
          "internalType": "uint256",
          "name": "",
          "type": "uint256"
        }
      ],
      "name": "gp",
      "outputs": [
        {
          "internalType": "uint256",
          "name": "",
          "type": "uint256"
        }
      ],
      "stateMutability": "view",
      "type": "function"
    },
    {
      "inputs": [
        {
          "internalType": "uint256",
          "name": "",
          "type": "uint256"
        }
      ],
      "name": "gr",
      "outputs": [
        {
          "internalType": "uint256",
          "name": "",
          "type": "uint256"
        }
      ],
      "stateMutability": "view",
      "type": "function"
    },
    {
      "inputs": [
        {
          "internalType": "uint256",
          "name": "",
          "type": "uint256"
        }
      ],
      "name": "gx",
      "outputs": [
        {
          "internalType": "uint256",
          "name": "",
          "type": "uint256"
        }
      ],
      "stateMutability": "view",
      "type": "function"
    },
    {
      "inputs": [],
      "name": "owner",
      "outputs": [
        {
          "internalType": "address",
          "name": "",
          "type": "address"
        }
      ],
      "stateMutability": "view",
      "type": "function"
    },
    {
      "inputs": [],
      "name": "renounceOwnership",
      "outputs": [],
      "stateMutability": "nonpayable",
      "type": "function"
    },
    {
      "inputs": [
        {
          "internalType": "address",
          "name": "newOwner",
          "type": "address"
        }
      ],
      "name": "transferOwnership",
      "outputs": [],
      "stateMutability": "nonpayable",
      "type": "function"
    },
    {
      "inputs": [
        {
          "internalType": "uint256",
          "name": "_gx",
          "type": "uint256"
        },
        {
          "internalType": "uint256",
          "name": "_gr",
          "type": "uint256"
        }
      ],
      "name": "round1",
      "outputs": [],
      "stateMutability": "nonpayable",
      "type": "function"
    },
    {
      "inputs": [
        {
          "internalType": "uint256",
          "name": "_b",
          "type": "uint256"
        }
      ],
      "name": "round2",
      "outputs": [],
      "stateMutability": "nonpayable",
      "type": "function"
    }
  ],
  "bytecode": "0x60806040523480156200001157600080fd5b5060405162000fec38038062000fec833981810160405281019062000037919062000467565b620000576200004b620000ed60201b60201c565b620000f560201b60201c565b83600160006101000a81548173ffffffffffffffffffffffffffffffffffffffff021916908373ffffffffffffffffffffffffffffffffffffffff1602179055508260029080519060200190620000b0929190620001b9565b508160039080519060200190620000c9929190620001b9565b508060049080519060200190620000e2929190620001b9565b505050505062000536565b600033905090565b60008060009054906101000a900473ffffffffffffffffffffffffffffffffffffffff169050816000806101000a81548173ffffffffffffffffffffffffffffffffffffffff021916908373ffffffffffffffffffffffffffffffffffffffff1602179055508173ffffffffffffffffffffffffffffffffffffffff168173ffffffffffffffffffffffffffffffffffffffff167f8be0079c531659141344cd1fd0a4f28419497f9722a3daafe3b4186f6b6457e060405160405180910390a35050565b828054828255906000526020600020908101928215620001f8579160200282015b82811115620001f7578251825591602001919060010190620001da565b5b5090506200020791906200020b565b5090565b5b80821115620002265760008160009055506001016200020c565b5090565b6000604051905090565b600080fd5b600080fd5b600073ffffffffffffffffffffffffffffffffffffffff82169050919050565b60006200026b826200023e565b9050919050565b60006200027f826200025e565b9050919050565b620002918162000272565b81146200029d57600080fd5b50565b600081519050620002b18162000286565b92915050565b600080fd5b6000601f19601f8301169050919050565b7f4e487b7100000000000000000000000000000000000000000000000000000000600052604160045260246000fd5b6200030782620002bc565b810181811067ffffffffffffffff82111715620003295762000328620002cd565b5b80604052505050565b60006200033e6200022a565b90506200034c8282620002fc565b919050565b600067ffffffffffffffff8211156200036f576200036e620002cd565b5b602082029050602081019050919050565b600080fd5b6000819050919050565b6200039a8162000385565b8114620003a657600080fd5b50565b600081519050620003ba816200038f565b92915050565b6000620003d7620003d18462000351565b62000332565b90508083825260208201905060208402830185811115620003fd57620003fc62000380565b5b835b818110156200042a5780620004158882620003a9565b845260208401935050602081019050620003ff565b5050509392505050565b600082601f8301126200044c576200044b620002b7565b5b81516200045e848260208601620003c0565b91505092915050565b6000806000806080858703121562000484576200048362000234565b5b60006200049487828801620002a0565b945050602085015167ffffffffffffffff811115620004b857620004b762000239565b5b620004c68782880162000434565b935050604085015167ffffffffffffffff811115620004ea57620004e962000239565b5b620004f88782880162000434565b925050606085015167ffffffffffffffff8111156200051c576200051b62000239565b5b6200052a8782880162000434565b91505092959194509250565b610aa680620005466000396000f3fe608060405234801561001057600080fd5b50600436106100b45760003560e01c8063a322211311610071578063a322211314610179578063cd580ff3146101a9578063d07d1f04146101d9578063f2fde38b14610209578063f509d18314610225578063fa6a6d3614610255576100b4565b806318253b32146100b957806325d5aa91146100d55780632d30d9af146101055780634cfa0ad514610121578063715018a6146101515780638da5cb5b1461015b575b600080fd5b6100d360048036038101906100ce919061079b565b610273565b005b6100ef60048036038101906100ea91906107db565b610345565b6040516100fc9190610817565b60405180910390f35b61011f600480360381019061011a91906107db565b610369565b005b61013b600480360381019061013691906107db565b610411565b6040516101489190610817565b60405180910390f35b610159610435565b005b6101636104bd565b6040516101709190610873565b60405180910390f35b610193600480360381019061018e91906107db565b6104e6565b6040516101a09190610817565b60405180910390f35b6101c360048036038101906101be91906107db565b61050a565b6040516101d09190610817565b60405180910390f35b6101f360048036038101906101ee91906107db565b61052e565b6040516102009190610817565b60405180910390f35b610223600480360381019061021e91906108ba565b610552565b005b61023f600480360381019061023a91906107db565b61064a565b60405161024c9190610817565b60405180910390f35b61025d61066e565b60405161026a9190610946565b60405180910390f35b61027b610694565b73ffffffffffffffffffffffffffffffffffffffff166102996104bd565b73ffffffffffffffffffffffffffffffffffffffff16146102ef576040517f08c379a00000000000000000000000000000000000000000000000000000000081526004016102e6906109be565b60405180910390fd5b600582908060018154018082558091505060019003906000526020600020016000909190919091505560068190806001815401808255809150506001900390600052602060002001600090919091909150555050565b6002818154811061035557600080fd5b906000526020600020016000915090505481565b610371610694565b73ffffffffffffffffffffffffffffffffffffffff1661038f6104bd565b73ffffffffffffffffffffffffffffffffffffffff16146103e5576040517f08c379a00000000000000000000000000000000000000000000000000000000081526004016103dc906109be565b60405180910390fd5b600781908060018154018082558091505060019003906000526020600020016000909190919091505550565b6006818154811061042157600080fd5b906000526020600020016000915090505481565b61043d610694565b73ffffffffffffffffffffffffffffffffffffffff1661045b6104bd565b73ffffffffffffffffffffffffffffffffffffffff16146104b1576040517f08c379a00000000000000000000000000000000000000000000000000000000081526004016104a8906109be565b60405180910390fd5b6104bb600061069c565b565b60008060009054906101000a900473ffffffffffffffffffffffffffffffffffffffff16905090565b600581815481106104f657600080fd5b906000526020600020016000915090505481565b6007818154811061051a57600080fd5b906000526020600020016000915090505481565b6003818154811061053e57600080fd5b906000526020600020016000915090505481565b61055a610694565b73ffffffffffffffffffffffffffffffffffffffff166105786104bd565b73ffffffffffffffffffffffffffffffffffffffff16146105ce576040517f08c379a00000000000000000000000000000000000000000000000000000000081526004016105c5906109be565b60405180910390fd5b600073ffffffffffffffffffffffffffffffffffffffff168173ffffffffffffffffffffffffffffffffffffffff16141561063e576040517f08c379a000000000000000000000000000000000000000000000000000000000815260040161063590610a50565b60405180910390fd5b6106478161069c565b50565b6004818154811061065a57600080fd5b906000526020600020016000915090505481565b600160009054906101000a900473ffffffffffffffffffffffffffffffffffffffff1681565b600033905090565b60008060009054906101000a900473ffffffffffffffffffffffffffffffffffffffff169050816000806101000a81548173ffffffffffffffffffffffffffffffffffffffff021916908373ffffffffffffffffffffffffffffffffffffffff1602179055508173ffffffffffffffffffffffffffffffffffffffff168173ffffffffffffffffffffffffffffffffffffffff167f8be0079c531659141344cd1fd0a4f28419497f9722a3daafe3b4186f6b6457e060405160405180910390a35050565b600080fd5b6000819050919050565b61077881610765565b811461078357600080fd5b50565b6000813590506107958161076f565b92915050565b600080604083850312156107b2576107b1610760565b5b60006107c085828601610786565b92505060206107d185828601610786565b9150509250929050565b6000602082840312156107f1576107f0610760565b5b60006107ff84828501610786565b91505092915050565b61081181610765565b82525050565b600060208201905061082c6000830184610808565b92915050565b600073ffffffffffffffffffffffffffffffffffffffff82169050919050565b600061085d82610832565b9050919050565b61086d81610852565b82525050565b60006020820190506108886000830184610864565b92915050565b61089781610852565b81146108a257600080fd5b50565b6000813590506108b48161088e565b92915050565b6000602082840312156108d0576108cf610760565b5b60006108de848285016108a5565b91505092915050565b6000819050919050565b600061090c61090761090284610832565b6108e7565b610832565b9050919050565b600061091e826108f1565b9050919050565b600061093082610913565b9050919050565b61094081610925565b82525050565b600060208201905061095b6000830184610937565b92915050565b600082825260208201905092915050565b7f4f776e61626c653a2063616c6c6572206973206e6f7420746865206f776e6572600082015250565b60006109a8602083610961565b91506109b382610972565b602082019050919050565b600060208201905081810360008301526109d78161099b565b9050919050565b7f4f776e61626c653a206e6577206f776e657220697320746865207a65726f206160008201527f6464726573730000000000000000000000000000000000000000000000000000602082015250565b6000610a3a602683610961565b9150610a45826109de565b604082019050919050565b60006020820190508181036000830152610a6981610a2d565b905091905056fea26469706673582212204be939797b0197879202e8c4164318e85cfb219b8feb4ffede0784cc30ede0b164736f6c634300080a0033",
  "immutableReferences": {},
  "source": "// SPDX-License-Identifier: MIT\npragma solidity >=0.4.22 <0.9.0;\n\nimport \"@openzeppelin/contracts/access/Ownable.sol\";\n\n// Improve: Use Event&Log to store Bidder information\ncontract Bidder is Ownable {\n    Auction public auctionAddr;\n    uint256[] public ga; // commitment (start from MSB)\n    uint256[] public gb; // commitment (start from MSB)\n    uint256[] public gp; // commitment (start from MSB)\n    uint256[] public gx; // round 1 (start from MSB)\n    uint256[] public gr; // round 1 (start from MSB)\n    uint256[] public b; // round 2 (start from MSB)\n\n    constructor(\n        Auction _auctionAddr,\n        uint256[] memory _ga,\n        uint256[] memory _gb,\n        uint256[] memory _gp\n    ) {\n        auctionAddr = _auctionAddr;\n        ga = _ga;\n        gb = _gb;\n        gp = _gp;\n    }\n\n    function round1(uint256 _gx, uint256 _gr) public onlyOwner {\n        // TODO: check already submit case\n        gx.push(_gx);\n        gr.push(_gr);\n    }\n\n    function round2(uint256 _b) public onlyOwner {\n        // TODO: check already submit case\n        b.push(_b);\n    }\n}\n\ncontract Auction {\n    address public auctioneer;\n\n    // auction parameters\n    string public auctionName;\n    uint8 public bitLen = 4;\n    address[] public bidders;\n    mapping(address => Bidder) public bidderContractMap;\n\n    // group parameters\n    uint256 public q;\n    uint256 public r;\n    uint256 public p;\n    uint256 public h;\n    uint256 public g;\n\n    // state maintain parameters\n    bool public mpcStartFlag = false;\n    uint8 public curBit = bitLen - 1;\n    uint8 public curRound = 1;\n    mapping(uint8 => mapping(uint8 => address[])) public roundBidders;\n\n    event Round1Notification(address sender, uint256 gx, uint256 gr);\n    event Round2Notification(address sender, uint256 b);\n    event RoundEndNotification(uint8 curBit, uint8 curRound);\n\n    uint256 public commitDeadline;\n\n    constructor(\n        string memory _auctionName,\n        address _auctioneer,\n        uint256 _relCommitDeadlineSec,\n        uint256 _q,\n        uint256 _r,\n        uint256 _p,\n        uint256 _h,\n        uint256 _g\n    ) {\n        auctionName = _auctionName;\n        auctioneer = _auctioneer;\n        commitDeadline = block.timestamp + _relCommitDeadlineSec;\n        q = _q;\n        r = _r;\n        p = _p;\n        h = _h;\n        g = _g;\n    }\n\n    modifier mpcStart() {\n        require(\n            mpcStartFlag == true ||\n                (mpcStartFlag == false && block.timestamp > commitDeadline)\n        );\n\n        // start auction\n        if (mpcStartFlag == false && block.timestamp > commitDeadline) {\n            mpcStartFlag = true;\n        }\n        _;\n    }\n\n    modifier updateState() {\n        _;\n        roundBidders[curBit][curRound].push(msg.sender);\n        // move to next round\n        if (roundEnd()) {\n            if (curRound == 1) {\n                curRound = 2;\n            } else if (curRound == 2) {\n                curBit--;\n                curRound = 1;\n            }\n            emit RoundEndNotification(curBit, curRound);\n        }\n    }\n\n    function getBidders() public view returns (address[] memory) {\n        return bidders;\n    }\n\n    function roundEnd() public view returns (bool) {\n        return roundBidders[curBit][curRound].length == bidders.length;\n    }\n\n    function joinAuction(\n        uint256[] memory _ga,\n        uint256[] memory _gb,\n        uint256[] memory _gp\n    ) public returns (Bidder) {\n        require(\n            block.timestamp <= commitDeadline,\n            \"Can't join auction: commit stage is over\"\n        );\n        require(\n            _ga.length == bitLen &&\n                _gb.length == bitLen &&\n                _gp.length == bitLen,\n            \"Can't join auction: bit length is not matched\"\n        );\n\n        Bidder newBidder = new Bidder(this, _ga, _gb, _gp);\n        bidderContractMap[msg.sender] = newBidder;\n        bidders.push(msg.sender);\n\n        return newBidder;\n    }\n\n    function round1(uint256 _gx, uint256 _gr) public mpcStart updateState {\n        require(curRound == 1, \"Not round 1\");\n        bidderContractMap[msg.sender].round1(_gx, _gr);\n        emit Round1Notification(msg.sender, _gx, _gr);\n    }\n\n    function round2(uint256 _b) public mpcStart updateState {\n        require(curRound == 2, \"Not round 2\");\n        bidderContractMap[msg.sender].round2(_b);\n        emit Round2Notification(msg.sender, _b);\n    }\n}\n\ncontract Main {\n    address public owner = msg.sender;\n    Auction[] public auctions;\n\n    function getAuctions() public view returns (Auction[] memory) {\n        return auctions;\n    }\n\n    function createAuction(\n        string memory _auctionName,\n        uint256 _relCommitDeadlineSec,\n        uint256 _q,\n        uint256 _r,\n        uint256 _p,\n        uint256 _h,\n        uint256 _g\n    ) public returns (Auction) {\n        require(bytes(_auctionName).length > 0);\n        // TODO: check group is valid (require efficient implementation of exponentiation)\n        // 1. p = q * r + 1\n        // 2. g = h^r mod p\n        // 3. g^q = 1 mod p\n\n        Auction newAuction = new Auction(\n            _auctionName,\n            msg.sender,\n            _relCommitDeadlineSec,\n            _q,\n            _r,\n            _p,\n            _h,\n            _g\n        );\n        auctions.push(newAuction);\n\n        return newAuction;\n    }\n}\n",
  "sourcePath": "/Users/ykzheng/Projects/SEAL-Bid-Auction/smart-contract/contracts/Main.sol",
  "compiler": {
    "name": "solc",
    "version": "0.8.10+commit.fc410830.Emscripten.clang"
  },
  "schemaVersion": "3.4.4",
  "updatedAt": "2022-01-12T14:30:22.022Z",
  "devdoc": {
    "kind": "dev",
    "methods": {
      "owner()": {
        "details": "Returns the address of the current owner."
      },
      "renounceOwnership()": {
        "details": "Leaves the contract without owner. It will not be possible to call `onlyOwner` functions anymore. Can only be called by the current owner. NOTE: Renouncing ownership will leave the contract without an owner, thereby removing any functionality that is only available to the owner."
      },
      "transferOwnership(address)": {
        "details": "Transfers ownership of the contract to a new account (`newOwner`). Can only be called by the current owner."
      }
    },
    "version": 1
  },
  "userdoc": {
    "kind": "user",
    "methods": {},
    "version": 1
  }
}