{
  "contractName": "Bidder",
  "abi": [
    {
      "inputs": [
        {
          "internalType": "contract Auction",
          "name": "_auctionAddr",
          "type": "address"
        },
        {
          "internalType": "string",
          "name": "_commitment",
          "type": "string"
        }
      ],
      "stateMutability": "nonpayable",
      "type": "constructor"
    },
    {
      "anonymous": false,
      "inputs": [
        {
          "indexed": true,
          "internalType": "address",
          "name": "previousOwner",
          "type": "address"
        },
        {
          "indexed": true,
          "internalType": "address",
          "name": "newOwner",
          "type": "address"
        }
      ],
      "name": "OwnershipTransferred",
      "type": "event"
    },
    {
      "inputs": [],
      "name": "auctionAddr",
      "outputs": [
        {
          "internalType": "contract Auction",
          "name": "",
          "type": "address"
        }
      ],
      "stateMutability": "view",
      "type": "function"
    },
    {
      "inputs": [
        {
          "internalType": "uint256",
          "name": "",
          "type": "uint256"
        }
      ],
      "name": "b",
      "outputs": [
        {
          "internalType": "uint256",
          "name": "",
          "type": "uint256"
        }
      ],
      "stateMutability": "view",
      "type": "function"
    },
    {
      "inputs": [],
      "name": "commitment",
      "outputs": [
        {
          "internalType": "string",
          "name": "",
          "type": "string"
        }
      ],
      "stateMutability": "view",
      "type": "function"
    },
    {
      "inputs": [
        {
          "internalType": "uint256",
          "name": "",
          "type": "uint256"
        }
      ],
      "name": "gr",
      "outputs": [
        {
          "internalType": "uint256",
          "name": "",
          "type": "uint256"
        }
      ],
      "stateMutability": "view",
      "type": "function"
    },
    {
      "inputs": [
        {
          "internalType": "uint256",
          "name": "",
          "type": "uint256"
        }
      ],
      "name": "gx",
      "outputs": [
        {
          "internalType": "uint256",
          "name": "",
          "type": "uint256"
        }
      ],
      "stateMutability": "view",
      "type": "function"
    },
    {
      "inputs": [],
      "name": "owner",
      "outputs": [
        {
          "internalType": "address",
          "name": "",
          "type": "address"
        }
      ],
      "stateMutability": "view",
      "type": "function"
    },
    {
      "inputs": [],
      "name": "renounceOwnership",
      "outputs": [],
      "stateMutability": "nonpayable",
      "type": "function"
    },
    {
      "inputs": [
        {
          "internalType": "address",
          "name": "newOwner",
          "type": "address"
        }
      ],
      "name": "transferOwnership",
      "outputs": [],
      "stateMutability": "nonpayable",
      "type": "function"
    },
    {
      "inputs": [
        {
          "internalType": "uint256",
          "name": "_gx",
          "type": "uint256"
        },
        {
          "internalType": "uint256",
          "name": "_gr",
          "type": "uint256"
        }
      ],
      "name": "round1",
      "outputs": [],
      "stateMutability": "nonpayable",
      "type": "function"
    },
    {
      "inputs": [
        {
          "internalType": "uint256",
          "name": "_b",
          "type": "uint256"
        }
      ],
      "name": "round2",
      "outputs": [],
      "stateMutability": "nonpayable",
      "type": "function"
    }
  ],
  "bytecode": "0x60806040523480156200001157600080fd5b50604051620010713803806200107183398181016040528101906200003791906200044b565b620000576200004b620000b960201b60201c565b620000c160201b60201c565b81600160006101000a81548173ffffffffffffffffffffffffffffffffffffffff021916908373ffffffffffffffffffffffffffffffffffffffff1602179055508060029080519060200190620000b092919062000185565b50505062000516565b600033905090565b60008060009054906101000a900473ffffffffffffffffffffffffffffffffffffffff169050816000806101000a81548173ffffffffffffffffffffffffffffffffffffffff021916908373ffffffffffffffffffffffffffffffffffffffff1602179055508173ffffffffffffffffffffffffffffffffffffffff168173ffffffffffffffffffffffffffffffffffffffff167f8be0079c531659141344cd1fd0a4f28419497f9722a3daafe3b4186f6b6457e060405160405180910390a35050565b8280546200019390620004e0565b90600052602060002090601f016020900481019282620001b7576000855562000203565b82601f10620001d257805160ff191683800117855562000203565b8280016001018555821562000203579182015b8281111562000202578251825591602001919060010190620001e5565b5b50905062000212919062000216565b5090565b5b808211156200023157600081600090555060010162000217565b5090565b6000604051905090565b600080fd5b600080fd5b600073ffffffffffffffffffffffffffffffffffffffff82169050919050565b6000620002768262000249565b9050919050565b60006200028a8262000269565b9050919050565b6200029c816200027d565b8114620002a857600080fd5b50565b600081519050620002bc8162000291565b92915050565b600080fd5b600080fd5b6000601f19601f8301169050919050565b7f4e487b7100000000000000000000000000000000000000000000000000000000600052604160045260246000fd5b6200031782620002cc565b810181811067ffffffffffffffff82111715620003395762000338620002dd565b5b80604052505050565b60006200034e62000235565b90506200035c82826200030c565b919050565b600067ffffffffffffffff8211156200037f576200037e620002dd565b5b6200038a82620002cc565b9050602081019050919050565b60005b83811015620003b75780820151818401526020810190506200039a565b83811115620003c7576000848401525b50505050565b6000620003e4620003de8462000361565b62000342565b905082815260208101848484011115620004035762000402620002c7565b5b6200041084828562000397565b509392505050565b600082601f83011262000430576200042f620002c2565b5b815162000442848260208601620003cd565b91505092915050565b600080604083850312156200046557620004646200023f565b5b60006200047585828601620002ab565b925050602083015167ffffffffffffffff81111562000499576200049862000244565b5b620004a78582860162000418565b9150509250929050565b7f4e487b7100000000000000000000000000000000000000000000000000000000600052602260045260246000fd5b60006002820490506001821680620004f957607f821691505b6020821081141562000510576200050f620004b1565b5b50919050565b610b4b80620005266000396000f3fe608060405234801561001057600080fd5b506004361061009e5760003560e01c80638da5cb5b116100665780638da5cb5b14610133578063a322211314610151578063cd580ff314610181578063f2fde38b146101b1578063fa6a6d36146101cd5761009e565b80631303a484146100a357806318253b32146100c15780632d30d9af146100dd5780634cfa0ad5146100f9578063715018a614610129575b600080fd5b6100ab6101eb565b6040516100b89190610793565b60405180910390f35b6100db60048036038101906100d691906107f0565b610279565b005b6100f760048036038101906100f29190610830565b61034b565b005b610113600480360381019061010e9190610830565b6103f3565b604051610120919061086c565b60405180910390f35b610131610417565b005b61013b61049f565b60405161014891906108c8565b60405180910390f35b61016b60048036038101906101669190610830565b6104c8565b604051610178919061086c565b60405180910390f35b61019b60048036038101906101969190610830565b6104ec565b6040516101a8919061086c565b60405180910390f35b6101cb60048036038101906101c6919061090f565b610510565b005b6101d5610608565b6040516101e2919061099b565b60405180910390f35b600280546101f8906109e5565b80601f0160208091040260200160405190810160405280929190818152602001828054610224906109e5565b80156102715780601f1061024657610100808354040283529160200191610271565b820191906000526020600020905b81548152906001019060200180831161025457829003601f168201915b505050505081565b61028161062e565b73ffffffffffffffffffffffffffffffffffffffff1661029f61049f565b73ffffffffffffffffffffffffffffffffffffffff16146102f5576040517f08c379a00000000000000000000000000000000000000000000000000000000081526004016102ec90610a63565b60405180910390fd5b600382908060018154018082558091505060019003906000526020600020016000909190919091505560048190806001815401808255809150506001900390600052602060002001600090919091909150555050565b61035361062e565b73ffffffffffffffffffffffffffffffffffffffff1661037161049f565b73ffffffffffffffffffffffffffffffffffffffff16146103c7576040517f08c379a00000000000000000000000000000000000000000000000000000000081526004016103be90610a63565b60405180910390fd5b600581908060018154018082558091505060019003906000526020600020016000909190919091505550565b6004818154811061040357600080fd5b906000526020600020016000915090505481565b61041f61062e565b73ffffffffffffffffffffffffffffffffffffffff1661043d61049f565b73ffffffffffffffffffffffffffffffffffffffff1614610493576040517f08c379a000000000000000000000000000000000000000000000000000000000815260040161048a90610a63565b60405180910390fd5b61049d6000610636565b565b60008060009054906101000a900473ffffffffffffffffffffffffffffffffffffffff16905090565b600381815481106104d857600080fd5b906000526020600020016000915090505481565b600581815481106104fc57600080fd5b906000526020600020016000915090505481565b61051861062e565b73ffffffffffffffffffffffffffffffffffffffff1661053661049f565b73ffffffffffffffffffffffffffffffffffffffff161461058c576040517f08c379a000000000000000000000000000000000000000000000000000000000815260040161058390610a63565b60405180910390fd5b600073ffffffffffffffffffffffffffffffffffffffff168173ffffffffffffffffffffffffffffffffffffffff1614156105fc576040517f08c379a00000000000000000000000000000000000000000000000000000000081526004016105f390610af5565b60405180910390fd5b61060581610636565b50565b600160009054906101000a900473ffffffffffffffffffffffffffffffffffffffff1681565b600033905090565b60008060009054906101000a900473ffffffffffffffffffffffffffffffffffffffff169050816000806101000a81548173ffffffffffffffffffffffffffffffffffffffff021916908373ffffffffffffffffffffffffffffffffffffffff1602179055508173ffffffffffffffffffffffffffffffffffffffff168173ffffffffffffffffffffffffffffffffffffffff167f8be0079c531659141344cd1fd0a4f28419497f9722a3daafe3b4186f6b6457e060405160405180910390a35050565b600081519050919050565b600082825260208201905092915050565b60005b83811015610734578082015181840152602081019050610719565b83811115610743576000848401525b50505050565b6000601f19601f8301169050919050565b6000610765826106fa565b61076f8185610705565b935061077f818560208601610716565b61078881610749565b840191505092915050565b600060208201905081810360008301526107ad818461075a565b905092915050565b600080fd5b6000819050919050565b6107cd816107ba565b81146107d857600080fd5b50565b6000813590506107ea816107c4565b92915050565b60008060408385031215610807576108066107b5565b5b6000610815858286016107db565b9250506020610826858286016107db565b9150509250929050565b600060208284031215610846576108456107b5565b5b6000610854848285016107db565b91505092915050565b610866816107ba565b82525050565b6000602082019050610881600083018461085d565b92915050565b600073ffffffffffffffffffffffffffffffffffffffff82169050919050565b60006108b282610887565b9050919050565b6108c2816108a7565b82525050565b60006020820190506108dd60008301846108b9565b92915050565b6108ec816108a7565b81146108f757600080fd5b50565b600081359050610909816108e3565b92915050565b600060208284031215610925576109246107b5565b5b6000610933848285016108fa565b91505092915050565b6000819050919050565b600061096161095c61095784610887565b61093c565b610887565b9050919050565b600061097382610946565b9050919050565b600061098582610968565b9050919050565b6109958161097a565b82525050565b60006020820190506109b0600083018461098c565b92915050565b7f4e487b7100000000000000000000000000000000000000000000000000000000600052602260045260246000fd5b600060028204905060018216806109fd57607f821691505b60208210811415610a1157610a106109b6565b5b50919050565b7f4f776e61626c653a2063616c6c6572206973206e6f7420746865206f776e6572600082015250565b6000610a4d602083610705565b9150610a5882610a17565b602082019050919050565b60006020820190508181036000830152610a7c81610a40565b9050919050565b7f4f776e61626c653a206e6577206f776e657220697320746865207a65726f206160008201527f6464726573730000000000000000000000000000000000000000000000000000602082015250565b6000610adf602683610705565b9150610aea82610a83565b604082019050919050565b60006020820190508181036000830152610b0e81610ad2565b905091905056fea264697066735822122055ee438602cef0be22565a8f72838f5b1f7e8dd5cb5a60a119ce3f7ef4870ffc64736f6c634300080a0033",
  "immutableReferences": {},
  "source": "// SPDX-License-Identifier: MIT\npragma solidity >=0.4.22 <0.9.0;\n\nimport \"@openzeppelin/contracts/access/Ownable.sol\";\n\n// Improve: Use Event&Log to store Bidder information\ncontract Bidder is Ownable {\n    Auction public auctionAddr;\n    string public commitment; // JSON\n\n    uint256[] public gx; // round 1 (start from MSB)\n    uint256[] public gr; // round 1 (start from MSB)\n    uint256[] public b; // round 2 (start from MSB)\n\n    constructor(\n        Auction _auctionAddr,\n        string memory _commitment\n    ) {\n        auctionAddr = _auctionAddr;\n        commitment = _commitment;\n    }\n\n    function round1(uint256 _gx, uint256 _gr) public onlyOwner {\n        // TODO: check already submit case\n        gx.push(_gx);\n        gr.push(_gr);\n    }\n\n    function round2(uint256 _b) public onlyOwner {\n        // TODO: check already submit case\n        b.push(_b);\n    }\n}\n\ncontract Auction {\n    address public auctioneer;\n\n    // auction parameters\n    string public auctionName;\n    string public auctionDesc;\n    uint8 public bitLen = 4;\n    address[] public bidders;\n    mapping(address => Bidder) public bidderContractMap;\n\n    // group parameters\n    uint256 public q;\n    uint256 public p;\n    uint256 public g;\n\n    // state maintain parameters\n    bool public mpcStartFlag = false;\n    uint8 public curBit = bitLen - 1;\n    uint8 public curRound = 1;\n    mapping(uint8 => mapping(uint8 => address[])) public roundBidders;\n\n    event JoinAuctionEvent(address sender, string commitment);\n    event Round1Notification(address sender, uint256 gx, uint256 gr);\n    event Round2Notification(address sender, uint256 b);\n    event RoundEndNotification(uint8 curBit, uint8 curRound);\n\n    uint256 public commitDeadline;\n\n    constructor(\n        string memory _auctionName,\n        string memory _auctionDesc,\n        address _auctioneer,\n        uint256 _relCommitDeadlineSec,\n        uint256 _q,\n        uint256 _p,\n        uint256 _g\n    ) {\n        auctionName = _auctionName;\n        auctionDesc = _auctionDesc;\n        auctioneer = _auctioneer;\n        commitDeadline = block.timestamp + _relCommitDeadlineSec;\n        q = _q;\n        p = _p;\n        g = _g;\n    }\n\n    modifier mpcStart() {\n        require(\n            mpcStartFlag == true ||\n                (mpcStartFlag == false && block.timestamp > commitDeadline)\n        );\n\n        // start auction\n        if (mpcStartFlag == false && block.timestamp > commitDeadline) {\n            mpcStartFlag = true;\n        }\n        _;\n    }\n\n    modifier updateState() {\n        _;\n        roundBidders[curBit][curRound].push(msg.sender);\n        // move to next round\n        if (roundEnd()) {\n            if (curRound == 1) {\n                curRound = 2;\n            } else if (curRound == 2) {\n                curBit--;\n                curRound = 1;\n            }\n            emit RoundEndNotification(curBit, curRound);\n        }\n    }\n\n    function getBidders() public view returns (address[] memory) {\n        return bidders;\n    }\n\n    function roundEnd() public view returns (bool) {\n        return roundBidders[curBit][curRound].length == bidders.length;\n    }\n\n    function joinAuction(string memory commitment) public returns (Bidder) {\n        require(\n            block.timestamp <= commitDeadline,\n            \"Can't join auction: commit stage is over\"\n        );\n        Bidder newBidder = new Bidder(this, commitment);\n        bidderContractMap[msg.sender] = newBidder;\n        bidders.push(msg.sender);\n\n        emit JoinAuctionEvent(msg.sender, commitment);\n\n        return newBidder;\n    }\n\n    function round1(uint256 _gx, uint256 _gr) public mpcStart updateState {\n        require(curRound == 1, \"Not round 1\");\n        bidderContractMap[msg.sender].round1(_gx, _gr);\n        emit Round1Notification(msg.sender, _gx, _gr);\n    }\n\n    function round2(uint256 _b) public mpcStart updateState {\n        require(curRound == 2, \"Not round 2\");\n        bidderContractMap[msg.sender].round2(_b);\n        emit Round2Notification(msg.sender, _b);\n    }\n}\n\ncontract Main {\n    address public owner = msg.sender;\n    Auction[] public auctions;\n\n    function getAuctions() public view returns (Auction[] memory) {\n        return auctions;\n    }\n\n    function createAuction(\n        string memory _auctionName,\n        string memory _auctionDesc,\n        uint256 _relCommitDeadlineSec,\n        uint256 _q,\n        uint256 _p,\n        uint256 _g\n    ) public returns (Auction) {\n        require(bytes(_auctionName).length > 0);\n        // TODO: check group is valid (require efficient implementation of exponentiation)\n        // 1. p = q * r + 1\n        // 2. g = h^r mod p\n        // 3. g^q = 1 mod p\n\n        Auction newAuction = new Auction(\n            _auctionName,\n            _auctionDesc,\n            msg.sender,\n            _relCommitDeadlineSec,\n            _q,\n            _p,\n            _g\n        );\n        auctions.push(newAuction);\n\n        return newAuction;\n    }\n}\n",
  "sourcePath": "/Users/ykzheng/Projects/SEAL-Bid-Auction/smart-contract/contracts/Main.sol",
  "compiler": {
    "name": "solc",
    "version": "0.8.10+commit.fc410830.Emscripten.clang"
  },
  "schemaVersion": "3.4.4",
  "updatedAt": "2022-01-12T16:59:31.858Z",
  "devdoc": {
    "kind": "dev",
    "methods": {
      "owner()": {
        "details": "Returns the address of the current owner."
      },
      "renounceOwnership()": {
        "details": "Leaves the contract without owner. It will not be possible to call `onlyOwner` functions anymore. Can only be called by the current owner. NOTE: Renouncing ownership will leave the contract without an owner, thereby removing any functionality that is only available to the owner."
      },
      "transferOwnership(address)": {
        "details": "Transfers ownership of the contract to a new account (`newOwner`). Can only be called by the current owner."
      }
    },
    "version": 1
  },
  "userdoc": {
    "kind": "user",
    "methods": {},
    "version": 1
  }
}