{
  "contractName": "Bidder",
  "abi": [
    {
      "inputs": [
        {
          "internalType": "contract Auction",
          "name": "_auctionAddr",
          "type": "address"
        },
        {
          "internalType": "string",
          "name": "_commitment",
          "type": "string"
        }
      ],
      "stateMutability": "nonpayable",
      "type": "constructor"
    },
    {
      "anonymous": false,
      "inputs": [
        {
          "indexed": true,
          "internalType": "address",
          "name": "previousOwner",
          "type": "address"
        },
        {
          "indexed": true,
          "internalType": "address",
          "name": "newOwner",
          "type": "address"
        }
      ],
      "name": "OwnershipTransferred",
      "type": "event"
    },
    {
      "inputs": [],
      "name": "auctionAddr",
      "outputs": [
        {
          "internalType": "contract Auction",
          "name": "",
          "type": "address"
        }
      ],
      "stateMutability": "view",
      "type": "function"
    },
    {
      "inputs": [],
      "name": "commitment",
      "outputs": [
        {
          "internalType": "string",
          "name": "",
          "type": "string"
        }
      ],
      "stateMutability": "view",
      "type": "function"
    },
    {
      "inputs": [],
      "name": "owner",
      "outputs": [
        {
          "internalType": "address",
          "name": "",
          "type": "address"
        }
      ],
      "stateMutability": "view",
      "type": "function"
    },
    {
      "inputs": [
        {
          "internalType": "uint256",
          "name": "",
          "type": "uint256"
        }
      ],
      "name": "r1",
      "outputs": [
        {
          "internalType": "string",
          "name": "",
          "type": "string"
        }
      ],
      "stateMutability": "view",
      "type": "function"
    },
    {
      "inputs": [
        {
          "internalType": "uint256",
          "name": "",
          "type": "uint256"
        }
      ],
      "name": "r2",
      "outputs": [
        {
          "internalType": "string",
          "name": "",
          "type": "string"
        }
      ],
      "stateMutability": "view",
      "type": "function"
    },
    {
      "inputs": [],
      "name": "renounceOwnership",
      "outputs": [],
      "stateMutability": "nonpayable",
      "type": "function"
    },
    {
      "inputs": [
        {
          "internalType": "address",
          "name": "newOwner",
          "type": "address"
        }
      ],
      "name": "transferOwnership",
      "outputs": [],
      "stateMutability": "nonpayable",
      "type": "function"
    },
    {
      "inputs": [
        {
          "internalType": "string",
          "name": "_r1",
          "type": "string"
        }
      ],
      "name": "round1",
      "outputs": [],
      "stateMutability": "nonpayable",
      "type": "function"
    },
    {
      "inputs": [
        {
          "internalType": "string",
          "name": "_r2",
          "type": "string"
        }
      ],
      "name": "round2",
      "outputs": [],
      "stateMutability": "nonpayable",
      "type": "function"
    }
  ],
  "bytecode": "0x60806040523480156200001157600080fd5b50604051620012e4380380620012e483398181016040528101906200003791906200044b565b620000576200004b620000b960201b60201c565b620000c160201b60201c565b81600160006101000a81548173ffffffffffffffffffffffffffffffffffffffff021916908373ffffffffffffffffffffffffffffffffffffffff1602179055508060029080519060200190620000b092919062000185565b50505062000516565b600033905090565b60008060009054906101000a900473ffffffffffffffffffffffffffffffffffffffff169050816000806101000a81548173ffffffffffffffffffffffffffffffffffffffff021916908373ffffffffffffffffffffffffffffffffffffffff1602179055508173ffffffffffffffffffffffffffffffffffffffff168173ffffffffffffffffffffffffffffffffffffffff167f8be0079c531659141344cd1fd0a4f28419497f9722a3daafe3b4186f6b6457e060405160405180910390a35050565b8280546200019390620004e0565b90600052602060002090601f016020900481019282620001b7576000855562000203565b82601f10620001d257805160ff191683800117855562000203565b8280016001018555821562000203579182015b8281111562000202578251825591602001919060010190620001e5565b5b50905062000212919062000216565b5090565b5b808211156200023157600081600090555060010162000217565b5090565b6000604051905090565b600080fd5b600080fd5b600073ffffffffffffffffffffffffffffffffffffffff82169050919050565b6000620002768262000249565b9050919050565b60006200028a8262000269565b9050919050565b6200029c816200027d565b8114620002a857600080fd5b50565b600081519050620002bc8162000291565b92915050565b600080fd5b600080fd5b6000601f19601f8301169050919050565b7f4e487b7100000000000000000000000000000000000000000000000000000000600052604160045260246000fd5b6200031782620002cc565b810181811067ffffffffffffffff82111715620003395762000338620002dd565b5b80604052505050565b60006200034e62000235565b90506200035c82826200030c565b919050565b600067ffffffffffffffff8211156200037f576200037e620002dd565b5b6200038a82620002cc565b9050602081019050919050565b60005b83811015620003b75780820151818401526020810190506200039a565b83811115620003c7576000848401525b50505050565b6000620003e4620003de8462000361565b62000342565b905082815260208101848484011115620004035762000402620002c7565b5b6200041084828562000397565b509392505050565b600082601f83011262000430576200042f620002c2565b5b815162000442848260208601620003cd565b91505092915050565b600080604083850312156200046557620004646200023f565b5b60006200047585828601620002ab565b925050602083015167ffffffffffffffff81111562000499576200049862000244565b5b620004a78582860162000418565b9150509250929050565b7f4e487b7100000000000000000000000000000000000000000000000000000000600052602260045260246000fd5b60006002820490506001821680620004f957607f821691505b6020821081141562000510576200050f620004b1565b5b50919050565b610dbe80620005266000396000f3fe608060405234801561001057600080fd5b50600436106100935760003560e01c80638da5cb5b116100665780638da5cb5b14610120578063e4cba8591461013e578063f25910d21461015a578063f2fde38b14610176578063fa6a6d361461019257610093565b806305e27c22146100985780631303a484146100c85780632f948768146100e6578063715018a614610116575b600080fd5b6100b260048036038101906100ad9190610894565b6101b0565b6040516100bf919061095a565b60405180910390f35b6100d061025c565b6040516100dd919061095a565b60405180910390f35b61010060048036038101906100fb9190610894565b6102ea565b60405161010d919061095a565b60405180910390f35b61011e610396565b005b61012861041e565b60405161013591906109bd565b60405180910390f35b61015860048036038101906101539190610b0d565b610447565b005b610174600480360381019061016f9190610b0d565b610502565b005b610190600480360381019061018b9190610b82565b6105bd565b005b61019a6106b5565b6040516101a79190610c0e565b60405180910390f35b600481815481106101c057600080fd5b9060005260206000200160009150905080546101db90610c58565b80601f016020809104026020016040519081016040528092919081815260200182805461020790610c58565b80156102545780601f1061022957610100808354040283529160200191610254565b820191906000526020600020905b81548152906001019060200180831161023757829003601f168201915b505050505081565b6002805461026990610c58565b80601f016020809104026020016040519081016040528092919081815260200182805461029590610c58565b80156102e25780601f106102b7576101008083540402835291602001916102e2565b820191906000526020600020905b8154815290600101906020018083116102c557829003601f168201915b505050505081565b600381815481106102fa57600080fd5b90600052602060002001600091509050805461031590610c58565b80601f016020809104026020016040519081016040528092919081815260200182805461034190610c58565b801561038e5780601f106103635761010080835404028352916020019161038e565b820191906000526020600020905b81548152906001019060200180831161037157829003601f168201915b505050505081565b61039e6106db565b73ffffffffffffffffffffffffffffffffffffffff166103bc61041e565b73ffffffffffffffffffffffffffffffffffffffff1614610412576040517f08c379a000000000000000000000000000000000000000000000000000000000815260040161040990610cd6565b60405180910390fd5b61041c60006106e3565b565b60008060009054906101000a900473ffffffffffffffffffffffffffffffffffffffff16905090565b61044f6106db565b73ffffffffffffffffffffffffffffffffffffffff1661046d61041e565b73ffffffffffffffffffffffffffffffffffffffff16146104c3576040517f08c379a00000000000000000000000000000000000000000000000000000000081526004016104ba90610cd6565b60405180910390fd5b6004819080600181540180825580915050600190039060005260206000200160009091909190915090805190602001906104fe9291906107a7565b5050565b61050a6106db565b73ffffffffffffffffffffffffffffffffffffffff1661052861041e565b73ffffffffffffffffffffffffffffffffffffffff161461057e576040517f08c379a000000000000000000000000000000000000000000000000000000000815260040161057590610cd6565b60405180910390fd5b6003819080600181540180825580915050600190039060005260206000200160009091909190915090805190602001906105b99291906107a7565b5050565b6105c56106db565b73ffffffffffffffffffffffffffffffffffffffff166105e361041e565b73ffffffffffffffffffffffffffffffffffffffff1614610639576040517f08c379a000000000000000000000000000000000000000000000000000000000815260040161063090610cd6565b60405180910390fd5b600073ffffffffffffffffffffffffffffffffffffffff168173ffffffffffffffffffffffffffffffffffffffff1614156106a9576040517f08c379a00000000000000000000000000000000000000000000000000000000081526004016106a090610d68565b60405180910390fd5b6106b2816106e3565b50565b600160009054906101000a900473ffffffffffffffffffffffffffffffffffffffff1681565b600033905090565b60008060009054906101000a900473ffffffffffffffffffffffffffffffffffffffff169050816000806101000a81548173ffffffffffffffffffffffffffffffffffffffff021916908373ffffffffffffffffffffffffffffffffffffffff1602179055508173ffffffffffffffffffffffffffffffffffffffff168173ffffffffffffffffffffffffffffffffffffffff167f8be0079c531659141344cd1fd0a4f28419497f9722a3daafe3b4186f6b6457e060405160405180910390a35050565b8280546107b390610c58565b90600052602060002090601f0160209004810192826107d5576000855561081c565b82601f106107ee57805160ff191683800117855561081c565b8280016001018555821561081c579182015b8281111561081b578251825591602001919060010190610800565b5b509050610829919061082d565b5090565b5b8082111561084657600081600090555060010161082e565b5090565b6000604051905090565b600080fd5b600080fd5b6000819050919050565b6108718161085e565b811461087c57600080fd5b50565b60008135905061088e81610868565b92915050565b6000602082840312156108aa576108a9610854565b5b60006108b88482850161087f565b91505092915050565b600081519050919050565b600082825260208201905092915050565b60005b838110156108fb5780820151818401526020810190506108e0565b8381111561090a576000848401525b50505050565b6000601f19601f8301169050919050565b600061092c826108c1565b61093681856108cc565b93506109468185602086016108dd565b61094f81610910565b840191505092915050565b600060208201905081810360008301526109748184610921565b905092915050565b600073ffffffffffffffffffffffffffffffffffffffff82169050919050565b60006109a78261097c565b9050919050565b6109b78161099c565b82525050565b60006020820190506109d260008301846109ae565b92915050565b600080fd5b600080fd5b7f4e487b7100000000000000000000000000000000000000000000000000000000600052604160045260246000fd5b610a1a82610910565b810181811067ffffffffffffffff82111715610a3957610a386109e2565b5b80604052505050565b6000610a4c61084a565b9050610a588282610a11565b919050565b600067ffffffffffffffff821115610a7857610a776109e2565b5b610a8182610910565b9050602081019050919050565b82818337600083830152505050565b6000610ab0610aab84610a5d565b610a42565b905082815260208101848484011115610acc57610acb6109dd565b5b610ad7848285610a8e565b509392505050565b600082601f830112610af457610af36109d8565b5b8135610b04848260208601610a9d565b91505092915050565b600060208284031215610b2357610b22610854565b5b600082013567ffffffffffffffff811115610b4157610b40610859565b5b610b4d84828501610adf565b91505092915050565b610b5f8161099c565b8114610b6a57600080fd5b50565b600081359050610b7c81610b56565b92915050565b600060208284031215610b9857610b97610854565b5b6000610ba684828501610b6d565b91505092915050565b6000819050919050565b6000610bd4610bcf610bca8461097c565b610baf565b61097c565b9050919050565b6000610be682610bb9565b9050919050565b6000610bf882610bdb565b9050919050565b610c0881610bed565b82525050565b6000602082019050610c236000830184610bff565b92915050565b7f4e487b7100000000000000000000000000000000000000000000000000000000600052602260045260246000fd5b60006002820490506001821680610c7057607f821691505b60208210811415610c8457610c83610c29565b5b50919050565b7f4f776e61626c653a2063616c6c6572206973206e6f7420746865206f776e6572600082015250565b6000610cc06020836108cc565b9150610ccb82610c8a565b602082019050919050565b60006020820190508181036000830152610cef81610cb3565b9050919050565b7f4f776e61626c653a206e6577206f776e657220697320746865207a65726f206160008201527f6464726573730000000000000000000000000000000000000000000000000000602082015250565b6000610d526026836108cc565b9150610d5d82610cf6565b604082019050919050565b60006020820190508181036000830152610d8181610d45565b905091905056fea2646970667358221220d32065e1f717ea4cfd1e83c67c4b25bf770c1cbf12e5f41f745067634852d42764736f6c634300080a0033",
  "immutableReferences": {},
  "source": "// SPDX-License-Identifier: MIT\npragma solidity >=0.4.22 <0.9.0;\n\nimport \"@openzeppelin/contracts/access/Ownable.sol\";\n\n// Improve: Use Event&Log to store Bidder information\ncontract Bidder is Ownable {\n    Auction public auctionAddr;\n    string public commitment; // JSON\n    string[] public r1; // JSON (start from MSB)\n    string[] public r2; // JSON (start from MSB)\n\n    // uint256[] public gx; // round 1 (start from MSB)\n    // uint256[] public gr; // round 1 (start from MSB)\n    // uint256[] public b; // round 2 (start from MSB)\n\n    constructor(\n        Auction _auctionAddr,\n        string memory _commitment\n    ) {\n        auctionAddr = _auctionAddr;\n        commitment = _commitment;\n    }\n\n    function round1(string memory _r1) public onlyOwner {\n        r1.push(_r1);\n        // TODO: check already submit case\n        // gx.push(_gx);\n        // gr.push(_gr);\n    }\n\n    function round2(string memory _r2) public onlyOwner {\n        r2.push(_r2);\n        // TODO: check already submit case\n        // b.push(_b);\n    }\n}\n\ncontract Auction {\n    address public auctioneer;\n\n    // auction parameters\n    string public auctionName;\n    string public auctionDesc;\n    // uint8 public bitLen = 4;\n    address[] public bidders;\n    mapping(address => Bidder) public bidderContractMap;\n\n    // group parameters\n    uint256 public q;\n    uint256 public p;\n    uint256 public g;\n\n    // state maintain parameters\n    // bool public mpcStartFlag = false;\n    // uint8 public curBit = bitLen - 1;\n    // uint8 public curRound = 1;\n    // mapping(uint8 => mapping(uint8 => address[])) public roundBidders;\n\n    event JoinAuctionEvent(address sender, string commitment);\n    event Round1Event(address sender, string r1);\n    event Round2Event(address sender, string r2);\n    event claimWinnerEvent(address sender, string prik);\n    // event RoundEndNotification(uint8 curBit, uint8 curRound);\n\n    uint256 public commitDeadline;\n\n    constructor(\n        string memory _auctionName,\n        string memory _auctionDesc,\n        address _auctioneer,\n        uint256 _relCommitDeadlineSec,\n        uint256 _q,\n        uint256 _p,\n        uint256 _g\n    ) {\n        auctionName = _auctionName;\n        auctionDesc = _auctionDesc;\n        auctioneer = _auctioneer;\n        commitDeadline = block.timestamp + _relCommitDeadlineSec;\n        q = _q;\n        p = _p;\n        g = _g;\n    }\n\n    // modifier mpcStart() {\n    //     require(\n    //         mpcStartFlag == true ||\n    //             (mpcStartFlag == false && block.timestamp > commitDeadline)\n    //     );\n\n    //     // start auction\n    //     if (mpcStartFlag == false && block.timestamp > commitDeadline) {\n    //         mpcStartFlag = true;\n    //     }\n    //     _;\n    // }\n\n    // modifier updateState() {\n    //     _;\n    //     roundBidders[curBit][curRound].push(msg.sender);\n    //     // move to next round\n    //     if (roundEnd()) {\n    //         if (curRound == 1) {\n    //             curRound = 2;\n    //         } else if (curRound == 2) {\n    //             curBit--;\n    //             curRound = 1;\n    //         }\n    //         // emit RoundEndNotification(curBit, curRound);\n    //     }\n    // }\n\n    function getBidders() public view returns (address[] memory) {\n        return bidders;\n    }\n\n    // function roundEnd() public view returns (bool) {\n    //     return roundBidders[curBit][curRound].length == bidders.length;\n    // }\n\n    function joinAuction(string memory commitment) public returns (Bidder) {\n        require(\n            block.timestamp <= commitDeadline,\n            \"Can't join auction: commit stage is over\"\n        );\n        Bidder newBidder = new Bidder(this, commitment);\n        bidderContractMap[msg.sender] = newBidder;\n        bidders.push(msg.sender);\n\n        emit JoinAuctionEvent(msg.sender, commitment);\n\n        return newBidder;\n    }\n\n    function round1(string memory _r1) public {\n        // require(curRound == 1, \"Not round 1\");\n        // bidderContractMap[msg.sender].round1(_r1);\n        emit Round1Event(msg.sender, _r1);\n    }\n\n    function round2(string memory _r2) public {\n        // require(curRound == 2, \"Not round 2\");\n        // bidderContractMap[msg.sender].round2(_r2);\n        emit Round2Event(msg.sender, _r2);\n    }\n\n    function claimWinner(string memory _prik) public {\n        emit claimWinnerEvent(msg.sender, _prik);\n    }\n}\n\ncontract Main {\n    address public owner = msg.sender;\n    Auction[] public auctions;\n\n    function getAuctions() public view returns (Auction[] memory) {\n        return auctions;\n    }\n\n    function createAuction(\n        string memory _auctionName,\n        string memory _auctionDesc,\n        uint256 _relCommitDeadlineSec,\n        uint256 _q,\n        uint256 _p,\n        uint256 _g\n    ) public returns (Auction) {\n        require(bytes(_auctionName).length > 0);\n        // TODO: check group is valid (require efficient implementation of exponentiation)\n        // 1. p = q * r + 1\n        // 2. g = h^r mod p\n        // 3. g^q = 1 mod p\n\n        Auction newAuction = new Auction(\n            _auctionName,\n            _auctionDesc,\n            msg.sender,\n            _relCommitDeadlineSec,\n            _q,\n            _p,\n            _g\n        );\n        auctions.push(newAuction);\n\n        return newAuction;\n    }\n}\n",
  "sourcePath": "/Users/ykzheng/Projects/SEAL-Bid-Auction/smart-contract/contracts/Main.sol",
  "compiler": {
    "name": "solc",
    "version": "0.8.10+commit.fc410830.Emscripten.clang"
  },
  "schemaVersion": "3.4.4",
  "updatedAt": "2022-01-12T18:24:44.259Z",
  "devdoc": {
    "kind": "dev",
    "methods": {
      "owner()": {
        "details": "Returns the address of the current owner."
      },
      "renounceOwnership()": {
        "details": "Leaves the contract without owner. It will not be possible to call `onlyOwner` functions anymore. Can only be called by the current owner. NOTE: Renouncing ownership will leave the contract without an owner, thereby removing any functionality that is only available to the owner."
      },
      "transferOwnership(address)": {
        "details": "Transfers ownership of the contract to a new account (`newOwner`). Can only be called by the current owner."
      }
    },
    "version": 1
  },
  "userdoc": {
    "kind": "user",
    "methods": {},
    "version": 1
  }
}